S01600003370692D6D617A65736F6C7665722E737265638D
S11300000C9456000C9473000C9473000C947300BD
S11300100C9473000C9473000C9473000C94730090
S11300200C9473000C946D0B0C9473000C9473007B
S11300300C9473000C9425080C9473000C947300B6
S11300400C9473000C9473000C9473000C94730060
S11300500C9473000C9473000C9473000C94730050
S11300600C9473000C947300000000000000001F47
S11300701F1F1F1F1F1F4C31362063646567726585
S11300806734003E6733323E3E63333200736F6C35
S1130090766572004D617A650033F720526F626FA6
S11300A0740020506F6C6F6C7500470C11241FBED8
S11300B0CFEFD8E0DEBFCDBF11E0A0E0B1E0E2ECCD
S11300C0F6E202C005900D92AE35B107D9F722E0F1
S11300D0AEE5B1E001C01D92AA34B207E1F70E9477
S11300E040020C9454130C94000060E088E690E005
S11300F00E94660961E089E690E00E94660962E078
S11301008AE690E00E94660963E08BE690E00E9434
S1130110660964E08CE690E00E94660965E08DE67D
S113012090E00E94660966E08EE690E00E9466090F
S11301300C94D909BF92CF92DF92EF92FF920F9362
S11301401F93CF93DF93CDB7DEB72A970FB6F894FA
S1130150DEBF0FBECDBF8C017C018AE0E80EF11C2E
S11301608AE0B82E95E6C92ED12CE4E1F1E0DE0157
S113017011968B2D01900D928A95E1F7F8018191EA
S113018091918F01B6010E945F11E1E0F0E0EC0F64
S1130190FD1FE60FF71F80810E9469090E151F05D8
S11301A021F72A960FB6F894DEBF0FBECDBFDF91BC
S11301B0CF911F910F91FF90EF90DF90CF90BF9060
S11301C008952F923F924F925F926F927F928F92F7
S11301D09F92AF92BF92CF92DF92EF92FF920F93D2
S11301E01F93CF93DF93CDB7DEB72A970FB6F8945A
S11301F0DEBF0FBECDBFC12CD12C7601A12CB12CFA
S113020060EE462E6EE2562E612C712C79E1272E7B
S1130210312CE2E38E2E912C61E0CE0101960E94F6
S11302200D0C8C01005D1740C801012E000CAA0BB7
S1130230BB0BC80ED91EEA1EFB1EC701B601A301E3
S113024092010E94A911F801EA19FB09CF01880F54
S1130250991F8E0F9F1F97FD019695958795280FDF
S1130260391FC801B1010E947311C901860F971F7C
S1130270833391056CF48E3C2FEF92071CF097FDAD
S113028003C008C08EEC9FEF62E370E0C29607C023
S113029082E390E0B401681B790B82E390E00E9452
S11302A0270B8B819C818436910550F48D819E812E
S11302B08436910528F48F8198858436910560F001
S11302C089819A81893C910538F489859A85893C8C
S11302D0910510F45801A0CF2A960FB6F894DEBF0A
S11302E00FBECDBFDF91CF911F910F91FF90EF9083
S11302F0DF90CF90BF90AF909F908F907F906F9042
S11303005F904F903F902F9008950F931F93CF933A
S1130310DF93CDB7DEB72A970FB6F894DEBF0FBED2
S1130320CDBF80ED97E00E94430C0E94750082EAE5
S113033090E00E94F90961E080E00E94710A89E975
S113034090E00E94F90983E890E00E94A60888EEF4
S113035093E00E94B50B0E94D90984E990E00E94C1
S1130360F90961E080E00E94710A8DE890E00E9442
S1130370F90988EE93E00E94B50B80E10E946A0BB4
S113038081111AC00E946B058C010E94D909B80121
S1130390110F880B990B0E944E0A8BE391E00E9487
S11303A0E80961E080E00E94710A8EE391E00E9416
S11303B0E80984E690E0DFCF80E10E94560B88EEE6
S11303C093E00E94B50B0CEE1FEF0832110528F0E4
S11303D068ED7FEF88E290E004C068E270E088EDA9
S11303E09FEF0E94270B81E00E94070C84E190E0BC
S11303F00E94B50B0F5F1F4F0C33110531F760E0FE
S113040070E080E090E00E94270B80E10E946A0B7C
S113041081111AC061E0CE0101960E940D0C8C017D
S11304200E94D909B80180E090E00E944E0A61E080
S113043080E00E94710ACE0101960E949A0084E62F
S113044090E00E94B50BE1CF80E10E94560B0E9420
S1130450D90986E491E00E94E80986E790E00E94C9
S1130460A6080E9485088111FCCF2A960FB6F8943D
S1130470DEBF0FBECDBFDF91CF911F910F910895C5
S11304800E9485010E94B702FFCFE091C401F0E011
S1130490EB53FE4F10820E94D90985EC91E00E9433
S11304A0E8098091C401893040F061E080E00E9455
S11304B0710A8DEC91E00C94E8090895811106C04D
S11304C0611106C0411106C082E408958CE40895C8
S11304D083E5089582E508954091C401433008F40A
S11304E045C0242F30E02B533E4FF90132978081D1
S11304F08234E1F5F90161E070E080E090E052912E
S11305005C3451F0523529F0523441F48C549F4FED
S113051005C0865A9F4F02C0825F9E4F6F5F7F4F18
S11305206430710561F768E671E00E9473118A35E1
S1130530910589F034F4892BB1F4F901339783E5FB
S113054011C0843B910559F08E30914061F4F9015A
S113055033978CE407C0F901339782E503C0F901AE
S1130560339782E4808342504093C4010895CF932B
S1130570DF93CDB7DEB72B970FB6F894DEBF0FBE6F
S1130580CDBF80E090E0FC01E35DFD4F108211825D
S1130590128213821482059689319105A1F705E030
S11305A094E2F92E0E94D9098AE491E00E94E809B4
S11305B06091C20170E080E090E00E944E0A8CE4F9
S11305C091E00E94E8096091C10170E080E090E050
S11305D00E944E0A8EE491E00E94E80961E080E006
S11305E00E94710A6091C30170E080E090E00E9473
S11305F04E0A0E94E1008091C3018930E1F018F4B1
S1130600882331F051C0823149F18B31D1F14CC092
S1130610E091C201EF5FE093C2018091C1010E9F9E
S1130620F0011124E80FF11DE35DFD4F808180FD91
S11306303DC08F5F38C08091C1018F5F8093C1013D
S1130640E091C2010E9FF0011124E80FF11DE35D5A
S1130650FD4F808181FD2CC08E5F25C0E091C201D9
S1130660E150E093C2018091C1010E9FF001112479
S1130670E80FF11DE35DFD4F808182FD1BC08C5F9F
S113068012C08091C10181508093C101E091C201E7
S11306900E9FF0011124E80FF11DE35DFD4F8081F1
S11306A083FD0AC0885F808310E007C011E005C0A5
S11306B012E003C014E001C018E062E370E082E3DA
S11306C090E00E94270B82E390E00E94B50B61E06A
S11306D0CE0101960E940D0CEE24E39489819A8147
S11306E08536910508F4E12C41E089859A858536A3
S11306F0910508F440E068E270E088E290E04B87FE
S11307000E94270B84E690E00E94B50B61E0CE01C5
S113071001960E940D0C8B819C814B85893C91052F
S113072060F48D819E81893C9105A8F48F81988520
S1130730893C910580F460E00FC08935924058F0FF
S11307408D819E818935924030F08F8198858935DD
S1130750924008F067C061E08E2D0E945E02E82E90
S113076068E270E088E290E00E94270B84E690E063
S11307700E94B50B8E2D0E947B049091C3012CE442
S1130780E21641F082E5E81639F0E2E4EE1207C021
S11307909E5E03C0975F01C0955E9093C3018091F4
S11307A0C3016F2D0E9453119093C301113049F47A
S11307B060E070E080E090E00E94270B84EF91E01D
S11307C020C0123049F460E070E080E090E00E94C4
S11307D0270B88EE93E015C0143049F460E070E014
S11307E080E090E00E94270B8CED95E00AC0183061
S11307F051F460E070E080E090E00E94270B80ED0F
S113080097E00E94B50B8091C401E82FF0E0EB5310
S1130810FE4FE0828F5F8093C4010E946C020E94AD
S11308204502C0CE80EDC82E87E0D82EE12CF12CF5
S113083060E070E080E090E00E94270B80E591E0AA
S11308400E94950880E10E946A0B811121C00E94D8
S1130850ED0BA70196010E948711683E7340810544
S1130860910578F40E94D90986E591E00E94E8098F
S113087061E080E00E94710A8EE391E00E94E80941
S113088002C00E9445028EE190E00E94B50BDACFCF
S113089080E10E946A0B8111FBCF88EE93E00E94F5
S11308A0B50B05EC11E08091C40190E0A801455C12
S11308B0514048175907E4F40E94E10062E370E0F4
S11308C082E390E00E94270B82E390E00E94B50B44
S11308D068E270E088E290E00E94270B88EC90E0E8
S11308E00E94B50BF80181918F010E947B04DBCF3C
S11308F00E94E1009DCF8C3469F0823581F082340E
S1130900C1F460EB7FEF80E590E00E94270B80E963
S113091091E00DC060E570E080EB9FEF04C060EBF8
S11309207FEF80E590E00E94270B88EC90E00C9428
S1130930B50B0895ECE7F0E080818F7D8083089506
S1130940811103C00E949A04089580917C00806202
S113095080937C00089580917C0085FB882780F932
S113096008950E94AB04882321F08091790090E0DF
S11309700895809178009091790008958032A0F4D0
S113098097E890937A0090917C00662311F0906C24
S113099002C09F779064907E982B90937C00809106
S11309A07A00806480937A000895A0E0B0E0EBEDD3
S11309B0F4E00C94F411EB0160E00E94BE04809119
S11309C07A0086FDFCCF8E01C12CD12C760180915A
S11309D07A00806480937A0080917A0086FDFCCF4F
S11309E00E94B104C80ED91EE11CF11C015011096A
S11309F00115110561F7CE0196958795C034D1058F
S1130A0038F48C0D9D1DBE010E945F11CB010EC0F8
S1130A10A7019601280F391F411D511DCA01B901B3
S1130A209E0140E050E00E948711C901CDB7DEB7B6
S1130A30E8E00C941012CF92DF92EF92FF92A09113
S1130A400001B09101019C010E94C8116B017C015D
S1130A500E94AB04882359F0C701B60161587F4F47
S1130A608F4F9F4F2FEF30E040E050E00AC0C701A6
S1130A70B60161507E4F8F4F9F4F2FEF33E040E020
S1130A8050E00E948711C901FF90EF90DF90CF9052
S1130A9008950E94D5040E941B0508951F93CF93C7
S1130AA0DF930E94AB04182F0E949A046AE070E05E
S1130AB086E00E944905EC01812F0E94A004CE012A
S1130AC0880F991F8C0F9D1F019696958795DF912E
S1130AD0CF911F9108950E944E050895909163014E
S1130AE0E0915E01F0915F01992311F0849101C0BE
S1130AF080812FEB280F2A3110F4805E0895803214
S1130B0049F49F012F5F3F4F30935F0120935E01B3
S1130B10EF2B31F708951F93CF93DF930E946E0557
S1130B20C0E0D0E01AE090ED980F9A30B8F49E013E
S1130B30129FE001139FD00D1124C80FD11D87FD12
S1130B40DA95E09780915E0190915F010196909310
S1130B505F0180935E010E946E05E5CFCE01DF91B7
S1130B60CF911F91089510926F0083E280938000CB
S1130B7081E1809381001092820080E197E290935A
S1130B8089008093880010928B0010928A00229A28
S1130B90789408958F929F92AF92BF92DF92EF92D2
S1130BA0FF920F931F93CF93DF935C018B01D42E9D
S1130BB080916001811105C081E0809360010E94F1
S1130BC0B30510920B01B7FE05C0E894B7F82AE00C
S1130BD0F22E02C0FF24F394E09081002E2D287F92
S1130BE0E22E48ECF49EC00111248A159B05E0F422
S1130BF0E50151E1A51657E2B50610F0C0E1D7E2D0
S1130C00BE017695679580E090E060587946874606
S1130C109F4F4E01A12CB12CA50194010E94871174
S1130C2059018E2D816024C0C8E2FC9EC02D112480
S1130C30D0E0CA15DB0508F4E501BE017695679599
S1130C409E0140E050E08AE0F81207C080E090E0A6
S1130C50605E734481449F4F06C080E090E060531F
S1130C607D4E8C4E9F4F0E94871159018E2D8260BC
S1130C70882E2AE0F21207C0CE0105966AE070E0E1
S1130C800E945F11EB01C83E43E0D40759F098017C
S1130C90DE010E94C81128EE33E040E050E00E94DB
S1130CA0A911890110926F0080928100B09289008D
S1130CB0A092880020918800309189004D2D403108
S1130CC008F04FE080E190E0841B9109A90102C083
S1130CD0569547958A95E2F750938B0040938A0086
S1130CE0109366010093650186B38FEF86BB81E0A4
S1130CF080936F00DF91CF911F910F91FF90EF9040
S1130D00DF90BF90AF909F908F900895CF93DF9323
S1130D10EB018F3F11F0411105C040E0BE0188EEA8
S1130D2093E043C0813130F050EF580F503618F043
S1130D305FE501C050E0852F6CE00E945311682FDD
S1130D4074EF760390011124250F311D2C303105E9
S1130D5040F4F901EE0FFF1FE25EFE4F2081318166
S1130D6002C020E030E0873081F0082E02C0220F5C
S1130D70331F0A94E2F7823028F0C90105966AE02D
S1130D8070E00CC0C90190580CC0C90136E0880F4E
S1130D90991F3A95E1F7029665E070E00E945F11B1
S1130DA0CB01403108F04FE0BE010E94CA05DF913B
S1130DB0CF910895A2E0B0E0E0EEF6E00C94EC11DF
S1130DC090900A0180916201882321F06091610171
S1130DD0611117C077247394B0ECAB2EBDE5BB2E24
S1130DE01AE0612E04E0802E80EDC82E87E0D82E14
S1130DF094E0E92EF12C04EF11E02FE0422E512C67
S1130E0015C070E040E088EE93E00E94CA0510929D
S1130E10610117C18636D4F5813609F4A9C07CF581
S1130E208C3309F460C08E3381F493940E946E0570
S1130E3020915E0130915F012F5F3F4F30935F013E
S1130E4020935E01853631F752C0813209F08BC0A0
S1130E5080920A01D0920901C0920801F092070120
S1130E60E0920601109305010093040150920301DE
S1130E704092020110926201A4E09A2ED7CF8336E9
S1130E80A1F10CF478C010E082E077C08D36C1F196
S1130E9094F4873691F174F18C3609F064C00E94A1
S1130EA08B05BC0190930701809306018091080192
S1130EB09091090151C08237C9F14CF48F3609F081
S1130EC052C00E948B05982E80930A01AFCF8437BD
S1130ED081F1863709F047C00E948B059093030186
S1130EE080930201A3CF9A94A1CF10E020C010E018
S1130EF084E043C010E085E040C010E087E03DC0DE
S1130F000E946E058C3619F41092620104C070922E
S1130F1062011092610120915E0130915F012F5FA7
S1130F203F4F30935F0120935E0180CF11E080E05A
S1130F3024C00E948B05BC01C5010E945F11669EFE
S1130F40C001679E900D11249093090180930801BC
S1130F5060910601709107010E945F117093050171
S1130F606093040163CF10925F0110925E0169C027
S1130F7010E089E002C010E08BE0082F9CE0999E0D
S1130F80000D11240E946E05982F977F933261F40F
S1130F9020915E0130915F012F5F3F4F30935F01DD
S1130FA020935E010F5FEECF8D3271F420915E01CC
S1130FB030915F012F5F3F4F30935F0120935E01BB
S1130FC001500E946E05F0CF6091040170910501FB
S1130FD08153883050F4E0900801F09009010E9498
S1130FE08B05BC01C7010E945F117B01F694E79455
S1130FF069837A830E946E0569817A818E3269F4ED
S113100020915E0130915F012F5F3F4F30935F016C
S113101020935E016E0D7F1DE9CF809162018823CC
S113102039F09B013695279520936101621B710964
S113103040910201112311F08FEF01C0802F0E9413
S113104086062296E0E10C9408121F920F920FB6C6
S11310500F9211242F933F934F935F936F937F933A
S11310608F939F93AF93BF93EF93FF938091650109
S1131070909166019C0121503109309366012093BF
S11310806501892B11F510926F007894809181008D
S1131090887F81608093810080E197E2909389004A
S11310A08093880010928B0010928A0081E08093D4
S11310B00B0180915E0190915F01892B31F0809149
S11310C06401811102C00E94DA06FF91EF91BF9181
S11310D0AF919F918F917F916F915F914F913F91CC
S11310E02F910F900FBE0F901F90189580910B01B8
S11310F0882349F081E020915E0130915F01232B28
S113110019F480E0089581E008950E947608089516
S113111010926F0090935F0180935E0110926301BF
S1131120109261010E94DA0608950E9488080895C9
S113113010926F0090935F0180935E0181E0809331
S11311406301109261010E94DA0608950E949808D2
S1131150089581E090E06F9364E06A95F1F76F91F0
S11311600197C9F708950F931F93CF93DF931AB193
S113117057985A98289AC0E0D0E00E94A9085C9A2F
S11311800E94A90809B15C980E94A9085C9A0E946F
S1131190A9085C98249607FF10C0AE0160E070E0D7
S11311A08091670190916801A0916901B0916A01F1
S11311B0481759076A077B0700F31AB9DF91CF91E3
S11311C01F910F91089595B1282F217030E0220FBF
S11311D0331F482F467068E0469FA0011124242B3A
S11311E09D7C292B25B99BB188708295807F9F7740
S11311F0892B8BB95C9A0E94A9085C980E94A90863
S11312000895A0E0B0E0E7E0F9E00C94F511C82FF0
S1131210D62EE42E80912902811105C081E08093AD
S113122029020E9471090E94B30814B1D5B1FAB021
S11312300BB12898DD2011F05A9A01C05A9894B144
S1131240926394B9579A81E0E81629F08C2F82951D
S11312508F700E94E3088C2F8F700E94E308FAB805
S11312600BB914B9D5B9CDB7DEB7E7E00C941112B8
S113127042E060E00E940109089542E061E00E94BA
S113128001090895A1E0B0E0E8E4F9E00C94F61156
S11312908C01660F660F660FE12CF12C8E2D860FE4
S11312A0806469830E943809F801EE0DFF1D849162
S11312B00E943D098FEFE81AF80A6981E8E0EE160A
S11312C0F10461F72196E6E00C9412120E9442099F
S11312D008950E943D09089541E060E00E940109DB
S11312E0089580E197E2A0E0B0E0809367019093D5
S11312F06801A0936901B0936A01529A209A549AA2
S11313008EE190E00E94B50B83E00E946C0986E0B8
S113131090E00E94B50B83E00E946C0982E090E0AB
S11313200E94B50B83E00E946C0982E090E00E9469
S1131330B50B82E00E946C0982E090E00E94B50B3C
S113134088E20E94380988E00E94380981E00E94FE
S1131350380986E00E9438098CE00E943809089513
S113136081E00E94380980916D0190916E01892B72
S1131370F9F060E0A0E2262F30E070910C0180913A
S11313800D0190E00197789FA001799F500D1124E1
S1131390241735074CF4E0916D01F0916E01E20FD2
S11313A0F31FA0836F5FE7CF10926B0110926C0163
S11313B008950E94B0090895CF93DF93EC018991B9
S11313C0882319F00E943D09FACFDF91CF91089547
S11313D00E94DC090895CF93DF93EC01FE01849110
S11313E0882321F00E943D092196F8CFDF91CF9107
S11313F008950E94EB090895AAE0B0E0E2E0FAE063
S11314000C94F4111AE05AE0C52ED12CE12CF12CE5
S1131410062FA70196010E948711CA01B901115034
S1131420E1E0F0E0EC0FFD1FE10FF11D005D2AE0AB
S1131430629F0019112400836115710581059105CE
S113144039F71A3058F4E1E0F0E0EC0FFD1FE10F3A
S1131450F11D80810E943D091F5FF3CF2A96E8E0C9
S11314600C941012CF92DF92EF92FF926B017C01E9
S113147097FF0BC0F094E094D094C094C11CD11C8D
S1131480E11CF11C8DE20E943D09C701B6010E94D6
S1131490FC09FF90EF90DF90CF9008950E94320AEC
S11314A00895A5E0B0E0E7E5FAE00C94F911182FEF
S11314B080E8898380EC8A8384E98B8384ED8C8340
S11314C0FE01E60FF11D8181810F6D830E943809B1
S11314D010936B016D8160936C012596E3E00C948D
S11314E015120E94510A0895883058F491E001C001
S11314F0990F8A95EAF7892FAAE2B0E0EBE2F0E0CF
S113150021C08E3060F498EF980F81E001C0880FFD
S11315109A95EAF7A4E2B0E0E5E2F0E013C0853181
S113152060F492EF980F81E001C0880F9A95EAF772
S1131530A7E2B0E0E8E2F0E005C080E0A0E0B0E0BF
S1131540E0E0F0E06F3F19F49081982709C066232A
S113155019F09081982B04C02081982F90959223A4
S113156090839C91982B9C93089583EF8093B00073
S113157084BD82E08093B10085BD1092B4001092C6
S1131580B30018BC17BC60E086E00E94740A60E0F7
S113159085E00E94740A60E08BE00E94740A60E0B7
S11315A083E00E94740A089580912A02811105C083
S11315B081E080932A020E94B50A0895CF93DF93B5
S11315C0EC010E94D40AD7FF05C0D195C195D10979
S11315D081E001C080E0CF3FD10519F014F0CFEFD6
S11315E0D0E0882319F018BCC7BD02C0C8BD17BC21
S11315F0DF91CF910895CF93DF93EC010E94D40A39
S1131600D7FF05C0D195C195D10981E001C080E023
S1131610CF3FD10519F014F0CFEFD0E0882329F0A3
S11316201092B400C093B30004C0C093B4001092ED
S1131630B300DF91CF910895CF93DF93EB010E9424
S1131640DE0ACE010E94FB0ADF91CF9108950E9429
S11316501C0B089584B18D7C84B985B1826385B9EE
S113166085E090E06F9364E06A95F1F76F910197DC
S1131670C9F7089580912B02811105C081E0809300
S11316802B020E942A0B0895CF93C82F0E943A0B75
S113169083B18C23E9F38AE090E00E94B50B83B117
S11316A08C23B1F383B18C23CF9108950E94440B12
S11316B00895A1E0B0E0EFE5FBE00C94FA11898312
S11316C00E943A0B93B19095898189232196E2E097
S11316D00C9416120E94590B08952F928F939F9386
S11316E02FB68091760190917701019680937601CF
S11316F09093770190E080917801891F809378011D
S1131700909170019C5F9093700180916F01805162
S11317109742C0F09093700180936F0180917101A2
S1131720909172010196809371019093720190E0FF
S113173080917301891F8093730180917401891FC3
S1131740809374012FBE9F918F912F90189528EE4E
S113175033E0019748F0F9016F9364E06A95F1F77B
S11317606F913197C9F7F5CF08950E94A70B08959B
S1131770E0E7F0E080818E7F8083A0EBB0E08C9185
S113178083608C93A1EBB0E08C91807F8C938C91DF
S113179082608C93B89A8081816080837894089564
S11317A080912C02811105C081E080932C020E945B
S11317B0B80B08950E94D00BE0E7F0E080818E7FA3
S11317C08083609171017091720180917301909195
S11317D0740120812160208308950E94DA0B08950A
S11317E00E94D00BE0E7F0E080818E7F808310922E
S11317F0710110927201109273011092740110928F
S1131800700110926F018081816080830895682F38
S113181089E791E00E94EF0F0895462F20E0BC0174
S113182089E791E00E94C01008950F93CF93DF934E
S113183000D000D01F92CDB7DEB79C0185E0E6E36F
S1131840F1E0DE01119601900D928A95E1F766238D
S113185011F00FEF01C003E145E0BE016F5F7F4F60
S113186089E791E00E94E70C89E791E00E94BE0CB1
S11318700E94F00B0F900F900F900F900F90DF913C
S1131880CF910F91089560E00E94150C089589E7A7
S113189091E00E94351108956F9364E06A95F1F721
S11318A06F910197C9F70895FC0111821082138288
S11318B01282158214821682683068F489E290E0FC
S11318C0918380838BE290E0938382838AE290E029
S11318D0958384831FC06E3070F483E290E091831B
S11318E0808385E290E09383828384E290E0958311
S11318F0848368500FC0653198F486E290E0918348
S1131900808388E290E09383828387E290E09583EA
S113191084836E5081E001C0880F6A95EAF786835C
S11319200895A7E0B0E0E7E9FCE00C94F8118C011D
S1131930FC01118210821382128215821482178292
S11319401682613118F080E1808702C0FC01608753
S1131950F801208B642FCE0101960E94540C8F81D4
S1131960F80181878B819C81938782878D819E81F9
S1131970958784872796E4E00C941412FC01A485CF
S1131980B585109779F08C919185892B8C93A285DC
S1131990B3859C918185809589238C9388EC90E014
S11319A00E944C0C0895FC01A485B585109771F034
S11319B08C919185892B8C93A285B3858C9191858B
S11319C0892B8C9388EC90E00E944C0C0895A7E03E
S11319D0B0E0EDEEFCE00C94ED117C014B01642FC2
S11319E03901402F20E00E94910C87010F5B1F4FAB
S11319F0F80110826701F2E4CF0ED11CF6011082C7
S1131A005701F3E4AF0EB11CF5011082F70177869C
S1131A106686512CF7018085581650F5652C712C7B
S1131A20F401E60DF71D6081CE0101960E94540C6D
S1131A302F81F701E60DF71D218B89819A81F3012E
S1131A40EE0FFF1FEE0DFF1D92A381A383329105BC
S1131A5011F4F80108C08632910511F4F60103C0AF
S1131A60899721F4F5018081822B80835394D2CF0E
S1131A702796EFE00C940912A0E0B0E0E2E4FDE068
S1131A800C94EF11EC015B016C0181E4C80ED11CD4
S1131A90F60180807E01F2E4EF0EF11CF701708004
S1131AA08E010D5B1F4FF801908080E098858917A7
S1131AB048F4F501E80FF11DE80FF11D11821082C1
S1131AC08F5FF4CF84B1F6019081892B84B987B1FB
S1131AD0F7019081892B87B98AB1F8019081892B0C
S1131AE08AB985B1F6019081892B85B988B1F7014E
S1131AF09081892B88B98BB1F8019081892B8BB99E
S1131B008AE090E00E944C0C94B1F60180818095AB
S1131B10892384B997B1F70180818095892387B996
S1131B209AB1F8018081809589238AB995B1F6012B
S1131B3080818095892385B998B1F701808180954A
S1131B40892388B99BB1F8018081809589238BB959
S1131B50E090B000D090B1008091B0008360809399
S1131B60B00082E08093B1004091B20080E090E048
S1131B702E853F858217930720F5C090B2002C2D47
S1131B80241B820F911D03B1081132C0F6B0F71067
S1131B902FC029B129112CC010C0212F30E0A90178
S1131BA0440F551FF501E40FF51F60817181672B08
S1131BB021F11F5F2885121780F37F2C802E4C2D76
S1131BC0D7CFE092B000D092B10020E088852817EA
S1131BD030F5F501E20FF11DE20FF11D80819181D5
S1131BE0892B21F48E859F85918380832F5FEECF8F
S1131BF003B1F6B099B010E0DDCFDE01A40FB51F3C
S1131C0091960D90BC91A02D4C91DE01A20FB31FB3
S1131C1051962C91422369F691838083CACFCDB724
S1131C20DEB7EDE00C940B12EF92FF920F931F932B
S1131C30CF93DF93FC019B01F0907C0000917A002C
S1131C4047B118B180917A0086FDFCCF80E0908581
S1131C50891748F4D901A80FB11DA80FB11D1D9211
S1131C601C928F5FF4CF97B182A18095892387B9A5
S1131C7098B182A18095892388B987E880937A00F6
S1131C80E12C81A1E81610F0E12C29C050E08085F8
S1131C90581718F5A52FB0E0EF01CA0FDB1F89898B
S1131CA0806480937C0080917A00806480937A00C1
S1131CB080917A0086FDFCCF609178007091790064
S1131CC0AA0FBB1FA20FB31F8D919C911197860F72
S1131CD0971F8D939C935F5FDACFE394D2CF808577
S1131CE0E816A0F4E901CE0DD11DCE0DD11D61A1E0
S1131CF070E0CB0195958795A881B9818A0F9B1FC8
S1131D000E945F1179836883E394E9CFF0927C00A9
S1131D1000937A0018B947B9CDB7DEB7E6E00C9462
S1131D201212A0E2B0E0E7E9FEE00C94F5118C0198
S1131D307B01D42E8FEF840F823018F4C8010E94E7
S1131D40D30CD80150968C91B701811110C0C801F1
S1131D500E943C0DC8010E94BE0CB2E0DB123AC0E6
S1131D60BE016F5F7F4FC8010E943C0D0FC0C801C8
S1131D700E94140EC8010E94BE0CE2E0DE122AC0CA
S1131D80BE016F5F7F4FC8010E94140E40E0F8014E
S1131D9080854817F8F4842F90E0880F991FF70185
S1131DA0E80FF91F21E030E02C0F3D1F820F931F35
S1131DB0D8011E962D913C911F97DC018D919C9129
S1131DC0281B390B80819181820F931F918380831B
S1131DD04F5FDDCFA096E7E00C9411122F923F9253
S1131DE05F926F927F928F929F92AF92BF92CF92A7
S1131DF0DF92EF92FF920F931F93CF93DF93CDB7B0
S1131E00DEB7C056D1090FB6F894DEBF0FBECDBF02
S1131E108C014B015A01522EDA018D919C91892B30
S1131E2031F0F40180819181892BF1F424C0D8012F
S1131E3018968C9190E0880F991F0E942712F50143
S1131E4091838083009709F4B1C0FC0120E030E065
S1131E50D80118968C9190E02817390714F711923D
S1131E6011922F5F3F4FF4CFE12CF12C6E01B1E2C0
S1131E70CB0ED11C21C0F801808590E0880F991FFA
S1131E800E942712D4018D939C93009709F48EC06D
S1131E90FC0120E030E0D80118968C9190E02817DE
S1131EA0390714F7D8011E968D919C911F97819341
S1131EB091932F5F3F4FEFCF452DBE016F5B7F4F57
S1131EC0C8010E94910EF8016084712CFE01EF5B41
S1131ED0FF4FC6019E012F5F3F4F190120E030E004
S1131EE0261537054CF5E114F10489F0DC016D91F8
S1131EF07C91408151816417750748F0D1016D913F
S1131F007C91408151814617570748F00DC04081AC
S1131F105181DC014D935C93E114F10479F7408124
S1131F205181D1014D935C932F5F3F4FB2E02B0E53
S1131F30311C32960296D4CFEFEFEE1AFE0AFAE085
S1131F40EF16F10409F0B8CF9E012F5F3F4F7901DE
S1131F50360180E090E0F801208530E08217930795
S1131F602CF5D7012D913D917D01B3016C197D09AB
S1131F70D501ED91FC91E60FF71F40815181421785
S1131F80530710F431832083F301219131913F01F0
S1131F90D401ED91FC91E60FF71F40815181241784
S1131FA0350710F4318320830196D5CFC05ADF4F13
S1131FB00FB6F894DEBF0FBECDBFDF91CF911F9156
S1131FC00F91FF90EF90DF90CF90BF90AF909F90D4
S1131FD08F907F906F905F903F902F9008951F9304
S1131FE0CF93DF93EC01162F8FEF860F823018F01A
S1131FF0662359F014C021E0AE014E5F5F4FBE016D
S1132000CE010E94EE0E123051F4AE014A5F5F4FD2
S1132010BE016C5F7F4F20E0CE010E94EE0EDF9187
S1132020CF911F910895A0E0B0E0E9E1F0E10C94B4
S1132030F311EC018B01B42E842F8D7F51F48C812C
S11320409D81892B09F497C08E819F81892B09F486
S113205092C08FEF8B0D823050F488819981892B47
S113206009F489C08A819B81892B09F484C04B2D92
S1132070B801CE010E94910E780100E010E0C12C5D
S1132080D12C888590E0C816D9060CF074C081E084
S1132090B8120AC0EA81FB81E00FF11F0190F081C0
S11320A0E02DA881B9810DC08C819D812E813F8155
S11320B0B1100CC0F901E00FF11F0190F081E02D87
S11320C0DC01A00FB11F8D919C9128C0FC01E00F91
S11320D0F11F40815181E881F981E00FF11F808176
S11320E09181EE85FF854817590710F4CF0104C08C
S11320F08E0F9F1F841B950BD901A00FB11F2D912B
S11321003C91AA81BB81A00FB11F4D915C91241712
S1132110350720F0E40FF51FE21BF30BE81BF90B66
S1132120A9F0D7012D913C9140E050E0281B390BD8
S113213041095109A8EEB3E00E94D7119F0140E084
S113214050E00E94A91137FD0AC002C020E030E02F
S1132150293EB3E03B072CF028EE33E002C020E038
S113216030E0F701219331937F01FFEFCF1ADF0AAB
S11321700E5F1F4F86CFCDB7DEB7E9E00C940F1288
S1132180A0E0B0E0E6ECF0E10C94EA11EC018B0184
S1132190822E0E9413102884E801412C512C320114
S11321A000E010E0C12CD12C7601312C912C58EE9A
S11321B0A52E53E0B52E921421F1E991F9918820CE
S11321C021F0C5018E1B9F0BFC01E93CF10524F4B1
S11321D0E333F10574F002C033243394DF01A30127
S11321E092010E94E211C60ED71EE81EF91E0E0FC0
S11321F01F1F939498EE490E93E0591E611C711CA5
S1132200DACF31101EC0492D50E04150510924EF5E
S113221031E0429FC001439F900D529F900D1124C5
S11322202091BD013091BE0128173907B4F088EE22
S113223093E0489F9001499F300D589F300D112421
S11322400EC0980140E050E0C701B6010E9487111A
S11322503093BE012093BD0102C020E030E0C901EB
S1132260CDB7DEB7E2E10C940612CF93DF93EC0115
S11322708A819B81009711F00E94BC128E819F81FC
S1132280009711F00E94BC1288819981009711F087
S11322900E94BC128C819D81009711F00E94BC1297
S11322A0DF91CF910895991B79E004C0991F961787
S11322B008F0961B881F7A95C9F780950895AA1B84
S11322C0BB1B51E107C0AA1FBB1FA617B70710F01D
S11322D0A61BB70B881F991F5A95A9F7809590954F
S11322E0BC01CD01089597FB072E16F4009407D086
S11322F077FD09D00E945F1107FC05D03EF490954C
S113230081959F4F0895709561957F4F0895A1E23F
S11323101A2EAA1BBB1BFD010DC0AA1FBB1FEE1F5B
S1132320FF1FA217B307E407F50720F0A21BB30BA6
S1132330E40BF50B661F771F881F991F1A9469F722
S113234060957095809590959B01AC01BD01CF017E
S11323500895052E97FB1EF400940E94C01157FDAA
S113236007D00E94871107FC03D04EF40C94C011CF
S113237050954095309521953F4F4F4F5F4F0895AD
S113238090958095709561957F4F8F4F9F4F0895DD
S1132390A29FB001B39FC001A39F700D811D1124A2
S11323A0911DB29F700D811D1124911D08950E94ED
S11323B0C811A59F900DB49F900DA49F800D911DF1
S11323C011240895B7FF0C94D7110E94D711821BD2
S11323D0930B08952F923F924F925F926F927F9248
S11323E08F929F92AF92BF92CF92DF92EF92FF9221
S11323F00F931F93CF93DF93CDB7DEB7CA1BDB0BCD
S11324000FB6F894DEBF0FBECDBF09942A88398871
S113241048885F846E847D848C849B84AA84B98478
S1132420C884DF80EE80FD800C811B81AA81B98184
S1132430CE0FD11D0FB6F894DEBF0FBECDBFED0198
S11324400895EE0FFF1F0590F491E02D0994CF93AA
S1132450DF938230910510F482E090E0E09148022D
S1132460F091490220E030E0C0E0D0E0309711F173
S11324704081518148175907C0F04817590761F442
S113248082819381209719F09B838A832BC0909338
S113249049028093480226C02115310519F04217DC
S11324A0530718F49A01BE01DF01EF010280F381A2
S11324B0E02DDCCF2115310509F1281B390B24301F
S11324C0310590F412968D919C91139761157105C5
S11324D021F0FB019383828304C09093490280938B
S11324E04802FD01329644C0FD01E20FF31F8193BF
S11324F09193225031092D933C933AC02091460286
S113250030914702232B41F42091100130911101A5
S1132510309347022093460220910E0130910F011F
S11325202115310541F42DB73EB740911201509168
S11325301301241B350BE0914602F0914702E21788
S1132540F307A0F42E1B3F0B2817390778F0AC01D2
S11325504E5F5F4F2417350748F04E0F5F1F5093AF
S11325604702409346028193919302C0E0E0F0E079
S1132570CF01DF91CF9108950F931F93CF93DF93F2
S1132580009709F48CC0FC013297138212820091E7
S11325904802109149020115110581F4208131810D
S11325A0820F931F20914602309147022817390762
S11325B079F5F0934702E093460271C0D80140E0F8
S11325C050E0AE17BF0750F412962D913C9113972B
S11325D0AD012115310509F1D901F3CF9D01DA01CE
S11325E03383228360817181860F971F821793073B
S11325F069F4EC0128813981260F371F2E5F3F4F84
S1132600318320838A819B8193838283452B29F4A0
S1132610F0934902E093480242C01396FC93EE9370
S11326201297ED01499159919E01240F351FE2172C
S1132630F30771F480819181840F951F029611969E
S11326409C938E938281938113969C938E9312977D
S1132650E0E0F0E0D80112968D919C9113970097D9
S113266019F0F8018C01F6CF8D919C9198012E5FA1
S11326703F4F820F931F2091460230914702281743
S1132680390769F4309729F41092490210924802EC
S113269002C0138212821093470200934602DF9114
S11326A0CF911F910F91089510E0C5E5D0E004C0CB
S11326B0FE010E9421122196C635D107C9F7F8946C
S10526C0FFCF46
S11326C288130F00F4010400D0070401080200007B
S11326D24A022000200000010203040506FF9C01B7
S11326E2B501CF01EA0107022602470269028E02FE
S11326F2B502DE020A030E0F1011126D560050725B
S1132702657373204200476F210028002C002900C2
S11127123E3E61333200536F6C7665642100E5
S9030000FC
