S01600003370692D6D617A65736F6C7665722E737265638D
S11300000C9456000C9473000C9473000C947300BD
S11300100C9473000C9473000C9473000C94730090
S11300200C9473000C946B0B0C9473000C9473007D
S11300300C9473000C945D070C9473000C9473007F
S11300400C9473000C9473000C9473000C94730060
S11300500C9473000C9473000C9473000C94730050
S11300600C9473000C947300000000000000001F47
S11300701F1F1F1F1F1F4C31362063646567726585
S11300806734003E6733323E3E63333200736F6C35
S1130090766572004D617A650033F720526F626FA6
S11300A0740020506F6C6F6C7500450C11241FBEDA
S11300B0CFEFD8E0DEBFCDBF11E0A0E0B1E0EEEBC2
S11300C0F6E202C005900D92A636B107D9F722E0F8
S11300D0A6E6B1E001C01D92A234B207E1F70E9486
S11300E065020C9452130C94000060E088E690E0E2
S11300F00E949E0861E089E690E00E949E0862E00A
S11301008AE690E00E949E0863E08BE690E00E94FD
S11301109E0864E08CE690E00E949E0865E08DE60F
S113012090E00E949E0866E08EE690E00E949E08A1
S11301300C941109BF92CF92DF92EF92FF920F932A
S11301401F93CF93DF93CDB7DEB72A970FB6F894FA
S1130150DEBF0FBECDBF8C017C018AE0E80EF11C2E
S11301608AE0B82E95E6C92ED12CE4E1F1E0DE0157
S113017011968B2D01900D928A95E1F7F8018191EA
S113018091918F01B6010E945D11E1E0F0E0EC0F66
S1130190FD1FE60FF71F80810E94A1080E151F05A1
S11301A021F72A960FB6F894DEBF0FBECDBFDF91BC
S11301B0CF911F910F91FF90EF90DF90CF90BF9060
S11301C008952F923F924F925F926F927F928F92F7
S11301D09F92AF92BF92CF92DF92EF92FF920F93D2
S11301E01F93CF93DF93CDB7DEB72A970FB6F8945A
S11301F0DEBF0FBECDBFC12CD12C7601A12CB12CFA
S113020060E1462E67E2562E612C712C74E1272E94
S1130210312CECE38E2E912C61E0CE0101960E94EC
S11302200B0C8C01005D1740C801012E000CAA0BB9
S1130230BB0BC80ED91EEA1EFB1EC701B601A301E3
S113024092010E94A711F801EA19FB09CF01880F56
S1130250991F8E0F9F1F97FD019695958795280FDF
S1130260391FC801B1010E947111C901860F971F7E
S11302708D3391056CF4843C2FEF92071CF097FDAD
S113028003C008C084EC9FEF6CE370E0CC9607C019
S11302908CE390E0B401681B790B8CE390E00E943E
S11302A05F0A8B819C818436910550F48D819E81F7
S11302B08436910528F48F8198858436910560F001
S11302C089819A81893C910538F489859A85893C8C
S11302D0910510F45801A0CF2A960FB6F894DEBF0A
S11302E00FBECDBFDF91CF911F910F91FF90EF9083
S11302F0DF90CF90BF90AF909F908F907F906F9042
S11303005F904F903F902F900895EF92FF920F933C
S11303101F93CF93DF93CDB7DEB72A970FB6F89428
S1130320DEBF0FBECDBF80ED97E00E94410C0E945E
S1130330750082EA90E00E94310961E080E00E9449
S1130340A90989E990E00E94310983E890E00E94BC
S1130350DE0788EE93E00E94B30B0E94110984E942
S113036090E00E94310961E080E00E94A9098DE8D3
S113037090E00E94310988EE93E00E94B30B00E004
S113038010E080E10E94A20A811139C082E00E943B
S1130390490B882311F081E008270E9411090E946B
S11303A0A3047C010130110559F40E94680BBC01BF
S11303B0990F880B990B0E9486098BE391E008C082
S11303C0BC01990F880B990B0E9486098FE391E079
S11303D00E94200961E080E00E94A9098DE5E816E9
S11303E082E1F8061CF082E491E002C08AE491E024
S11303F00E94200988E290E00E94B30BC2CF80E102
S11304000E948E0A88EE93E00E94B30B0CEE1FEF5D
S11304100832110528F068ED7FEF88E290E004C00F
S113042068E270E088ED9FEF0E945F0A81E00E941D
S1130430050C84E190E00E94B30B0F5F1F4F0C3357
S1130440110531F760E070E080E090E00E945F0AFF
S113045080E10E94A20A81111AC061E0CE010196D6
S11304600E940B0C8C010E941109B80180E090E0FD
S11304700E94860961E080E00E94A909CE010196EC
S11304800E949A0084E690E00E94B30BE1CF80E1E1
S11304900E948E0A0E94110983E591E00E942009BE
S11304A086E790E00E94DE070E94BD078111FCCF21
S11304B02A960FB6F894DEBF0FBECDBFDF91CF9161
S11304C01F910F91FF90EF9008950E9485010E9463
S11304D0DC02FFCFE091D501F0E0EA52FE4F10823A
S11304E00E94110986ED91E00E9420098091D501B6
S11304F0893040F061E080E00E94A9098EED91E02E
S11305000C9420090895811106C0611106C041119F
S113051006C082E408958CE4089583E5089582E595
S113052008954091D501433008F445C0242F30E0AC
S11305302A523E4FF901329780818234E1F5F90164
S113054061E070E080E090E052915C3451F052350B
S113055029F0523441F48C549F4F05C0865A9F4F62
S113056002C0825F9E4F6F5F7F4F6430710561F7F9
S113057068E671E00E9471118A35910589F034F4BE
S1130580892BB1F4F901339783E511C0843B9105BC
S113059059F08E30914061F4F90133978CE407C02F
S11305A0F901339782E503C0F901339782E480832C
S11305B042504093D5010895CF93DF93CDB7DEB772
S11305C02B970FB6F894DEBF0FBECDBF0E94E1009B
S11305D062E370E082E390E00E945F0A82E390E0CD
S11305E00E94B30B61E0CE0101960E940B0C11E056
S11305F089819A818536910508F410E041E0898566
S11306009A858536910508F440E068E270E088E256
S113061090E04B870E945F0A88EC90E00E94B30B45
S113062061E0CE0101960E940B0C8B819C814B856D
S1130630893C910560F48D819E81893C9105A0F4EB
S11306408F819885893C910578F460E00EC08935E6
S1130650924050F08D819E818935924028F08F819F
S1130660988589359240B0F461E0812F0E9483021D
S1130670182F0E94B3039091D501E92FF0E0EA52BC
S1130680FE4F10839F5F9093D5010E9491020E94B8
S11306906A029CCF80EDC82E87E0D82EE12CF12C85
S11306A060E070E080E090E00E945F0A87E591E0FE
S11306B00E94CD0780E10E94A20A811121C00E94FC
S11306C0EB0BA70196010E948511683E73408105DA
S11306D0910578F40E9411098DE591E00E942009AA
S11306E061E080E00E94A90982E491E00E9420096F
S11306F002C00E946A028EE190E00E94B30BDACF3E
S113070080E10E94A20A8111FBCF88EE93E00E944F
S1130710B30B06ED11E08091D50190E0A801465D90
S1130720514048175907E4F40E94E10062E370E085
S113073082E390E00E945F0A82E390E00E94B30BA0
S113074068E270E088E290E00E945F0A88EC90E042
S11307500E94B30BF80181918F010E94B303DBCF98
S11307600E94E1009DCF8C3469F0823581F082349F
S1130770C1F460EB7FEF80E590E00E945F0A80E9BE
S113078091E00DC060E570E080EB9FEF04C060EB8A
S11307907FEF80E590E00E945F0A88EC90E00C9483
S11307A0B30B0895ECE7F0E080818F7D808308959A
S11307B0811103C00E94D203089580917C0080625D
S11307C080937C00089580917C0085FB882780F9C4
S11307D008950E94E303882321F08091790090E03A
S11307E00895809178009091790008958032A0F462
S11307F097E890937A0090917C00662311F0906CB6
S113080002C09F779064907E982B90937C00809197
S11308107A00806480937A000895A0E0B0E0E3E178
S1130820F4E00C94F211EB0160E00E94F603809175
S11308307A0086FDFCCF8E01C12CD12C76018091EB
S11308407A00806480937A0080917A0086FDFCCFE0
S11308500E94E903C80ED91EE11CF11C01501109C4
S11308600115110561F7CE0196958795C034D10520
S113087038F48C0D9D1DBE010E945D11CB010EC08C
S1130880A7019601280F391F411D511DCA01B90145
S11308909E0140E050E00E948511C901CDB7DEB74A
S11308A0E8E00C940E12CF92DF92EF92FF92A091A7
S11308B00001B09101019C010E94C6116B017C01F1
S11308C00E94E303882359F0C701B60161587F4FA2
S11308D08F4F9F4F2FEF30E040E050E00AC0C70138
S11308E0B60161507E4F8F4F9F4F2FEF33E040E0B2
S11308F050E00E948511C901FF90EF90DF90CF90E6
S113090008950E940D040E94530408951F93CF93E9
S1130910DF930E94E303182F0E94D2036AE070E081
S113092086E00E948104EC01812F0E94D803CE014D
S1130930880F991F8C0F9D1F019696958795DF91BF
S1130940CF911F9108950E948604089590916B01A0
S1130950E0916601F0916701992311F0849101C03F
S113096080812FEB280F2A3110F4805E08958032A5
S113097049F49F012F5F3F4F309367012093660135
S1130980EF2B31F708951F93CF93DF930E94A604B2
S1130990C0E0D0E01AE090ED980F9A30B8F49E01D0
S11309A0129FE001139FD00D1124C80FD11D87FDA4
S11309B0DA95E09780916601909167010196909392
S11309C06701809366010E94A604E5CFCE01DF9102
S11309D0CF911F91089510926F0083E2809380005D
S11309E081E1809381001092820080E197E29093EC
S11309F089008093880010928B0010928A00229ABA
S1130A00789408958F929F92AF92BF92DF92EF9263
S1130A10FF920F931F93CF93DF935C018B01D42E2E
S1130A2080916801811105C081E0809368010E9472
S1130A30EB0410920B01B7FE05C0E894B7F82AE066
S1130A40F22E02C0FF24F394E09081002E2D287F23
S1130A50E22E48ECF49EC00111248A159B05E0F4B3
S1130A60E50151E1A51657E2B50610F0C0E1D7E261
S1130A70BE017695679580E090E060587946874698
S1130A809F4F4E01A12CB12CA50194010E94851108
S1130A9059018E2D816024C0C8E2FC9EC02D112412
S1130AA0D0E0CA15DB0508F4E501BE01769567952B
S1130AB09E0140E050E08AE0F81207C080E090E038
S1130AC0605E734481449F4F06C080E090E06053B1
S1130AD07D4E8C4E9F4F0E94851159018E2D826050
S1130AE0882E2AE0F21207C0CE0105966AE070E073
S1130AF00E945D11EB01C83E43E0D40759F0980110
S1130B00DE010E94C61128EE33E040E050E00E946E
S1130B10A711890110926F0080928100B092890020
S1130B20A092880020918800309189004D2D403199
S1130B3008F04FE080E190E0841B9109A90102C014
S1130B40569547958A95E2F750938B0040938A0017
S1130B5010936E0100936D0186B38FEF86BB81E025
S1130B6080936F00DF91CF911F910F91FF90EF90D1
S1130B70DF90BF90AF909F908F900895CF93DF93B5
S1130B80EB018F3F11F0411105C040E0BE0188EE3A
S1130B9093E043C0813130F050EF580F503618F0D5
S1130BA05FE501C050E0852F6CE00E945111682F71
S1130BB074EF760390011124250F311D2C3031057B
S1130BC040F4F901EE0FFF1FE25EFE4F20813181F8
S1130BD002C020E030E0873081F0082E02C0220FEE
S1130BE0331F0A94E2F7823028F0C90105966AE0BF
S1130BF070E00CC0C90190580CC0C90136E0880FE0
S1130C00991F3A95E1F7029665E070E00E945D1144
S1130C10CB01403108F04FE0BE010E940205DF9194
S1130C20CF910895A2E0B0E0E8E1F6E00C94EA1177
S1130C3090900A0180916A01882321F060916901F2
S1130C40611117C077247394B0ECAB2EBDE5BB2EB5
S1130C501AE0612E04E0802E80EDC82E87E0D82EA5
S1130C6094E0E92EF12C04EF11E02FE0422E512CF8
S1130C7015C070E040E088EE93E00E9402051092F7
S1130C80690117C18636D4F5813609F4A9C07CF50B
S1130C908C3309F460C08E3381F493940E94A604CB
S1130CA020916601309167012F5F3F4F30936701B8
S1130CB020936601853631F752C0813209F08BC02A
S1130CC080920A01D0920901C0920801F0920701B2
S1130CD0E092060110930501009304015092030170
S1130CE04092020110926A01A4E09A2ED7CF833673
S1130CF0A1F10CF478C010E082E077C08D36C1F128
S1130D0094F4873691F174F18C3609F064C00E9432
S1130D10C304BC01909307018093060180910801EC
S1130D209091090151C08237C9F14CF48F3609F012
S1130D3052C00E94C304982E80930A01AFCF843717
S1130D4081F1863709F047C00E94C30490930301E0
S1130D5080930201A3CF9A94A1CF10E020C010E0A9
S1130D6084E043C010E085E040C010E087E03DC06F
S1130D700E94A6048C3619F410926A0104C0709281
S1130D806A011092690120916601309167012F5F19
S1130D903F4F309367012093660180CF11E080E0DC
S1130DA024C00E94C304BC01C5010E945D11669E5B
S1130DB0C001679E900D112490930901809308014E
S1130DC060910601709107010E945D117093050105
S1130DD06093040163CF109267011092660169C0A9
S1130DE010E089E002C010E08BE0082F9CE0999E9F
S1130DF0000D11240E94A604982F977F933261F46A
S1130E0020916601309167012F5F3F4F3093670156
S1130E10209366010F5FEECF8D3271F4209166014D
S1130E20309167012F5F3F4F309367012093660134
S1130E3001500E94A604F0CF609104017091050155
S1130E408153883050F4E0900801F09009010E9429
S1130E50C304BC01C7010E945D117B01F694E794B1
S1130E6069837A830E94A60469817A818E3269F447
S1130E7020916601309167012F5F3F4F30936701E6
S1130E80209366016E0D7F1DE9CF80916A0188234E
S1130E9039F09B013695279520936901621B7109EE
S1130EA040910201112311F08FEF01C0802F0E94A5
S1130EB0BE052296E0E10C9406121F920F920FB623
S1130EC00F9211242F933F934F935F936F937F93CC
S1130ED08F939F93AF93BF93EF93FF9380916D0193
S1130EE090916E019C012150310930936E01209341
S1130EF06D01892B11F510926F0078948091810017
S1130F00887F81608093810080E197E290938900DB
S1130F108093880010928B0010928A0081E0809365
S1130F200B018091660190916701892B31F08091CA
S1130F306C01811102C00E941206FF91EF91BF91D2
S1130F40AF919F918F917F916F915F914F913F915D
S1130F502F910F900FBE0F901F90189580910B0149
S1130F60882349F081E02091660130916701232BA9
S1130F7019F480E0089581E008950E94AE07089571
S1130F8010926F00909367018093660110926B0139
S1130F90109269010E94120608950E94C0070895E4
S1130FA010926F00909367018093660181E08093B3
S1130FB06B01109269010E94120608950E94D007E5
S1130FC0089581E090E06F9364E06A95F1F76F9182
S1130FD00197C9F708950F931F93CF93DF931AB125
S1130FE057985A98289AC0E0D0E00E94E1075C9A8A
S1130FF00E94E10709B15C980E94E1075C9A0E9493
S1131000E1075C98249607FF10C0AE0160E070E031
S113101080916F0190917001A0917101B091720162
S1131020481759076A077B0700F31AB9DF91CF9174
S11310301F910F91089595B1282F217030E0220F50
S1131040331F482F467068E0469FA0011124242BCB
S11310509D7C292B25B99BB188708295807F9F77D1
S1131060892B8BB95C9A0E94E1075C980E94E10786
S11310700895A0E0B0E0EFE3F8E00C94F311C82F7A
S1131080D62EE42E80913A02811105C081E080932E
S11310903A020E94A9080E94EB0714B1D5B1FAB034
S11310A00BB12898DD2011F05A9A01C05A9894B1D6
S11310B0926394B9579A81E0E81629F08C2F8295AF
S11310C08F700E941B088C2F8F700E941B08FAB827
S11310D00BB914B9D5B9CDB7DEB7E7E00C940F124C
S11310E042E060E00E943908089542E061E00E9415
S11310F039080895A1E0B0E0E0E8F8E00C94F411B8
S11311008C01660F660F660FE12CF12C8E2D860F75
S1131110806469830E947008F801EE0DFF1D8491BC
S11311200E9475088FEFE81AF80A6981E8E0EE1664
S1131130F10461F72196E6E00C9410120E947A08FB
S113114008950E947508089541E060E00E943908FE
S1131150089580E197E2A0E0B0E080936F0190935E
S11311607001A0937101B0937201529A209A549A1B
S11311708EE190E00E94B30B83E00E94A40886E015
S113118090E00E94B30B83E00E94A40882E090E008
S11311900E94B30B83E00E94A40882E090E00E94C6
S11311A0B30B82E00E94A40882E090E00E94B30B9B
S11311B088E20E94700888E00E94700881E00E9422
S11311C0700886E00E9470088CE00E947008089500
S11311D081E00E9470088091750190917601892BBD
S11311E0F9F060E0A0E2262F30E070910C018091CC
S11311F00D0190E00197789FA001799F500D112473
S1131200241735074CF4E0917501F0917601E20F53
S1131210F31FA0836F5FE7CF1092730110927401E4
S113122008950E94E8080895CF93DF93EC01899113
S1131230882319F00E947508FACFDF91CF910895A1
S11312400E9414090895CF93DF93EC01FE01849169
S1131250882321F00E9475082196F8CFDF91CF9161
S113126008950E9423090895AAE0B0E0EAE3F9E0B2
S11312700C94F2111AE05AE0C52ED12CE12CF12C79
S1131280062FA70196010E948511CA01B9011150C8
S1131290E1E0F0E0EC0FFD1FE10FF11D005D2AE03D
S11312A0629F001911240083611571058105910560
S11312B039F71A3058F4E1E0F0E0EC0FFD1FE10FCC
S11312C0F11D80810E9475081F5FF3CF2A96E8E024
S11312D00C940E12CF92DF92EF92FF926B017C017D
S11312E097FF0BC0F094E094D094C094C11CD11C1F
S11312F0E11CF11C8DE20E947508C701B6010E9431
S11313003409FF90EF90DF90CF9008950E946A090E
S11313100895A5E0B0E0EFE8F9E00C94F711182F78
S113132080E8898380EC8A8384E98B8384ED8C83D1
S1131330FE01E60FF11D8181810F6D830E9470080B
S1131340109373016D81609374012596E3E00C940E
S113135013120E9489090895883058F491E001C05D
S1131360990F8A95EAF7892FAAE2B0E0EBE2F0E060
S113137021C08E3060F498EF980F81E001C0880F8F
S11313809A95EAF7A4E2B0E0E5E2F0E013C0853113
S113139060F492EF980F81E001C0880F9A95EAF704
S11313A0A7E2B0E0E8E2F0E005C080E0A0E0B0E051
S11313B0E0E0F0E06F3F19F49081982709C06623BC
S11313C019F09081982B04C02081982F9095922336
S11313D090839C91982B9C93089583EF8093B00005
S11313E084BD82E08093B10085BD1092B400109258
S11313F0B30018BC17BC60E086E00E94AC0960E052
S113140085E00E94AC0960E08BE00E94AC0960E0DA
S113141083E00E94AC09089580913B02811105C0CC
S113142081E080933B020E94ED090895CF93DF93FE
S1131430EC010E940C0AD7FF05C0D195C195D109D2
S113144081E001C080E0CF3FD10519F014F0CFEF67
S1131450D0E0882319F018BCC7BD02C0C8BD17BCB2
S1131460DF91CF910895CF93DF93EC010E940C0A92
S1131470D7FF05C0D195C195D10981E001C080E0B5
S1131480CF3FD10519F014F0CFEFD0E0882329F035
S11314901092B400C093B30004C0C093B40010927F
S11314A0B300DF91CF910895CF93DF93EB010E94B6
S11314B0160ACE010E94330ADF91CF9108950E944B
S11314C0540A089584B18D7C84B985B1826385B949
S11314D085E090E06F9364E06A95F1F76F9101976E
S11314E0C9F7089580913C02811105C081E0809381
S11314F03C020E94620A0895CF93C82F0E94720A88
S113150083B18C23E9F38AE090E00E94B30B83B1AA
S11315108C23B1F383B18C23CF9108950E947C0A6C
S11315200895A1E0B0E0E7E9FAE00C94F8118983AA
S11315300E94720A93B19095898189232196E2E0F1
S11315400C9414120E94910A0895A4E0B0E0EBEA0E
S1131550FAE00C94F511182FF3B0F0940E94EB0B01
S113156069837A838B839C830E94720A209182010F
S113157069817A818B819C81213009F138F0223094
S113158009F453C0233009F463C07EC0212F30E036
S11315904F2D50E04095509524233523232B09F4F7
S11315A073C0F094F122F092810160937D017093F5
S11315B07E0180937F019093800181E063C000915C
S11315C07D0110917E0120917F0130918001DC0129
S11315D0CB01801B910BA20BB30B0F97A105B10597
S11315E008F452C0409181018F2D90E08095909530
S11315F0242F30E082239323892BA1F082E080936F
S11316008201F094F422F09281013EC030E0812FF7
S113161090E04F2D50E04095509584239523281752
S1131620390791F1109282012FC0209181013F2D41
S1131630322361F323E0209382013093810160938C
S11316407D0170937E0180937F01909380011CC083
S113165000917D0110917E0120917F0130918001E4
S1131660DC01CB01801B910BA20BB30B0F97A105DF
S1131670B10550F0809181018F2119F010928201FF
S113168004C082E08093820180E02496E5E00C941B
S113169011120E94A50A0895A2E0B0E0E2E5FBE081
S11316A00C94F81180913E0290913F029E012F5FAD
S11316B03F4F009719F42254324002C0281B390BC3
S11316C03A83298389819A812296E2E00C94141248
S11316D00E944C0B08952F928F939F932FB6809165
S11316E08A0190918B01019680938A0190938B01DA
S11316F090E080918C01891F80938C0190918401EA
S11317009C5F909384018091830180519742C0F043
S11317109093840180938301809185019091860147
S11317200196809385019093860190E080918701D2
S1131730891F8093870180918801891F8093880184
S11317402FBE9F918F912F90189528EE33E001972B
S113175048F0F9016F9364E06A95F1F76F9131975E
S1131760C9F7F5CF08950E94A50B0895E0E7F0E0CE
S113177080818E7F8083A0EBB0E08C9183608C931A
S1131780A1EBB0E08C91807F8C938C9182608C93E0
S1131790B89A8081816080837894089580913D0215
S11317A0811105C081E080933D020E94B60B08952B
S11317B00E94CE0BE0E7F0E080818E7F8083609111
S11317C08501709186018091870190918801208123
S11317D02160208308950E94D80B08950E94CE0BA7
S11317E0E0E7F0E080818E7F808310928501109283
S11317F08601109287011092880110928401109240
S113180083018081816080830895682F8DE891E051
S11318100E94ED0F0895462F20E0BC018DE891E071
S11318200E94BE1008950F93CF93DF9300D000D091
S11318301F92CDB7DEB79C0185E0E6E3F1E0DE015F
S1131840119601900D928A95E1F7662311F00FEF3E
S113185001C003E145E0BE016F5F7F4F8DE891E079
S11318600E94E50C8DE891E00E94BC0C0E94EE0BF6
S11318700F900F900F900F900F90DF91CF910F91D9
S1131880089560E00E94130C08958DE891E00E9491
S1131890331108956F9364E06A95F1F76F9101979E
S11318A0C9F70895FC0111821082138212821582F5
S11318B014821682683068F489E290E09183808310
S11318C08BE290E0938382838AE290E09583848321
S11318D01FC06E3070F483E290E09183808385E2D0
S11318E090E09383828384E290E0958384836850BC
S11318F00FC0653198F486E290E09183808388E29A
S113190090E09383828387E290E0958384836E5092
S113191081E001C0880F6A95EAF786830895A7E0FD
S1131920B0E0E5E9FCE00C94F6118C01FC011182B5
S113193010821382128215821482178216826131F8
S113194018F080E1808702C0FC016087F801208BD9
S1131950642FCE0101960E94520C8F81F801818779
S11319608B819C81938782878D819E8195878487D3
S11319702796E4E00C941212FC01A485B585109717
S113198079F08C919185892B8C93A285B3859C9158
S11319908185809589238C9388EC90E00E944A0C81
S11319A00895FC01A485B585109771F08C919185FB
S11319B0892B8C93A285B3858C919185892B8C93EB
S11319C088EC90E00E944A0C0895A7E0B0E0EBEEAA
S11319D0FCE00C94EB117C014B01642F3901402F86
S11319E020E00E948F0C87010F5B1F4FF8011082CB
S11319F06701F2E4CF0ED11CF60110825701F3E423
S1131A00AF0EB11CF5011082F70177866686512C62
S1131A10F7018085581650F5652C712CF401E60DFC
S1131A20F71D6081CE0101960E94520C2F81F701AF
S1131A30E60DF71D218B89819A81F301EE0FFF1FBB
S1131A40EE0DFF1D92A381A38332910511F4F801D9
S1131A5008C08632910511F4F60103C0899721F478
S1131A60F5018081822B80835394D2CF2796EFE0B7
S1131A700C940712A0E0B0E0E0E4FDE00C94ED115A
S1131A80EC015B016C0181E4C80ED11CF60180807D
S1131A907E01F2E4EF0EF11CF70170808E010D5B04
S1131AA01F4FF801908080E09885891748F4F5016C
S1131AB0E80FF11DE80FF11D118210828F5FF4CF42
S1131AC084B1F6019081892B84B987B1F7019081A3
S1131AD0892B87B98AB1F8019081892B8AB985B19C
S1131AE0F6019081892B85B988B1F7019081892B02
S1131AF088B98BB1F8019081892B8BB98AE090E089
S1131B000E944A0C94B1F60180818095892384B99E
S1131B1097B1F70180818095892387B99AB1F8013B
S1131B208081809589238AB995B1F6018081809559
S1131B30892385B998B1F70180818095892388B973
S1131B409BB1F8018081809589238BB9E090B00026
S1131B50D090B1008091B00083608093B00082E0A7
S1131B608093B1004091B20080E090E02E853F85E3
S1131B708217930720F5C090B2002C2D241B820FEE
S1131B80911D03B1081132C0F6B0F7102FC029B16E
S1131B9029112CC010C0212F30E0A901440F551F7A
S1131BA0F501E40FF51F60817181672B21F11F5F3F
S1131BB02885121780F37F2C802E4C2DD7CFE092EE
S1131BC0B000D092B10020E08885281730F5F501E7
S1131BD0E20FF11DE20FF11D80819181892B21F427
S1131BE08E859F85918380832F5FEECF03B1F6B0FE
S1131BF099B010E0DDCFDE01A40FB51F91960D90D2
S1131C00BC91A02D4C91DE01A20FB31F51962C91D3
S1131C10422369F691838083CACFCDB7DEB7EDE066
S1131C200C940912EF92FF920F931F93CF93DF93BB
S1131C30FC019B01F0907C0000917A0047B118B13F
S1131C4080917A0086FDFCCF80E09085891748F466
S1131C50D901A80FB11DA80FB11D1D921C928F5F51
S1131C60F4CF97B182A18095892387B998B182A1D5
S1131C708095892388B987E880937A00E12C81A133
S1131C80E81610F0E12C29C050E08085581718F5AB
S1131C90A52FB0E0EF01CA0FDB1F89898064809310
S1131CA07C0080917A00806480937A0080917A002D
S1131CB086FDFCCF6091780070917900AA0FBB1F5C
S1131CC0A20FB31F8D919C911197860F971F8D932F
S1131CD09C935F5FDACFE394D2CF8085E816A0F4BB
S1131CE0E901CE0DD11DCE0DD11D61A170E0CB0156
S1131CF095958795A881B9818A0F9B1F0E945D11D4
S1131D0079836883E394E9CFF0927C0000937A00AE
S1131D1018B947B9CDB7DEB7E6E00C941012A0E2CB
S1131D20B0E0E5E9FEE00C94F3118C017B01D42EC4
S1131D308FEF840F823018F4C8010E94D10CD801AF
S1131D4050968C91B701811110C0C8010E943A0DC0
S1131D50C8010E94BC0CB2E0DB123AC0BE016F5F46
S1131D607F4FC8010E943A0D0FC0C8010E94120E95
S1131D70C8010E94BC0CE2E0DE122AC0BE016F5F03
S1131D807F4FC8010E94120E40E0F8018085481779
S1131D90F8F4842F90E0880F991FF701E80FF91FDA
S1131DA021E030E02C0F3D1F820F931FD8011E96B7
S1131DB02D913C911F97DC018D919C91281B390B2F
S1131DC080819181820F931F918380834F5FDDCF48
S1131DD0A096E7E00C940F122F923F925F926F92BD
S1131DE07F928F929F92AF92BF92CF92DF92EF92A7
S1131DF0FF920F931F93CF93DF93CDB7DEB7C056F7
S1131E00D1090FB6F894DEBF0FBECDBF8C014B01D4
S1131E105A01522EDA018D919C91892B31F0F401F3
S1131E2080819181892BF1F424C0D80118968C917A
S1131E3090E0880F991F0E942512F50191838083F9
S1131E40009709F4B1C0FC0120E030E0D8011896F5
S1131E508C9190E02817390714F7119211922F5F93
S1131E603F4FF4CFE12CF12C6E01B1E2CB0ED11C2B
S1131E7021C0F801808590E0880F991F0E942512E7
S1131E80D4018D939C93009709F48EC0FC0120E04B
S1131E9030E0D80118968C9190E02817390714F790
S1131EA0D8011E968D919C911F97819391932F5FDA
S1131EB03F4FEFCF452DBE016F5B7F4FC8010E949E
S1131EC08F0EF8016084712CFE01EF5BFF4FC60199
S1131ED09E012F5F3F4F190120E030E026153705A2
S1131EE04CF5E114F10489F0DC016D917C914081A1
S1131EF051816417750748F0D1016D917C9140813F
S1131F0051814617570748F00DC040815181DC01CB
S1131F104D935C93E114F10479F740815181D1012F
S1131F204D935C932F5F3F4FB2E02B0E311C3296E2
S1131F300296D4CFEFEFEE1AFE0AFAE0EF16F104A0
S1131F4009F0B8CF9E012F5F3F4F7901360180E041
S1131F5090E0F801208530E0821793072CF5D70133
S1131F602D913D917D01B3016C197D09D501ED9150
S1131F70FC91E60FF71F408151814217530710F47B
S1131F8031832083F301219131913F01D401ED91FB
S1131F90FC91E60FF71F408151812417350710F497
S1131FA0318320830196D5CFC05ADF4F0FB6F89402
S1131FB0DEBF0FBECDBFDF91CF911F910F91FF9078
S1131FC0EF90DF90CF90BF90AF909F908F907F90D5
S1131FD06F905F903F902F9008951F93CF93DF935E
S1131FE0EC01162F8FEF860F823018F0662359F01C
S1131FF014C021E0AE014E5F5F4FBE01CE010E94CE
S1132000EC0E123051F4AE014A5F5F4FBE016C5FBB
S11320107F4F20E0CE010E94EC0EDF91CF911F9103
S11320200895A0E0B0E0E7E1F0E10C94F111EC01D7
S11320308B01B42E842F8D7F51F48C819D81892B4B
S113204009F497C08E819F81892B09F492C08FEF88
S11320508B0D823050F488819981892B09F489C0D1
S11320608A819B81892B09F484C04B2DB801CE0150
S11320700E948F0E780100E010E0C12CD12C8885DD
S113208090E0C816D9060CF074C081E0B8120AC0FA
S1132090EA81FB81E00FF11F0190F081E02DA8811E
S11320A0B9810DC08C819D812E813F81B1100CC0FE
S11320B0F901E00FF11F0190F081E02DDC01A00F88
S11320C0B11F8D919C9128C0FC01E00FF11F40814C
S11320D05181E881F981E00FF11F80819181EE85C2
S11320E0FF854817590710F4CF0104C08E0F9F1FB6
S11320F0841B950BD901A00FB11F2D913C91AA818E
S1132100BB81A00FB11F4D915C912417350720F0BE
S1132110E40FF51FE21BF30BE81BF90BA9F0D70141
S11321202D913C9140E050E0281B390B41095109A5
S1132130A8EEB3E00E94D5119F0140E050E00E9458
S1132140A71137FD0AC002C020E030E0293EB3E009
S11321503B072CF028EE33E002C020E030E0F7012A
S1132160219331937F01FFEFCF1ADF0A0E5F1F4FD8
S113217086CFCDB7DEB7E9E00C940D12A0E0B0E055
S1132180E4ECF0E10C94E811EC018B01822E0E9446
S113219011102884E801412C512C320100E010E098
S11321A0C12CD12C7601312C912C58EEA52E53E064
S11321B0B52E921421F1E991F991882021F0C501FD
S11321C08E1B9F0BFC01E93CF10524F4E333F1057C
S11321D074F002C033243394DF01A30192010E94FE
S11321E0E011C60ED71EE81EF91E0E0F1F1F939492
S11321F098EE490E93E0591E611C711CDACF311020
S11322001EC0492D50E04150510924EF31E0429F56
S1132210C001439F900D529F900D11242091D10134
S11322203091D20128173907B4F088EE93E0489F23
S11322309001499F300D589F300D11240EC0980114
S113224040E050E0C701B6010E9485113093D201ED
S11322502093D10102C020E030E0C901CDB7DEB740
S1132260E2E10C940412CF93DF93EC018A819B8109
S1132270009711F00E94BA128E819F81009711F08D
S11322800E94BA1288819981009711F00E94BA12B3
S11322908C819D81009711F00E94BA12DF91CF9139
S11322A00895991B79E004C0991F961708F0961BAE
S11322B0881F7A95C9F780950895AA1BBB1B51E125
S11322C007C0AA1FBB1FA617B70710F0A61BB70BA2
S11322D0881F991F5A95A9F780959095BC01CD0147
S11322E0089597FB072E16F4009407D077FD09D0C4
S11322F00E945D1107FC05D03EF4909581959F4F97
S11323000895709561957F4F0895A1E21A2EAA1B36
S1132310BB1BFD010DC0AA1FBB1FEE1FFF1FA21791
S1132320B307E407F50720F0A21BB30BE40BF50B8E
S1132330661F771F881F991F1A9469F76095709517
S1132340809590959B01AC01BD01CF010895052EA8
S113235097FB1EF400940E94BE1157FD07D00E9403
S1132360851107FC03D04EF40C94BE115095409592
S1132370309521953F4F4F4F5F4F0895909580952D
S1132380709561957F4F8F4F9F4F0895A29FB00125
S1132390B39FC001A39F700D811D1124911DB29F95
S11323A0700D811D1124911D08950E94C611A59FD1
S11323B0900DB49F900DA49F800D911D112408953C
S11323C0B7FF0C94D5110E94D511821B930B08956D
S11323D02F923F924F925F926F927F928F929F9231
S11323E0AF92BF92CF92DF92EF92FF920F931F931F
S11323F0CF93DF93CDB7DEB7CA1BDB0B0FB6F894D0
S1132400DEBF0FBECDBF09942A88398848885F840F
S11324106E847D848C849B84AA84B984C884DF8080
S1132420EE80FD800C811B81AA81B981CE0FD11D64
S11324300FB6F894DEBF0FBECDBFED010895EE0FC9
S1132440FF1F0590F491E02D0994CF93DF93823020
S1132450910510F482E090E0E0914002F091410295
S113246020E030E0C0E0D0E0309711F140815181AC
S113247048175907C0F04817590761F482819381BE
S1132480209719F09B838A832BC0909341028093F9
S1132490400226C02115310519F04217530718F4DC
S11324A09A01BE01DF01EF010280F381E02DDCCF50
S11324B02115310509F1281B390B2430310590F41D
S11324C012968D919C9113976115710521F0FB0172
S11324D09383828304C09093410280934002FD0160
S11324E0329644C0FD01E20FF31F81939193225071
S11324F031092D933C933AC020913E0230913F0222
S1132500232B41F4209110013091110130933F02AB
S113251020933E0220910E0130910F0121153105C7
S113252041F42DB73EB74091120150911301241B81
S1132530350BE0913E02F0913F02E217F307A0F45D
S11325402E1B3F0B2817390778F0AC014E5F5F4F05
S11325502417350748F04E0F5F1F50933F024093F6
S11325603E028193919302C0E0E0F0E0CF01DF915D
S1132570CF9108950F931F93CF93DF93009709F49E
S11325808CC0FC0132971382128200914002109198
S113259041020115110581F420813181820F931FBD
S11325A020913E0230913F022817390779F5F093C4
S11325B03F02E0933E0271C0D80140E050E0AE1704
S11325C0BF0750F412962D913C911397AD0121153C
S11325D0310509F1D901F3CF9D01DA013383228357
S11325E060817181860F971F8217930769F4EC014C
S11325F028813981260F371F2E5F3F4F3183208377
S11326008A819B8193838283452B29F4F093410231
S1132610E093400242C01396FC93EE931297ED01AF
S1132620499159919E01240F351FE217F30771F464
S113263080819181840F951F029611969C938E93AD
S11326408281938113969C938E931297E0E0F0E03D
S1132650D80112968D919C911397009719F0F80167
S11326608C01F6CF8D919C9198012E5F3F4F820F84
S1132670931F20913E0230913F022817390769F4D5
S1132680309729F4109241021092400202C0138242
S1132690128210933F0200933E02DF91CF911F916B
S11326A00F91089510E0C5E5D0E004C0FE010E943A
S11126B01F122196C635D107C9F7F894FFCF43
S11326BE88130F00F4010400D0070401080200007F
S11326CE42022000200000010203040506FF9C01C3
S11326DEB501CF01EA0107022602470269028E0202
S11326EEB502DE020A030E0F1011126D656D006D38
S11326FE560050726573732042005265706C6163AC
S113270E652100476F21003E3E61333200536F6CEA
S109271E76656421000051
S9030000FC
