S01000003370695F617070312E7372656337
S11300000C943C000C9459000C9459000C94590025
S11300100C9459000C9459000C9459000C945900F8
S11300200C9459000C9438060C9459000C94590003
S11300300C9459000C9426040C9459000C94590007
S11300400C9459000C9459000C9459000C945900C8
S11300500C9459000C9459000C9459000C945900B8
S11300600C9459000C9459003E6733323E3E63337E
S1130070320021653332000011241FBECFEFD8E0D7
S1130080DEBFCDBF11E0A0E0B1E0E8E5FEE002C0D4
S113009005900D92AE38B107D9F721E0AEE8B1E092
S11300A001C01D92AB3AB207E1F70E946C000C94B8
S11300B02A070C9400000E946C01BC01990F880B64
S11300C0990B0E94F2058AE891E00E949D0584E65E
S11300D090E00E948006089588E690E00E948504DE
S11300E0C0E0D0E0E12CF12C01E010E082E00E94BD
S11300F035068823D9F382E790E00E94850420978F
S113010069F40E948E058EE091E00E949D0584E6CC
S113011090E00E948006C02FD12F09C0C130D105C4
S113012031F40E948E050E945B00CE2DDF2D82E00B
S11301300E942106DBCFECE7F0E080818F7D808395
S11301400895811103C00E949B00089580917C0052
S1130150806280937C00089580917C0085FB8827D1
S113016080F908950E94AC00882321F080917900E1
S113017090E00895809178009091790008958032FC
S1130180A0F497E890937A0090917C00662311F094
S1130190906C02C09F779064907E982B90937C0023
S11301A080917A00806480937A000895A0E0B0E0A2
S11301B0ECEDF0E00C94FD06EB0160E00E94BF0062
S11301C080917A0086FDFCCF8E01C12CD12C760162
S11301D080917A00806480937A0080917A0086FD11
S11301E0FCCF0E94B200C80ED91EE11CF11C0150C4
S11301F011090115110561F7CE0196958795C03453
S1130200D10538F48C0D9D1DBE010E948F06CB01D3
S11302100EC0A7019601280F391F411D511DCA01A7
S1130220B9019E0140E050E00E94A306C901CDB788
S1130230DEB7E8E00C941907CF92DF92EF92FF92B9
S1130240A0910001B09101019C010E94E4066B01A0
S11302507C010E94AC00882359F0C701B6016158A3
S11302607F4F8F4F9F4F2FEF30E040E050E00AC0A8
S1130270C701B60161507E4F8F4F9F4F2FEF33E080
S113028040E050E00E94A306C901FF90EF90DF9088
S1130290CF9008950E94D6000E941C0108951F93D8
S11302A0CF93DF930E94AC00182F0E949B006AE05A
S11302B070E086E00E944A01EC01812F0E94A100B7
S11302C0CE01880F991F8C0F9D1F019696958795D7
S11302D0DF91CF911F9108950E944F01089590914D
S11302E09301E0918E01F0918F01992311F0849193
S11302F001C080812FEB280F2A3110F4805E08950D
S1130300803249F49F012F5F3F4F30938F01209338
S11303108E01EF2B31F708951F93CF93DF930E9443
S11303206F01C0E0D0E01AE090ED980F9A30B8F475
S11303309E01129FE001139FD00D1124C80FD11DFF
S113034087FDDA95E09780918E0190918F01019657
S113035090938F0180938E010E946F01E5CFCE01AF
S1130360DF91CF911F91089510926F0083E28093E3
S1130370800081E1809381001092820080E197E205
S1130380909389008093880010928B0010928A00C9
S1130390229A789408958F929F92AF92BF92DF929F
S11303A0EF92FF920F931F93CF93DF935C018B0126
S11303B0D42E80919001811105C081E08093900139
S11303C00E94B40110920B01B7FE05C0E894B7F87F
S11303D02AE0F22E02C0FF24F394E09081002E2D37
S11303E0287FE22E48ECF49EC00111248A159B0557
S11303F0E0F4E50151E1A51657E2B50610F0C0E1BD
S1130400D7E2BE017695679580E090E06058794622
S113041087469F4F4E01A12CB12CA50194010E9447
S1130420A30659018E2D816024C0C8E2FC9EC02D14
S11304301124D0E0CA15DB0508F4E501BE01769568
S113044067959E0140E050E08AE0F81207C080E022
S113045090E0605E734481449F4F06C080E090E06A
S113046060537D4E8C4E9F4F0E94A30659018E2DE2
S11304708260882E2AE0F21207C0CE0105966AE057
S113048070E00E948F06EB01C83E43E0D40759F0A8
S11304909801DE010E94E40628EE33E040E050E0DB
S11304A00E94C506890110926F0080928100B0926B
S11304B08900A092880020918800309189004D2DF8
S11304C0403108F04FE080E190E0841B9109A901DC
S11304D002C0569547958A95E2F750938B00409356
S11304E08A00109396010093950186B38FEF86BB23
S11304F081E080936F00DF91CF911F910F91FF9066
S1130500EF90DF90BF90AF909F908F900895CF931E
S1130510DF93EB018F3F11F0411105C040E0BE01B4
S113052088EE93E043C0813130F050EF580F5036DD
S113053018F05FE501C050E0852F6CE00E9483064F
S1130540682F74EF760390011124250F311D2C3090
S1130550310540F4F901EE0FFF1FEE58FE4F2081E4
S1130560318102C020E030E0873081F0082E02C0E3
S1130570220F331F0A94E2F7823028F0C90105964E
S11305806AE070E00CC0C90190580CC0C90136E0A3
S1130590880F991F3A95E1F7029665E070E00E9492
S11305A08F06CB01403108F04FE0BE010E94CB0121
S11305B0DF91CF910895A2E0B0E0E1EEF2E00C9477
S11305C0F50690900A0180919201882321F06091B0
S11305D09101611117C077247394B0ECAB2EBDE583
S11305E0BB2E1AE0612E04E0802E80EDC82E87E039
S11305F0D82E94E0E92EF12C04EF11E02FE0422EE6
S1130600512C15C070E040E088EE93E00E94CB01CD
S11306101092910117C18636D4F5813609F4A9C028
S11306207CF58C3309F460C08E3381F493940E947A
S11306306F0120918E0130918F012F5F3F4F3093D6
S11306408F0120938E01853631F752C0813209F033
S11306508BC080920A01D0920901C0920801F092E5
S11306600701E092060110930501009304015092E2
S113067003014092020110929201A4E09A2ED7CF76
S11306808336A1F10CF478C010E082E077C08D3697
S1130690C1F194F4873691F174F18C3609F064C099
S11306A00E948C01BC019093070180930601809104
S11306B008019091090151C08237C9F14CF48F3679
S11306C009F052C00E948C01982E80930A01AFCF8A
S11306D0843781F1863709F047C00E948C019093DA
S11306E0030180930201A3CF9A94A1CF10E020C00C
S11306F010E084E043C010E085E040C010E087E0F3
S11307003DC00E946F018C3619F41092920104C00E
S1130710709292011092910120918E0130918F017B
S11307202F5F3F4F30938F0120938E0180CF11E0D4
S113073080E024C00E948C01BC01C5010E948F0688
S1130740669EC001679E900D1124909309018093C9
S1130750080160910601709107010E948F06709351
S113076005016093040163CF10928F0110928E01F2
S113077069C010E089E002C010E08BE0082F9CE023
S1130780999E000D11240E946F01982F977F933238
S113079061F420918E0130918F012F5F3F4F309390
S11307A08F0120938E010F5FEECF8D3271F4209173
S11307B08E0130918F012F5F3F4F30938F01209333
S11307C08E0101500E946F01F0CF6091040170917D
S11307D005018153883050F4E0900801F09009013C
S11307E00E948C01BC01C7010E948F067B01F69414
S11307F0E79469837A830E946F0169817A818E32DA
S113080069F420918E0130918F012F5F3F4F309317
S11308108F0120938E016E0D7F1DE9CF809192018F
S1130820882339F09B013695279520939101621B0B
S1130830710940910201112311F08FEF01C0802F43
S11308400E9487022296E0E10C9411071F920F92F6
S11308500FB60F9211242F933F934F935F936F938F
S11308607F938F939F93AF93BF93EF93FF93809165
S11308709501909196019C01215031093093960184
S113088020939501892B11F510926F007894809133
S11308908100887F81608093810080E197E290935A
S11308A089008093880010928B0010928A0081E066
S11308B080930B0180918E0190918F01892B31F0EF
S11308C080919401811102C00E94DB02FF91EF919B
S11308D0BF91AF919F918F917F916F915F914F9154
S11308E03F912F910F900FBE0F901F90189510926B
S11308F06F0090938F0180938E0181E08093930128
S1130900109291010E94DB0208950E9477040895D9
S113091081E090E06F9364E06A95F1F76F9101973D
S1130920C9F708950F931F93CF93DF931AB1579884
S11309305A98289AC0E0D0E00E9488045C9A0E94E9
S1130940880409B15C980E9488045C9A0E94880417
S11309505C98249607FF10C0AE0160E070E08091BF
S1130960970190919801A0919901B0919A0148172B
S113097059076A077B0700F31AB9DF91CF911F91DA
S11309800F91089595B1282F217030E0220F331F65
S1130990482F467068E0469FA0011124242B9D7CBB
S11309A0292B25B99BB188708295807F9F77892BED
S11309B08BB95C9A0E9488045C980E94880408950C
S11309C0A0E0B0E0E6EEF4E00C94FE06C82FD62ECC
S11309D0E42E8091A901811105C081E08093A901D1
S11309E00E9426050E94920414B1D5B1FAB00BB14D
S11309F02898DD2011F05A9A01C05A9894B1926354
S1130A0094B9579A81E0E81629F08C2F82958F705B
S1130A100E94C2048C2F8F700E94C204FAB80BB9D2
S1130A2014B9D5B9CDB7DEB7E7E00C941A0742E0A4
S1130A3060E00E94E004089542E061E00E94E00466
S1130A40089541E060E00E94E004089580E197E2A7
S1130A50A0E0B0E08093970190939801A09399014E
S1130A60B0939A01529A209A549A8EE190E00E948F
S1130A70800683E00E94210586E090E00E948006C3
S1130A8083E00E94210582E090E00E94800683E0DA
S1130A900E94210582E090E00E94800682E00E948C
S1130AA0210582E090E00E94800688E20E941705FA
S1130AB088E00E94170581E00E94170586E00E94E5
S1130AC017058CE00E941705089581E00E94170520
S1130AD080919D0190919E01892BF9F060E0A0E244
S1130AE0262F30E070910C0180910D0190E0019768
S1130AF0789FA001799F500D1124241735074CF4D9
S1130B00E0919D01F0919E01E20FF31FA0836F5FBE
S1130B10E7CF10929B0110929C0108950E946505F5
S1130B200895CF93DF93EC018991882319F00E94F3
S1130B301C05FACFDF91CF9108950E949105089585
S1130B40AAE0B0E0E6EAF5E00C94FD061AE05AE00B
S1130B50C52ED12CE12CF12C062FA70196010E9461
S1130B60A306CA01B9011150E1E0F0E0EC0FFD1F4A
S1130B70E10FF11D005D2AE0629F0019112400833A
S1130B80611571058105910539F71A3058F4E1E0D2
S1130B90F0E0EC0FFD1FE10FF11D80810E941C05A8
S1130BA01F5FF3CF2A96E8E00C941907CF92DF92E7
S1130BB0EF92FF926B017C0197FF0BC0F094E094DD
S1130BC0D094C094C11CD11CE11CF11C8DE20E9484
S1130BD01C05C701B6010E94A005FF90EF90DF90AD
S1130BE0CF9008950E94D605089584B18D7C84B970
S1130BF085B1826385B985E090E06F9364E06A957E
S1130C00F1F76F910197C9F708958091AA018111B5
S1130C1005C081E08093AA010E94F5050895CF9351
S1130C20C82F0E94050683B18C23E9F38AE090E083
S1130C300E94800683B18C23B1F383B18C23CF91BE
S1130C4008950E940F060895A1E0B0E0EAE2F6E0FC
S1130C500C94030789830E94050693B190958981BA
S1130C6089232196E2E00C941F070E94240608952C
S1130C702F928F939F932FB68091A6019091A701F5
S1130C8001968093A6019093A70190E08091A8011A
S1130C90891F8093A8019091A0019C5F9093A0016B
S1130CA080919F0180519742C0F09093A00180935E
S1130CB09F018091A1019091A20101968093A101CD
S1130CC09093A20190E08091A301891F8093A301D6
S1130CD08091A401891F8093A4012FBE9F918F91BD
S1130CE02F90189528EE33E0019748F0F9016F939F
S1130CF064E06A95F1F76F913197C9F7F5CF0895DC
S1130D000E9472060895991B79E004C0991F9617F2
S1130D1008F0961B881F7A95C9F780950895AA1B39
S1130D20BB1B51E107C0AA1FBB1FA617B70710F0D2
S1130D30A61BB70B881F991F5A95A9F78095909504
S1130D40BC01CD010895A1E21A2EAA1BBB1BFD0113
S1130D500DC0AA1FBB1FEE1FFF1FA217B307E40796
S1130D60F50720F0A21BB30BE40BF50B661F771FEE
S1130D70881F991F1A9469F76095709580959095CE
S1130D809B01AC01BD01CF010895052E97FB1EF414
S1130D9000940E94DC0657FD07D00E94A30607FCBE
S1130DA003D04EF40C94DC06509540953095219573
S1130DB03F4F4F4F5F4F0895909580957095619583
S1130DC07F4F8F4F9F4F0895A29FB001B39FC001E3
S1130DD0A39F700D811D1124911DB29F700D811D63
S1130DE01124911D08952F923F924F925F926F921A
S1130DF07F928F929F92AF92BF92CF92DF92EF92A7
S1130E00FF920F931F93CF93DF93CDB7DEB7CA1B27
S1130E10DB0B0FB6F894DEBF0FBECDBF09942A8852
S1130E20398848885F846E847D848C849B84AA84FA
S1130E30B984C884DF80EE80FD800C811B81AA8187
S1130E40B981CE0FD11D0FB6F894DEBF0FBECDBF52
S10B0E50ED010895F894FFCFB1
S1130E5888130F00F4010400D00704010802482E87
S1130E6879756B69796100000000000000000000DA
S1130E780000000000000000000000000000000066
S1130E880000000000000000000000000000000056
S1130E980000000000000000000000000000000046
S1130EA80000000000000000000000000000000036
S1130EB80000000000000000000000000000000026
S1130EC800009C01B501CF01EA010702260247028E
S1110ED869028E02B502DE020A036D560000A6
S9030000FC
