:100000000C9456000C9473000C9473000C947300C1
:100010000C9473000C9473000C9473000C94730094
:100020000C9473000C94FF0A0C9473000C947300EE
:100030000C9473000C94B7070C9473000C94730029
:100040000C9473000C9473000C9473000C94730064
:100050000C9473000C9473000C9473000C94730054
:100060000C9473000C947300000000000000001F4B
:100070001F1F1F1F1F1F4C31362063646567726589
:100080006734003E6733323E3E63333200736F6C39
:10009000766572004D617A650033F720526F626FAA
:1000A000740020506F6C6F6C7500DC0B11241FBE48
:1000B000CFEFD8E0DEBFCDBF11E0A0E0B1E0ECEEC5
:1000C000F5E202C005900D92A636B107D9F722E0FD
:1000D000A6E6B1E001C01D92A633B207E1F70E9487
:1000E0003B020C94E9120C94000060E088E690E07A
:1000F0000E94F80861E089E690E00E94F80862E05A
:100100008AE690E00E94F80863E08BE690E00E94A7
:10011000F80864E08CE690E00E94F80865E08DE65F
:1001200090E00E94F80866E08EE690E00E94F808F1
:100130000C946B09BF92CF92DF92EF92FF920F93D4
:100140001F93CF93DF93CDB7DEB72A970FB6F894FE
:10015000DEBF0FBECDBF8C017C018AE0E80EF11C32
:100160008AE0B82E95E6C92ED12CE4E1F1E0DE015B
:1001700011968B2D01900D928A95E1F7F8018191EE
:1001800091918F01B6010E94F410E1E0F0E0EC0FD4
:10019000FD1FE60FF71F80810E94FB080E151F054B
:1001A00021F72A960FB6F894DEBF0FBECDBFDF91C0
:1001B000CF911F910F91FF90EF90DF90CF90BF9064
:1001C00008952F923F924F925F926F927F928F92FB
:1001D0009F92AF92BF92CF92DF92EF92FF920F93D6
:1001E0001F93CF93DF93CDB7DEB72A970FB6F8945E
:1001F000DEBF0FBECDBFC12CD12C7601A12CB12CFE
:1002000096E0292E312C24EE422E2CE0522E612C29
:10021000712C33E7832E912C61E0CE0101960E9470
:10022000A20B8C01005D1740C801012E000CAA0B27
:10023000BB0BC80ED91EEA1EFB1EC8018A199B09FA
:100240005C01AA0CBB1CC801B1010E940811A60EDA
:10025000B71EC701B601A30192010E943E11C5015C
:10026000820F931F8437910574F48D382FEF920716
:100270001CF097FD03C009C08DE89FEF63E770E0B5
:100280008D589F4F07C083E790E0B401681B790B3E
:1002900083E790E00E94B90A8B819C8184369105A6
:1002A00050F48D819E818436910528F48F81988544
:1002B0008436910560F089819A81893C910538F4F2
:1002C00089859A85893C910510F45801A5CF2A9615
:1002D0000FB6F894DEBF0FBECDBFDF91CF911F9157
:1002E0000F91FF90EF90DF90CF90BF90AF909F90D5
:1002F0008F907F906F905F904F903F902F900895D8
:100300000F931F93CF93DF93CDB7DEB72A970FB626
:10031000F894DEBF0FBECDBF80ED97E00E94D80BF2
:100320000E94750082EA90E00E948B0961E080E003
:100330000E94030A89E990E00E948B0983E890E01B
:100340000E94380888EE93E00E94470B0E946B09D8
:1003500084E990E00E948B0961E080E00E94030A3A
:100360008DE890E00E948B0988EE93E00E94470B95
:1003700080E10E94FC0A81111AC00E94FD048C01D8
:100380000E946B09B801110F880B990B0E94E009BC
:100390008BE391E00E947A0961E080E00E94030A09
:1003A0008EE391E00E947A0984E690E0DFCF80E15D
:1003B0000E94E80A88EE93E00E94470B0CEE1FEFC4
:1003C0000832110528F068ED7FEF88E290E004C064
:1003D00068E270E088ED9FEF0E94B90A81E00E9418
:1003E0009C0B84E190E00E94470B0F5F1F4F0C3382
:1003F000110531F760E070E080E090E00E94B90AFA
:1004000080E10E94FC0A81111AC061E0CE010196D0
:100410000E94A20B8C010E946B09B80180E090E061
:100420000E94E00961E080E00E94030ACE0101968B
:100430000E949A0084E690E00E94470BE1CF80E1A1
:100440000E94E80A0E946B0986E491E00E947A0902
:1004500086E790E00E9438080E9417088111FCCFBF
:100460002A960FB6F894DEBF0FBECDBFDF91CF91B5
:100470001F910F9108950E9480010E94B202FFCF48
:10048000E091C901F0E0E653FE4F10820E946B0933
:100490008AEC91E00E947A098091C901893040F08C
:1004A00061E080E00E94030A82ED91E00C947A09F9
:1004B0000895811106C0611106C0411106C082E491
:1004C00008958CE4089583E5089582E508954091A8
:1004D000C901433008F445C0242F30E026533E4F75
:1004E000F901329780818234E1F5F90161E070E031
:1004F00080E090E052915C3451F0523529F0523452
:1005000041F48C549F4F05C0865A9F4F02C0825FB2
:100510009E4F6F5F7F4F6430710561F768E671E051
:100520000E9408118A35910589F034F4892BB1F4C1
:10053000F901339783E511C0843B910559F08E3062
:10054000914061F4F90133978CE407C0F9013397C6
:1005500082E503C0F901339782E4808342504093DF
:10056000C9010895CF93DF93CDB7DEB72F970FB6AC
:10057000F894DEBF0FBECDBF0E94990B00E010E0E3
:100580000E94E10067E370E087E390E00E94B90A0F
:100590008EE190E00E94470B61E0CE0101960E943F
:1005A000A20BFF24F39489819A818536910508F482
:1005B000F12C41E089859A858536910508F440E063
:1005C00068E270E088E290E04F870E94B90A84E90F
:1005D00090E00E94470B61E0CE0101960E94A20BC1
:1005E0008B819C814F85893C910560F48D819E8132
:1005F000893C9105A0F48F819885893C910578F418
:1006000060E00EC08F34924050F08D819E818F3417
:10061000924028F08F8198858F349240C0F461E039
:100620008F2D0E945902F82E0E9403049091C90157
:10063000E92FF0E0E653FE4FF0829F5F9093C901EF
:100640000F5F1F4F0E9467020E94400299CF8AE00D
:10065000282E312C90E4492E9FE1592E612C712CCB
:10066000C801110FAA0BBB0B8B879C87AD87BE8778
:100670000E947F0B24E630E040E050E00E941C1115
:1006800089019A01C801B1010E9408114B0146EF8E
:1006900046036001479FD00C1124C00ED11E60E0BC
:1006A00070E080E090E00E94B90A8AE491E00E9444
:1006B0002708092C000CAA08BB080D2C000CEE081A
:1006C000FF0880E10E94FC0A811159C00E947F0B43
:1006D000A30192010E941C11603D774081059105A4
:1006E00068F40E946B0980E591E00E947A0961E05C
:1006F00080E00E94030A8EE391E029C00E947F0BF4
:10070000A30192010E941C11603A7F40810591056E
:1007100018F40E9440022EC00E947F0BA301920198
:100720000E941C11603777418105910598F40E9461
:100730006B09C501B4010E94E00988E591E00E94BF
:100740007A09C701B6010E94E0098AE591E00E949A
:100750007A0910C00E946B098EE591E00E947A0927
:1007600061E080E00E94030A6B857C858D859E8513
:100770000E94E0098EE190E00E94470BA2CF80E149
:100780000E94FC0A8111FBCF88EE93E00E94470B88
:100790000E94990B0AEC11E08091C90190E0980148
:1007A0002A5C3140281739075CF50E94E100780186
:1007B000F8018081833549F46EE670E08EE690E0C2
:1007C0000E94B90A8CE390E012C067E370E087E30F
:1007D00090E00E94B90A8EE190E00E94470B68E227
:1007E00070E088E290E00E94B90A84E990E00E94FB
:1007F000470B0F5F1F4FD7018C910E940304CCCF92
:100800000E94E10035CF8C3469F0823581F082346A
:1008100011F568E87FEF88E790E00E94B90A84E06C
:1008200091E00DC068E770E088E89FEF04C068E8D9
:100830007FEF88E790E00E94B90A82E890E00E948A
:10084000470B64E670E084E690E00E94B90A84E118
:1008500090E00C94470B0895ECE7F0E080818F7DE9
:1008600080830895811103C00E942C040895809113
:100870007C00806280937C00089580917C0085FBE1
:10088000882780F908950E943D04882321F08091F3
:10089000790090E008958091780090917900089512
:1008A0008032A0F497E890937A0090917C006623C0
:1008B00011F0906C02C09F779064907E982B90937B
:1008C0007C0080917A00806480937A000895A0E093
:1008D000B0E0EDE6F4E00C948911EB0160E00E94D9
:1008E000500480917A0086FDFCCF8E01C12CD12C62
:1008F000760180917A00806480937A0080917A00FA
:1009000086FDFCCF0E944304C80ED91EE11CF11CD9
:10091000015011090115110561F7CE0196958795D2
:10092000C034D10538F48C0D9D1DBE010E94F41019
:10093000CB010EC0A7019601280F391F411D511D83
:10094000CA01B9019E0140E050E00E941C11C9019A
:10095000CDB7DEB7E8E00C94A511CF92DF92EF920D
:10096000FF92A0910001B09101019C010E945D11D4
:100970006B017C010E943D04882359F0C701B60138
:1009800061587F4F8F4F9F4F2FEF30E040E050E096
:100990000AC0C701B60161507E4F8F4F9F4F2FEFA6
:1009A00033E040E050E00E941C11C901FF90EF903D
:1009B000DF90CF9008950E9467040E94AD040895CF
:1009C0001F93CF93DF930E943D04182F0E942C04A5
:1009D0006AE070E086E00E94DB04EC01812F0E9457
:1009E0003204CE01880F991F8C0F9D1F019696959A
:1009F0008795DF91CF911F9108950E94E00408959B
:100A000090916B01E0916601F0916701992311F0DB
:100A1000849101C080812FEB280F2A3110F4805E71
:100A20000895803249F49F012F5F3F4F3093670153
:100A300020936601EF2B31F708951F93CF93DF9337
:100A40000E940005C0E0D0E01AE090ED980F9A30C7
:100A5000B8F49E01129FE001139FD00D1124C80F1E
:100A6000D11D87FDDA95E09780916601909167012D
:100A7000019690936701809366010E940005E5CF7F
:100A8000CE01DF91CF911F91089510926F0083E204
:100A90008093800081E1809381001092820080E148
:100AA00097E2909389008093880010928B001092B7
:100AB0008A00229A789408958F929F92AF92BF9263
:100AC000DF92EF92FF920F931F93CF93DF935C011E
:100AD0008B01D42E80916801811105C081E0809343
:100AE00068010E94450510920B01B7FE05C0E8940D
:100AF000B7F82AE0F22E02C0FF24F394E0908100C0
:100B00002E2D287FE22E48ECF49EC00111248A1578
:100B10009B05E0F4E50151E1A51657E2B50610F09A
:100B2000C0E1D7E2BE017695679580E090E060581D
:100B3000794687469F4F4E01A12CB12CA501940107
:100B40000E941C1159018E2D816024C0C8E2FC9EB8
:100B5000C02D1124D0E0CA15DB0508F4E501BE0163
:100B6000769567959E0140E050E08AE0F81207C054
:100B700080E090E0605E734481449F4F06C080E057
:100B800090E060537D4E8C4E9F4F0E941C11590186
:100B90008E2D8260882E2AE0F21207C0CE010596C3
:100BA0006AE070E00E94F410EB01C83E43E0D40715
:100BB00059F09801DE010E945D1128EE33E040E01B
:100BC00050E00E943E11890110926F0080928100D6
:100BD000B0928900A092880020918800309189000D
:100BE0004D2D403108F04FE080E190E0841B9109E9
:100BF000A90102C0569547958A95E2F750938B005C
:100C000040938A0010936E0100936D0186B38FEFBD
:100C100086BB81E080936F00DF91CF911F910F9190
:100C2000FF90EF90DF90BF90AF909F908F900895CE
:100C3000CF93DF93EB018F3F11F0411105C040E0EE
:100C4000BE0188EE93E043C0813130F050EF580F81
:100C5000503618F05FE501C050E0852F6CE00E942F
:100C6000E810682F74EF760390011124250F311DD1
:100C70002C30310540F4F901EE0FFF1FE25EFE4F0C
:100C80002081318102C020E030E0873081F0082EE1
:100C900002C0220F331F0A94E2F7823028F0C90104
:100CA00005966AE070E00CC0C90190580CC0C901FB
:100CB00036E0880F991F3A95E1F7029665E070E0FB
:100CC0000E94F410CB01403108F04FE0BE010E94B9
:100CD0005C05DF91CF910895A2E0B0E0E2E7F6E095
:100CE0000C94811190900A0180916A01882321F06F
:100CF00060916901611117C077247394B0ECAB2E39
:100D0000BDE5BB2E1AE0612E04E0802E80EDC82EDA
:100D100087E0D82E94E0E92EF12C04EF11E02FE0CB
:100D2000422E512C15C070E040E088EE93E00E9406
:100D30005C051092690117C18636D4F5813609F435
:100D4000A9C07CF58C3309F460C08E3381F4939490
:100D50000E94000520916601309167012F5F3F4F8F
:100D60003093670120936601853631F752C0813296
:100D700009F08BC080920A01D0920901C09208014B
:100D8000F0920701E092060110930501009304011F
:100D9000509203014092020110926A01A4E09A2E3F
:100DA000D7CF8336A1F10CF478C010E082E077C091
:100DB0008D36C1F194F4873691F174F18C3609F0D7
:100DC00064C00E941D05BC01909307018093060139
:100DD000809108019091090151C08237C9F14CF40A
:100DE0008F3609F052C00E941D05982E80930A018B
:100DF000AFCF843781F1863709F047C00E941D05C7
:100E00009093030180930201A3CF9A94A1CF10E0A5
:100E100020C010E084E043C010E085E040C010E056
:100E200087E03DC00E9400058C3619F410926A01DB
:100E300004C070926A01109269012091660130919C
:100E400067012F5F3F4F309367012093660180CF8A
:100E500011E080E024C00E941D05BC01C5010E9474
:100E6000F410669EC001679E900D112490930901B5
:100E70008093080160910601709107010E94F410AF
:100E8000709305016093040163CF10926701109283
:100E9000660169C010E089E002C010E08BE0082F15
:100EA0009CE0999E000D11240E940005982F977FC9
:100EB000933261F420916601309167012F5F3F4FBB
:100EC00030936701209366010F5FEECF8D3271F48E
:100ED00020916601309167012F5F3F4F309367018A
:100EE0002093660101500E940005F0CF609104013B
:100EF000709105018153883050F4E0900801F09022
:100F000009010E941D05BC01C7010E94F4107B016C
:100F1000F694E79469837A830E94000569817A8157
:100F20008E3269F420916601309167012F5F3F4F47
:100F300030936701209366016E0D7F1DE9CF80918C
:100F40006A01882339F09B01369527952093690122
:100F5000621B710940910201112311F08FEF01C052
:100F6000802F0E9418062296E0E10C949D111F929A
:100F70000F920FB60F9211242F933F934F935F93CD
:100F80006F937F938F939F93AF93BF93EF93FF9351
:100F900080916D0190916E019C0121503109309337
:100FA0006E0120936D01892B11F510926F007894DA
:100FB00080918100887F81608093810080E197E249
:100FC000909389008093880010928B0010928A0081
:100FD00081E080930B018091660190916701892BDC
:100FE00031F080916C01811102C00E946C06FF916A
:100FF000EF91BF91AF919F918F917F916F915F9191
:101000004F913F912F910F900FBE0F901F90189509
:1010100080910B01882349F081E020916601309195
:101020006701232B19F480E0089581E008950E9460
:101030000808089510926F009093670180936601ED
:1010400010926B01109269010E946C0608950E9433
:101050001A08089510926F009093670180936601BB
:1010600081E080936B01109269010E946C060895E3
:101070000E942A08089581E090E06F9364E06A95E9
:10108000F1F76F910197C9F708950F931F93CF93CD
:10109000DF931AB157985A98289AC0E0D0E00E947E
:1010A0003B085C9A0E943B0809B15C980E943B088F
:1010B0005C9A0E943B085C98249607FF10C0AE0122
:1010C00060E070E080916F0190917001A0917101DA
:1010D000B0917201481759076A077B0700F31AB9E4
:1010E000DF91CF911F910F91089595B1282F217015
:1010F00030E0220F331F482F467068E0469FA00162
:101100001124242B9D7C292B25B99BB188708295B5
:10111000807F9F77892B8BB95C9A0E943B085C98F3
:101120000E943B080895A0E0B0E0E9E9F8E00C94E3
:101130008A11C82FD62EE42E80912E02811105C06F
:1011400081E080932E020E9403090E94450814B199
:10115000D5B1FAB00BB12898DD2011F05A9A01C030
:101160005A9894B1926394B9579A81E0E81629F09D
:101170008C2F82958F700E9475088C2F8F700E9423
:101180007508FAB80BB914B9D5B9CDB7DEB7E7E031
:101190000C94A61142E060E00E949308089542E09A
:1011A00061E00E9493080895A1E0B0E0EAEDF8E064
:1011B0000C948B118C01660F660F660FE12CF12CDD
:1011C0008E2D860F806469830E94CA08F801EE0D97
:1011D000FF1D84910E94CF088FEFE81AF80A6981F9
:1011E000E8E0EE16F10461F72196E6E00C94A71111
:1011F0000E94D40808950E94CF08089541E060E05D
:101200000E949308089580E197E2A0E0B0E0809307
:101210006F0190937001A0937101B0937201529A83
:10122000209A549A8EE190E00E94470B83E00E943E
:10123000FE0886E090E00E94470B83E00E94FE08D3
:1012400082E090E00E94470B83E00E94FE0882E06B
:1012500090E00E94470B82E00E94FE0882E090E04E
:101260000E94470B88E20E94CA0888E00E94CA08D0
:1012700081E00E94CA0886E00E94CA088CE00E94B1
:10128000CA08089581E00E94CA0880917501909172
:101290007601892BF9F060E0A0E2262F30E0709112
:1012A0000C0180910D0190E00197789FA001799F3A
:1012B000500D1124241735074CF4E0917501F0917D
:1012C0007601E20FF31FA0836F5FE7CF10927301E7
:1012D0001092740108950E9442090895CF93DF93FC
:1012E000EC018991882319F00E94CF08FACFDF9191
:1012F000CF9108950E946E090895CF93DF93EC017A
:10130000FE018491882321F00E94CF082196F8CF16
:10131000DF91CF9108950E947D090895AAE0B0E081
:10132000E4E9F9E00C9489111AE05AE0C52ED12CB9
:10133000E12CF12C062FA70196010E941C11CA0175
:10134000B9011150E1E0F0E0EC0FFD1FE10FF11DDC
:10135000005D2AE0629F0019112400836115710568
:101360008105910539F71A3058F4E1E0F0E0EC0F0F
:10137000FD1FE10FF11D80810E94CF081F5FF3CF99
:101380002A96E8E00C94A511CF92DF92EF92FF929B
:101390006B017C0197FF0BC0F094E094D094C09453
:1013A000C11CD11CE11CF11C8DE20E94CF08C701B9
:1013B000B6010E948E09FF90EF90DF90CF900895C4
:1013C0000E94C4090895A5E0B0E0E9EEF9E00C94AC
:1013D0008E11182F80E8898380EC8A8384E98B83BF
:1013E00084ED8C83FE01E60FF11D8181810F6D83F9
:1013F0000E94CA08109373016D8160937401259651
:10140000E3E00C94AA110E94E3090895883058F48F
:1014100091E001C0990F8A95EAF7892FAAE2B0E01E
:10142000EBE2F0E021C08E3060F498EF980F81E09D
:1014300001C0880F9A95EAF7A4E2B0E0E5E2F0E097
:1014400013C0853160F492EF980F81E001C0880FDE
:101450009A95EAF7A7E2B0E0E8E2F0E005C080E0A4
:10146000A0E0B0E0E0E0F0E06F3F19F49081982751
:1014700009C0662319F09081982B04C02081982F11
:101480009095922390839C91982B9C93089583EF41
:101490008093B00084BD82E08093B10085BD10923E
:1014A000B4001092B30018BC17BC60E086E00E9444
:1014B000060A60E085E00E94060A60E08BE00E9478
:1014C000060A60E083E00E94060A089580912F02D8
:1014D000811105C081E080932F020E94470A089580
:1014E000CF93DF93EC010E94660AD7FF05C0D19528
:1014F000C195D10981E001C080E0CF3FD10519F04D
:1015000014F0CFEFD0E0882319F018BCC7BD02C09B
:10151000C8BD17BCDF91CF910895CF93DF93EC0145
:101520000E94660AD7FF05C0D195C195D10981E017
:1015300001C080E0CF3FD10519F014F0CFEFD0E02B
:10154000882329F01092B400C093B30004C0C09364
:10155000B4001092B300DF91CF910895CF93DF9341
:10156000EB010E94700ACE010E948D0ADF91CF919B
:1015700008950E94AE0A089584B18D7C84B985B126
:10158000826385B985E090E06F9364E06A95F1F736
:101590006F910197C9F7089580913002811105C0BC
:1015A00081E0809330020E94BC0A0895CF93C82F37
:1015B0000E94CC0A83B18C23E9F38AE090E00E9478
:1015C000470B83B18C23B1F383B18C23CF91089562
:1015D0000E94D60A0895A1E0B0E0E1EFFAE00C9491
:1015E0008F1189830E94CC0A93B1909589818923B8
:1015F0002196E2E00C94AB110E94EB0A08952F9221
:101600008F939F932FB680917E0190917F010196D9
:1016100080937E0190937F0190E080918001891FEB
:1016200080938001909178019C5F909378018091E4
:10163000770180519742C0F09093780180937701B1
:101640008091790190917A0101968093790190932C
:101650007A0190E080917B01891F80937B018091CA
:101660007C01891F80937C012FBE9F918F912F90C9
:10167000189528EE33E0019748F0F9016F9364E084
:101680006A95F1F76F913197C9F7F5CF08950E94E8
:10169000390B0895E0E7F0E080818E7F8083A0EB36
:1016A000B0E08C9183608C93A1EBB0E08C91807F53
:1016B0008C938C9182608C93B89A808181608083B6
:1016C0007894089580913102811105C081E0809362
:1016D00031020E944A0B08950E94620BE0E7F0E09D
:1016E00080818E7F80836091790170917A018091F1
:1016F0007B0190917C0120812160208308950E94CC
:101700006C0B08950E94620BE0E7F0E080818E7F11
:1017100080831092790110927A0110927B011092CD
:101720007C01109278011092770180818160808322
:1017300008950E94820B0895682F81E891E00E942D
:10174000840F0895462F20E0BC0181E891E00E94BB
:10175000551008950F93CF93DF9300D000D01F92C0
:10176000CDB7DEB79C0185E0E6E3F1E0DE0111963E
:1017700001900D928A95E1F7662311F00FEF01C0F9
:1017800003E145E0BE016F5F7F4F81E891E00E9479
:101790007C0C81E891E00E94530C0E94820B0F9018
:1017A0000F900F900F900F90DF91CF910F910895B0
:1017B00060E00E94AA0B089581E891E00E94CA109F
:1017C00008956F9364E06A95F1F76F910197C9F7F7
:1017D0000895FC01118210821382128215821482F4
:1017E0001682683068F489E290E0918380838BE20E
:1017F00090E0938382838AE290E0958384831FC084
:101800006E3070F483E290E09183808385E290E013
:101810009383828384E290E09583848368500FC031
:10182000653198F486E290E09183808388E290E0CD
:101830009383828387E290E0958384836E5081E076
:1018400001C0880F6A95EAF786830895A7E0B0E0A3
:10185000ECE2FCE00C948D118C01FC0111821082F1
:10186000138212821582148217821682613118F057
:1018700080E1808702C0FC016087F801208B642F23
:10188000CE0101960E94E90B8F81F80181878B813F
:101890009C81938782878D819E81958784872796F7
:1018A000E4E00C94A911FC01A485B585109779F0AA
:1018B0008C919185892B8C93A285B3859C91818590
:1018C000809589238C9388EC90E00E94E10B089529
:1018D000FC01A485B585109771F08C919185892BB9
:1018E0008C93A285B3858C919185892B8C9388EC00
:1018F00090E00E94E10B0895A7E0B0E0E2E8FCE090
:101900000C9482117C014B01642F3901402F20E09F
:101910000E94260C87010F5B1F4FF80110826701A0
:10192000F2E4CF0ED11CF60110825701F3E4AF0EA2
:10193000B11CF5011082F70177866686512CF701FC
:101940008085581650F5652C712CF401E60DF71DB5
:101950006081CE0101960E94E90B2F81F701E60D0F
:10196000F71D218B89819A81F301EE0FFF1FEE0D88
:10197000FF1D92A381A38332910511F4F80108C0E1
:101980008632910511F4F60103C0899721F4F5011F
:101990008081822B80835394D2CF2796EFE00C94E2
:1019A0009E11A0E0B0E0E7EDFCE00C948411EC01A6
:1019B0005B016C0181E4C80ED11CF60180807E01C0
:1019C000F2E4EF0EF11CF70170808E010D5B1F4FEA
:1019D000F801908080E09885891748F4F501E80FB8
:1019E000F11DE80FF11D118210828F5FF4CF84B1D9
:1019F000F6019081892B84B987B1F7019081892BF9
:101A000087B98AB1F8019081892B8AB985B1F6012D
:101A10009081892B85B988B1F7019081892B88B98C
:101A20008BB1F8019081892B8BB98AE090E00E94FC
:101A3000E10B94B1F60180818095892384B997B137
:101A4000F70180818095892387B99AB1F801808157
:101A5000809589238AB995B1F60180818095892383
:101A600085B998B1F70180818095892388B99BB1A8
:101A7000F8018081809589238BB9E090B000D090E7
:101A8000B1008091B00083608093B00082E08093C9
:101A9000B1004091B20080E090E02E853F85821732
:101AA000930720F5C090B2002C2D241B820F911DAE
:101AB00003B1081132C0F6B0F7102FC029B12911B7
:101AC0002CC010C0212F30E0A901440F551FF50193
:101AD000E40FF51F60817181672B21F11F5F28855D
:101AE000121780F37F2C802E4C2DD7CFE092B000C0
:101AF000D092B10020E08885281730F5F501E20F7B
:101B0000F11DE20FF11D80819181892B21F48E85D9
:101B10009F85918380832F5FEECF03B1F6B099B09C
:101B200010E0DDCFDE01A40FB51F91960D90BC91A2
:101B3000A02D4C91DE01A20FB31F51962C91422390
:101B400069F691838083CACFCDB7DEB7EDE00C9400
:101B5000A011EF92FF920F931F93CF93DF93FC019D
:101B60009B01F0907C0000917A0047B118B1809100
:101B70007A0086FDFCCF80E09085891748F4D90172
:101B8000A80FB11DA80FB11D1D921C928F5FF4CF3D
:101B900097B182A18095892387B998B182A1809558
:101BA000892388B987E880937A00E12C81A1E8161F
:101BB00010F0E12C29C050E08085581718F5A52FAA
:101BC000B0E0EF01CA0FDB1F8989806480937C003D
:101BD00080917A00806480937A0080917A0086FDFB
:101BE000FCCF6091780070917900AA0FBB1FA20F03
:101BF000B31F8D919C911197860F971F8D939C9386
:101C00005F5FDACFE394D2CF8085E816A0F4E901D4
:101C1000CE0DD11DCE0DD11D61A170E0CB019595EA
:101C20008795A881B9818A0F9B1F0E94F410798340
:101C30006883E394E9CFF0927C0000937A0018B9AE
:101C400047B9CDB7DEB7E6E00C94A711A0E2B0E04B
:101C5000ECE2FEE00C948A118C017B01D42E8FEF14
:101C6000840F823018F4C8010E94680CD801509685
:101C70008C91B701811110C0C8010E94D10CC8011C
:101C80000E94530CB2E0DB123AC0BE016F5F7F4F7F
:101C9000C8010E94D10C0FC0C8010E94A90DC80143
:101CA0000E94530CE2E0DE122AC0BE016F5F7F4F3C
:101CB000C8010E94A90D40E0F80180854817F8F49A
:101CC000842F90E0880F991FF701E80FF91F21E09A
:101CD00030E02C0F3D1F820F931FD8011E962D91CF
:101CE0003C911F97DC018D919C91281B390B8081C1
:101CF0009181820F931F918380834F5FDDCFA096E8
:101D0000E7E00C94A6112F923F925F926F927F9220
:101D10008F929F92AF92BF92CF92DF92EF92FF92FB
:101D20000F931F93CF93DF93CDB7DEB7C056D10982
:101D30000FB6F894DEBF0FBECDBF8C014B015A0128
:101D4000522EDA018D919C91892B31F0F401808122
:101D50009181892BF1F424C0D80118968C9190E0E0
:101D6000880F991F0E94BC11F50191838083009711
:101D700009F4B1C0FC0120E030E0D80118968C9144
:101D800090E02817390714F7119211922F5F3F4FF7
:101D9000F4CFE12CF12C6E01B1E2CB0ED11C21C0AD
:101DA000F801808590E0880F991F0E94BC11D40132
:101DB0008D939C93009709F48EC0FC0120E030E0E5
:101DC000D80118968C9190E02817390714F7D8019C
:101DD0001E968D919C911F97819391932F5F3F4FFA
:101DE000EFCF452DBE016F5B7F4FC8010E94260ECD
:101DF000F8016084712CFE01EF5BFF4FC6019E016C
:101E00002F5F3F4F190120E030E0261537054CF5D4
:101E1000E114F10489F0DC016D917C9140815181E4
:101E20006417750748F0D1016D917C914081518113
:101E30004617570748F00DC040815181DC014D9392
:101E40005C93E114F10479F740815181D1014D9304
:101E50005C932F5F3F4FB2E02B0E311C32960296FF
:101E6000D4CFEFEFEE1AFE0AFAE0EF16F10409F014
:101E7000B8CF9E012F5F3F4F7901360180E090E09F
:101E8000F801208530E0821793072CF5D7012D91BA
:101E90003D917D01B3016C197D09D501ED91FC9156
:101EA000E60FF71F408151814217530710F4318329
:101EB0002083F301219131913F01D401ED91FC91F7
:101EC000E60FF71F408151812417350710F4318345
:101ED00020830196D5CFC05ADF4F0FB6F894DEBFEE
:101EE0000FBECDBFDF91CF911F910F91FF90EF906B
:101EF000DF90CF90BF90AF909F908F907F906F902A
:101F00005F903F902F9008951F93CF93DF93EC0144
:101F1000162F8FEF860F823018F0662359F014C009
:101F200021E0AE014E5F5F4FBE01CE010E94830EE5
:101F3000123051F4AE014A5F5F4FBE016C5F7F4FBC
:101F400020E0CE010E94830EDF91CF911F91089572
:101F5000A0E0B0E0EEEAFFE00C948811EC018B0108
:101F6000B42E842F8D7F51F48C819D81892B09F4AF
:101F700097C08E819F81892B09F492C08FEF8B0DC2
:101F8000823050F488819981892B09F489C08A8133
:101F90009B81892B09F484C04B2DB801CE010E948E
:101FA000260E780100E010E0C12CD12C888590E04D
:101FB000C816D9060CF074C081E0B8120AC0EA81D4
:101FC000FB81E00FF11F0190F081E02DA881B98124
:101FD0000DC08C819D812E813F81B1100CC0F90113
:101FE000E00FF11F0190F081E02DDC01A00FB11F87
:101FF0008D919C9128C0FC01E00FF11F408151811F
:10200000E881F981E00FF11F80819181EE85FF85E4
:102010004817590710F4CF0104C08E0F9F1F841B6F
:10202000950BD901A00FB11F2D913C91AA81BB81C5
:10203000A00FB11F4D915C912417350720F0E40FDC
:10204000F51FE21BF30BE81BF90BA9F0D7012D914B
:102050003C9140E050E0281B390B41095109A8EEA2
:10206000B3E00E946C119F0140E050E00E943E11DD
:1020700037FD0AC002C020E030E0293EB3E03B0754
:102080002CF028EE33E002C020E030E0F70121938D
:1020900031937F01FFEFCF1ADF0A0E5F1F4F86CF0C
:1020A000CDB7DEB7E9E00C94A411A0E0B0E0EBE519
:1020B000F0E10C947F11EC018B01822E0E94A80F9D
:1020C0002884E801412C512C320100E010E0C12CA1
:1020D000D12C7601312C912C58EEA52E53E0B52E43
:1020E000921421F1E991F991882021F0C5018E1B0C
:1020F0009F0BFC01E93CF10524F4E333F10574F096
:1021000002C033243394DF01A30192010E947711AE
:10211000C60ED71EE81EF91E0E0F1F1F939498EED1
:10212000490E93E0591E611C711CDACF31101EC09C
:10213000492D50E04150510924EF31E0429FC00148
:10214000439F900D529F900D11242091C501309115
:10215000C60128173907B4F088EE93E0489F900134
:10216000499F300D589F300D11240EC0980140E05A
:1021700050E0C701B6010E941C113093C6012093A4
:10218000C50102C020E030E0C901CDB7DEB7E2E111
:102190000C949B11CF93DF93EC018A819B81009774
:1021A00011F00E9451128E819F81009711F00E94C0
:1021B000511288819981009711F00E9451128C81EF
:1021C0009D81009711F00E945112DF91CF910895E7
:1021D000991B79E004C0991F961708F0961B881F79
:1021E0007A95C9F780950895AA1BBB1B51E107C0DA
:1021F000AA1FBB1FA617B70710F0A61BB70B881F97
:10220000991F5A95A9F780959095BC01CD01089525
:1022100097FB072E16F4009407D077FD09D00E9493
:10222000F41007FC05D03EF4909581959F4F0895DA
:10223000709561957F4F0895A1E21A2EAA1BBB1BD2
:10224000FD010DC0AA1FBB1FEE1FFF1FA217B30782
:10225000E407F50720F0A21BB30BE40BF50B661F98
:10226000771F881F991F1A9469F76095709580955C
:1022700090959B01AC01BD01CF010895052E97FB00
:102280001EF400940E94551157FD07D00E941C11A6
:1022900007FC03D04EF40C945511509540953095A1
:1022A00021953F4F4F4F5F4F0895909580957095C2
:1022B00061957F4F8F4F9F4F0895A29FB001B39FAD
:1022C000C001A39F700D811D1124911DB29F700D3F
:1022D000811D1124911D08950E945D11A59F900DEF
:1022E000B49F900DA49F800D911D11240895B7FFF8
:1022F0000C946C110E946C11821B930B08952F9209
:102300003F924F925F926F927F928F929F92AF9285
:10231000BF92CF92DF92EF92FF920F931F93CF93D2
:10232000DF93CDB7DEB7CA1BDB0B0FB6F894DEBF69
:102330000FBECDBF09942A88398848885F846E848F
:102340007D848C849B84AA84B984C884DF80EE80D9
:10235000FD800C811B81AA81B981CE0FD11D0FB6E2
:10236000F894DEBF0FBECDBFED010895EE0FFF1F45
:102370000590F491E02D0994CF93DF93823091057D
:1023800010F482E090E0E0913402F091350220E018
:1023900030E0C0E0D0E0309711F140815181481722
:1023A0005907C0F04817590761F48281938120973B
:1023B00019F09B838A832BC090933502809334025B
:1023C00026C02115310519F04217530718F49A0158
:1023D000BE01DF01EF010280F381E02DDCCF21158A
:1023E000310509F1281B390B2430310590F4129680
:1023F0008D919C9113976115710521F0FB019383D9
:10240000828304C09093350280933402FD0132969A
:1024100044C0FD01E20FF31F8193919322503109D3
:102420002D933C933AC02091320230913302232BFA
:1024300041F4209110013091110130933302209327
:10244000320220910E0130910F012115310541F426
:102450002DB73EB74091120150911301241B350B4B
:10246000E0913202F0913302E217F307A0F42E1B41
:102470003F0B2817390778F0AC014E5F5F4F2417E8
:10248000350748F04E0F5F1F5093330240933202DE
:102490008193919302C0E0E0F0E0CF01DF91CF9112
:1024A00008950F931F93CF93DF93009709F48CC087
:1024B000FC0132971382128200913402109135028E
:1024C0000115110581F420813181820F931F209124
:1024D0003202309133022817390779F5F09333022D
:1024E000E093320271C0D80140E050E0AE17BF0760
:1024F00050F412962D913C911397AD0121153105A1
:1025000009F1D901F3CF9D01DA0133832283608180
:102510007181860F971F8217930769F4EC01288158
:102520003981260F371F2E5F3F4F318320838A81E9
:102530009B8193838283452B29F4F0933502E093AA
:10254000340242C01396FC93EE931297ED01499129
:1025500059919E01240F351FE217F30771F4808112
:102560009181840F951F029611969C938E93828180
:10257000938113969C938E931297E0E0F0E0D8013C
:1025800012968D919C911397009719F0F8018C0188
:10259000F6CF8D919C9198012E5F3F4F820F931F34
:1025A00020913202309133022817390769F43097AD
:1025B00029F4109235021092340202C01382128262
:1025C0001093330200933202DF91CF911F910F914C
:1025D000089510E0C5E5D0E004C0FE010E94B611E8
:0C25E0002196C635D107C9F7F894FFCF4B
:1025EC0088130F00F4010400D00704010802000056
:1025FC0036022000200000010203040506FF9C01A6
:10260C00B501CF01EA0107022602470269028E02D8
:10261C00B502DE020A030E0F1011126D5600507235
:10262C00657373204200476F21003E3E61333200D8
:10263C00536F6C76656421002E0073656300416CEA
:06264C006C204C656E00DD
:00000001FF
