S01000006B61646169322D312E737265638A
S11300000C9457000C9474000C9474000C947400B9
S11300100C9474000C9474000C9474000C9474008C
S11300200C9474000C94D0080C9474000C94740018
S11300300C9474000C9498050C9474000C94740043
S11300400C9474000C9474000C9474000C9474005C
S11300500C9474000C9474000C9474000C9474004C
S11300600C9474000C947400000000000000001F45
S11300701F1F1F1F1F1F4C31362063646567726585
S11300806734003E6733323E3E63333200666F6C42
S11300906C6F776572004C696E650033F720526FA0
S11300A0626F740020506F6C6F6C7500AD09112481
S11300B01FBECFEFD8E0DEBFCDBF11E0A0E0B1E0BE
S11300C0E6E6F1E202C005900D92A235B107D9F738
S11300D021E0A2E5B1E001C01D92AD3BB207E1F71A
S11300E00E94A4010C94A6100C94000060E088E621
S11300F090E00E94C90661E089E690E00E94C9068A
S113010062E08AE690E00E94C90663E08BE690E034
S11301100E94C90664E08CE690E00E94C90665E08E
S11301208DE690E00E94C90666E08EE690E00E94AB
S1130130C9060E943C070895CF92DF92FF920F9365
S11301401F93CF93DF93CDB7DEB72A970FB6F894FA
S1130150DEBF0FBECDBF8C016C018AE0C80ED11C7E
S11301600F2EFAE0FF2EF02DE4E1F1E0DE0111960E
S11301708F2D01900D928A95E1F7F801219131912B
S11301808F01A7E4B4E10E941A0F9695879596957E
S1130190879596958795E1E0F0E0EC0FFD1FE80F59
S11301A0F91F80810E94CC060C151D05E9F62A96DC
S11301B00FB6F894DEBF0FBECDBFDF91CF911F9174
S11301C00F91FF90DF90CF9008950F931F93CF93DB
S11301D0DF93CDB7DEB72A970FB6F894DEBF0FBE14
S11301E0CDBF80ED97E00E94A9090E94760084EAC1
S11301F090E00E945C0761E080E00E94D4078BE9F4
S113020090E00E945C0783E890E00E94090688EE73
S113021093E00E9418090E943C0786E990E00E943E
S11302205C0761E080E00E94D4078DE890E00E94C2
S11302305C0788EE93E00E9418091BC00E94DE024E
S11302408C010E943C07B801110F880B990B0E9486
S1130250B1078BE391E00E944B0761E080E00E94CC
S1130260D4078EE391E00E944B0784E690E00E945D
S1130270180980E10E94CD08882301F380E10E94DF
S1130280B90888EE93E00E9418090CEE1FEF0832BB
S1130290110538F068ED7FEF88E290E00E948A084B
S11302A006C068E270E088ED9FEF0E948A0881E052
S11302B00E946D0984E190E00E9418090F5F1F4FAE
S11302C00C33110521F760E070E080E090E00E94BB
S11302D08A0819C061E0CE0101960E9473098C015D
S11302E00E943C07B80180E090E00E94B10761E001
S11302F080E00E94D407CE0101960E949C0084E60F
S113030090E00E94180980E10E94CD08882311F32F
S113031080E10E94B9080E943C0786E491E00E94B3
S11303204B0786E790E00E9409060E94F8058111B8
S1130330FCCF2A960FB6F894DEBF0FBECDBFDF9177
S1130340CF911F910F910895CF93DF93CDB7DEB76F
S11303502A970FB6F894DEBF0FBECDBF0E94E5000A
S11303600E946A0961E0CE0101960E9473098C0122
S11303700E943C070E9450090E94B1078AE491E060
S11303800E944B070115110521F0003A8FE0180770
S1130390D9F462E370E082E390E00E948A0884E684
S11303A090E00E94180960E070E080E090E00E9414
S11303B08A080E943C070E9450090E94B1078DE4FC
S11303C091E00E944B0728C0083785E0180758F4CD
S11303D064E670E08EE190E00E948A08599A519A8E
S11303E05F98579ABFCF08321A4058F46AE570E014
S11303F08AE590E00E948A08599A519A5F9A579A1E
S1130400B1CF6EE170E084E690E00E948A085998CA
S1130410519A5F9A579AA6CFFFCFECE7F0E080811C
S11304208F7D80830895811103C00E940D02089579
S113043080917C00806280937C00089580917C0090
S113044085FB882780F908950E941E02882321F0E5
S11304508091790090E008958091780090917900DE
S113046008958032A0F497E890937A0090917C00EC
S1130470662311F0906C02C09F779064907E982B55
S113048090937C0080917A00806480937A00089530
S1130490A0E0B0E0EEE4F2E00C94460FEB0160E083
S11304A00E94310280917A0086FDFCCF8E01C12C1E
S11304B0D12C760180917A00806480937A008091B7
S11304C07A0086FDFCCF0E942402C80ED91EE11CCE
S11304D0F11C015011090115110561F7CE01969522
S11304E08795C034D10538F48C0D9D1DBE010E9442
S11304F0C50ECB010EC0A7019601280F391F411D5F
S1130500511DCA01B9019E0140E050E00E94D90E7C
S1130510C901CDB7DEB7E8E00C94620FCF92DF9249
S1130520EF92FF92A0910001B09101019C010E9401
S11305301A0F6B017C010E941E02882359F0C70127
S1130540B60161587F4F8F4F9F4F2FEF30E040E04F
S113055050E00AC0C701B60161507E4F8F4F9F4FD4
S11305602FEF33E040E050E00E94D90EC901FF9024
S1130570EF90DF90CF9008950E9448020E948E026F
S113058008951F93CF93DF930E941E02182F0E9499
S11305900D026AE070E086E00E94BC02EC01812F4B
S11305A00E941302CE01880F991F8C0F9D1F019684
S11305B096958795DF91CF911F9108950E94C1026E
S11305C0089590915701E0915201F09153019923BC
S11305D011F0849101C080812FEB280F2A3110F48F
S11305E0805E0895803249F49F012F5F3F4F30931E
S11305F0530120935201EF2B31F708951F93CF93AA
S1130600DF930E94E102C0E0D0E01AE090ED980F81
S11306109A30B8F49E01129FE001139FD00D11246B
S1130620C80FD11D87FDDA95E09780915201909112
S11306305301019690935301809352010E94E10269
S1130640E5CFCE01DF91CF911F91089510926F00F5
S113065083E28093800081E1809381001092820084
S113066080E197E2909389008093880010928B0038
S113067010928A00229A789408958F929F92AF9252
S1130680BF92DF92EF92FF920F931F93CF93DF936A
S11306905C018B01D42E80915401811105C081E04D
S11306A0809354010E94260310920B01B7FE05C0EB
S11306B0E894B7F82AE0F22E02C0FF24F394E09005
S11306C081002E2D287FE22E48ECF49EC0011124D7
S11306D08A159B05E0F4E50151E1A51657E2B5063C
S11306E010F0C0E1D7E2BE017695679580E090E016
S11306F06058794687469F4F4E01A12CB12CA50125
S113070094010E94D90E59018E2D816024C0C8E243
S1130710FC9EC02D1124D0E0CA15DB0508F4E501C8
S1130720BE01769567959E0140E050E08AE0F8129C
S113073007C080E090E0605E734481449F4F06C030
S113074080E090E060537D4E8C4E9F4F0E94D90E06
S113075059018E2D8260882E2AE0F21207C0CE0144
S113076005966AE070E00E94C50EEB01C83E43E0C6
S1130770D40759F09801DE010E941A0F28EE33E0E5
S113078040E050E00E94FB0E890110926F008092BD
S11307908100B0928900A092880020918800309155
S11307A089004D2D403108F04FE080E190E0841B3A
S11307B09109A90102C0569547958A95E2F750938D
S11307C08B0040938A0010935A010093590186B319
S11307D08FEF86BB81E080936F00DF91CF911F91F3
S11307E00F91FF90EF90DF90BF90AF909F908F900C
S11307F00895CF93DF93EB018F3F11F0411105C0B2
S113080040E0BE0188EE93E043C0813130F050EF08
S1130810580F503618F05FE501C050E0852F6CE0AA
S11308200E94B90E682F74EF760390011124250FEE
S1130830311D2C30310540F4F901EE0FFF1FE25E4B
S1130840FE4F2081318102C020E030E0873081F00A
S1130850082E02C0220F331F0A94E2F7823028F0D8
S1130860C90105966AE070E00CC0C90190580CC03B
S1130870C90136E0880F991F3A95E1F7029665E0C1
S113088070E00E94C50ECB01403108F04FE0BE017C
S11308900E943D03DF91CF910895A2E0B0E0E3E52B
S11308A0F4E00C943E0F90900A0180915601882345
S11308B021F060915501611117C077247394B0EC55
S11308C0AB2EBDE5BB2E1AE0612E04E0802E80ED38
S11308D0C82E87E0D82E94E0E92EF12C04EF11E025
S11308E02FE0422E512C15C070E040E088EE93E0DA
S11308F00E943D031092550117C18636D4F5813606
S113090009F4A9C07CF58C3309F460C08E3381F4FA
S113091093940E94E10220915201309153012F5F80
S11309203F4F3093530120935201853631F752C023
S1130930813209F08BC080920A01D0920901C092E1
S11309400801F0920701E09206011093050100935B
S11309500401509203014092020110925601A4E056
S11309609A2ED7CF8336A1F10CF478C010E082E040
S113097077C08D36C1F194F4873691F174F18C36D9
S113098009F064C00E94FE02BC01909307018093A9
S11309900601809108019091090151C08237C9F183
S11309A04CF48F3609F052C00E94FE02982E8093B8
S11309B00A01AFCF843781F1863709F047C00E941E
S11309C0FE029093030180930201A3CF9A94A1CFD6
S11309D010E020C010E084E043C010E085E040C097
S11309E010E087E03DC00E94E1028C3619F41092B9
S11309F0560104C070925601109255012091520183
S1130A00309153012F5F3F4F309353012093520194
S1130A1080CF11E080E024C00E94FE02BC01C50129
S1130A200E94C50E669EC001679E900D112490938E
S1130A3009018093080160910601709107010E94E9
S1130A40C50E709305016093040163CF10925301A6
S1130A501092520169C010E089E002C010E08BE0FE
S1130A60082F9CE0999E000D11240E94E102982F0A
S1130A70977F933261F420915201309153012F5F9B
S1130A803F4F30935301209352010F5FEECF8D32CD
S1130A9071F420915201309153012F5F3F4F3093F5
S1130AA053012093520101500E94E102F0CF609162
S1130AB00401709105018153883050F4E0900801DD
S1130AC0F09009010E94FE02BC01C7010E94C50EFC
S1130AD07B01F694E79469837A830E94E102698139
S1130AE07A818E3269F420915201309153012F5F43
S1130AF03F4F30935301209352016E0D7F1DE9CF78
S1130B0080915601882339F09B01369527952093CF
S1130B105501621B710940910201112311F08FEFFD
S1130B2001C0802F0E94F9032296E0E10C945A0F31
S1130B301F920F920FB60F9211242F933F934F934E
S1130B405F936F937F938F939F93AF93BF93EF9331
S1130B50FF938091590190915A019C0121503109D0
S1130B6030935A0120935901892B11F510926F008B
S1130B70789480918100887F81608093810080E1F6
S1130B8097E2909389008093880010928B001092D2
S1130B908A0081E080930B0180915201909153016E
S1130BA0892B31F080915801811102C00E944D04BB
S1130BB0FF91EF91BF91AF919F918F917F916F9131
S1130BC05F914F913F912F910F900FBE0F901F9007
S1130BD0189580910B01882349F081E020915201FE
S1130BE030915301232B19F480E0089581E0089596
S1130BF00E94E905089510926F0090935301809329
S1130C00520181E080935701109255010E944D04D6
S1130C1008950E94FB05089581E090E06F9364E0DD
S1130C206A95F1F76F910197C9F708950F931F9390
S1130C30CF93DF931AB157985A98289AC0E0D0E01E
S1130C400E940C065C9A0E940C0609B15C980E94F2
S1130C500C065C9A0E940C065C98249607FF10C050
S1130C60AE0160E070E080915B0190915C01A09125
S1130C705D01B0915E01481759076A077B0700F3CD
S1130C801AB9DF91CF911F910F91089595B1282F33
S1130C90217030E0220F331F482F467068E0469FD2
S1130CA0A0011124242B9D7C292B25B99BB188708C
S1130CB08295807F9F77892B8BB95C9A0E940C0662
S1130CC05C980E940C060895A0E0B0E0EAE6F6E025
S1130CD00C94470FC82FD62EE42E8091B5018111B4
S1130CE005C081E08093B5010E94D4060E941606D7
S1130CF014B1D5B1FAB00BB12898DD2011F05A9A8D
S1130D0001C05A9894B1926394B9579A81E0E81655
S1130D1029F08C2F82958F700E9446068C2F8F703D
S1130D200E944606FAB80BB914B9D5B9CDB7DEB7E7
S1130D30E7E00C94630F42E060E00E9464060895CB
S1130D4042E061E00E9464060895A1E0B0E0EBEAAD
S1130D50F6E00C94480F8C01660F660F660FE12CC9
S1130D60F12C8E2D860F806469830E949B06F80106
S1130D70EE0DFF1D84910E94A0068FEFE81AF80A79
S1130D806981E8E0EE16F10461F72196E6E00C943F
S1130D90640F0E94A50608950E94A006089541E0EC
S1130DA060E00E946406089580E197E2A0E0B0E06C
S1130DB080935B0190935C01A0935D01B0935E010D
S1130DC0529A209A549A8EE190E00E94180983E086
S1130DD00E94CF0686E090E00E94180983E00E94FA
S1130DE0CF0682E090E00E94180983E00E94CF06BB
S1130DF082E090E00E94180982E00E94CF0682E01F
S1130E0090E00E94180988E20E949B0688E00E94F4
S1130E109B0681E00E949B0686E00E949B068CE074
S1130E200E949B06089581E00E949B0680916101C7
S1130E3090916201892BF9F060E0A0E2262F30E066
S1130E4070910C0180910D0190E00197789FA001B1
S1130E50799F500D1124241735074CF4E09161015A
S1130E60F0916201E20FF31FA0836F5FE7CF10924E
S1130E705F011092600108950E9413070895CF93B3
S1130E80DF93EC018991882319F00E94A006FACF20
S1130E90DF91CF9108950E943F070895CF93DF9388
S1130EA0EC01FE018491882321F00E94A006219682
S1130EB0F8CFDF91CF9108950E944E070895AAE0DC
S1130EC0B0E0E5E6F7E00C94460F1AE05AE0C52ED0
S1130ED0D12CE12CF12C062FA70196010E94D90EEA
S1130EE0CA01B9011150E1E0F0E0EC0FFD1FE10F80
S1130EF0F11D005D2AE0629F001911240083611531
S1130F0071058105910539F71A3058F4E1E0F0E0F4
S1130F10EC0FFD1FE10FF11D80810E94A0061F5FF1
S1130F20F3CF2A96E8E00C94620FCF92DF92EF920F
S1130F30FF926B017C0197FF0BC0F094E094D09476
S1130F40C094C11CD11CE11CF11C8DE20E94A006BE
S1130F50C701B6010E945F07FF90EF90DF90CF902A
S1130F6008950E9495070895A5E0B0E0EAEBF7E044
S1130F700C944B0F182F80E8898380EC8A8384E9D2
S1130F808B8384ED8C83FE01E60FF11D8181810F3B
S1130F906D830E949B0610935F016D8160936001D5
S1130FA02596E3E00C94670F0E94B40708958830F7
S1130FB058F491E001C0990F8A95EAF7892FAAE2C3
S1130FC0B0E0EBE2F0E021C08E3060F498EF980FCF
S1130FD081E001C0880F9A95EAF7A4E2B0E0E5E267
S1130FE0F0E013C0853160F492EF980F81E001C006
S1130FF0880F9A95EAF7A7E2B0E0E8E2F0E005C0CE
S113100080E0A0E0B0E0E0E0F0E06F3F19F4908110
S1131010982709C0662319F09081982B04C0208179
S1131020982F9095922390839C91982B9C9308954C
S113103083EF8093B00084BD82E08093B10085BDCE
S11310401092B4001092B30018BC17BC60E086E0A4
S11310500E94D70760E085E00E94D70760E08BE03C
S11310600E94D70760E083E00E94D707089580912B
S1131070B601811105C081E08093B6010E94180871
S11310800895CF93DF93EC010E943708D7FF05C082
S1131090D195C195D10981E001C080E0CF3FD10550
S11310A019F014F0CFEFD0E0882319F018BCC7BDB5
S11310B002C0C8BD17BCDF91CF910895CF93DF93D1
S11310C0EC010E943708D7FF05C0D195C195D1091D
S11310D081E001C080E0CF3FD10519F014F0CFEFDB
S11310E0D0E0882329F01092B400C093B30004C068
S11310F0C093B4001092B300DF91CF910895CF93C1
S1131100DF93EB010E944108CE010E945E08DF914B
S1131110CF9108950E947F08089584B18D7C84B98D
S113112085B1826385B985E090E06F9364E06A9548
S1131130F1F76F910197C9F708958091B701811173
S113114005C081E08093B7010E948D080895CF9374
S1131150C82F0E949D0883B18C23E9F38AE090E0B4
S11311600E94180983B18C23B1F383B18C23CF91EE
S113117008950E94A7080895A1E0B0E0E2ECF8E029
S11311800C944C0F89830E949D0893B1909589819A
S113119089232196E2E00C94680F0E94BC0808950C
S11311A02F928F939F932FB680916A0190916B0138
S11311B0019680936A0190936B0190E080916C0199
S11311C0891F80936C01909164019C5F90936401EA
S11311D08091630180519742C0F0909364018093A1
S11311E06301809165019091660101968093650188
S11311F09093660190E080916701891F8093670155
S113120080916801891F809368012FBE9F918F91FF
S11312102F90189528EE33E0019748F0F9016F9369
S113122064E06A95F1F76F913197C9F7F5CF0895A6
S11312300E940A090895E0E7F0E080818E7F8083B0
S1131240A0EBB0E08C9183608C93A1EBB0E08C9127
S1131250807F8C938C9182608C93B89A808181601A
S11312608083789408958091B801811105C081E04C
S11312708093B8010E941B0908950E943309E0E796
S1131280F0E080818E7F80836091650170916601BA
S113129080916701909168012081216020830895E5
S11312A00E943D0908950E943309E0E7F0E080813F
S11312B08E7F8083109265011092660110926701FF
S11312C01092680110926401109263018081816020
S11312D0808308950E9453090895682F8DE691E054
S11312E00E94550D0895462F20E0BC018DE691E043
S11312F00E94260E08950F93CF93DF9300D000D061
S11313001F92CDB7DEB79C0185E0E6E3F1E0DE0194
S1131310119601900D928A95E1F7662311F00FEF73
S113132001C003E145E0BE016F5F7F4F8DE691E0B0
S11313300E944D0A8DE691E00E94240A0E945309FE
S11313400F900F900F900F900F90DF91CF910F910E
S1131350089560E00E947B0908958DE691E00E9463
S11313609B0E08956F9364E06A95F1F76F9101976E
S1131370C9F70895FC01118210821382128215822A
S113138014821682683068F489E290E09183808345
S11313908BE290E0938382838AE290E09583848356
S11313A01FC06E3070F483E290E09183808385E205
S11313B090E09383828384E290E0958384836850F1
S11313C00FC0653198F486E290E09183808388E2CF
S11313D090E09383828387E290E0958384836E50C8
S11313E081E001C0880F6A95EAF786830895A7E033
S11313F0B0E0EDEFF9E00C944A0F8C01FC0111828E
S1131400108213821282158214821782168261312D
S113141018F080E1808702C0FC016087F801208B0E
S1131420642FCE0101960E94BA098F81F801818749
S11314308B819C81938782878D819E819587848708
S11314402796E4E00C94660FFC01A485B5851097FB
S113145079F08C919185892B8C93A285B3859C918D
S11314608185809589238C9388EC90E00E94B20951
S11314700895FC01A485B585109771F08C91918530
S1131480892B8C93A285B3858C919185892B8C9320
S113149088EC90E00E94B2090895A7E0B0E0E3E58B
S11314A0FAE00C943F0F7C014B01642F3901402F6B
S11314B020E00E94F70987010F5B1F4FF80110829B
S11314C06701F2E4CF0ED11CF60110825701F3E458
S11314D0AF0EB11CF5011082F70177866686512C98
S11314E0F7018085581650F5652C712CF401E60D32
S11314F0F71D6081CE0101960E94BA092F81F70180
S1131500E60DF71D218B89819A81F301EE0FFF1FF0
S1131510EE0DFF1D92A381A38332910511F4F8010E
S113152008C08632910511F4F60103C0899721F4AD
S1131530F5018081822B80835394D2CF2796EFE0EC
S11315400C945B0FA0E0B0E0E8EAFAE00C94410FE1
S1131550EC015B016C0181E4C80ED11CF6018080B2
S11315607E01F2E4EF0EF11CF70170808E010D5B39
S11315701F4FF801908080E09885891748F4F501A1
S1131580E80FF11DE80FF11D118210828F5FF4CF77
S113159084B1F6019081892B84B987B1F7019081D8
S11315A0892B87B98AB1F8019081892B8AB985B1D1
S11315B0F6019081892B85B988B1F7019081892B37
S11315C088B98BB1F8019081892B8BB98AE090E0BE
S11315D00E94B20994B1F60180818095892384B96F
S11315E097B1F70180818095892387B99AB1F80171
S11315F08081809589238AB995B1F601808180958F
S1131600892385B998B1F70180818095892388B9A8
S11316109BB1F8018081809589238BB9E090B0005B
S1131620D090B1008091B00083608093B00082E0DC
S11316308093B1004091B20080E090E02E853F8518
S11316408217930720F5C090B2002C2D241B820F23
S1131650911D03B1081132C0F6B0F7102FC029B1A3
S113166029112CC010C0212F30E0A901440F551FAF
S1131670F501E40FF51F60817181672B21F11F5F74
S11316802885121780F37F2C802E4C2DD7CFE09223
S1131690B000D092B10020E08885281730F5F5011C
S11316A0E20FF11DE20FF11D80819181892B21F45C
S11316B08E859F85918380832F5FEECF03B1F6B033
S11316C099B010E0DDCFDE01A40FB51F91960D9007
S11316D0BC91A02D4C91DE01A20FB31F51962C9109
S11316E0422369F691838083CACFCDB7DEB7EDE09C
S11316F00C945D0FEF92FF920F931F93CF93DF93A0
S1131700FC019B01F0907C0000917A0047B118B174
S113171080917A0086FDFCCF80E09085891748F49B
S1131720D901A80FB11DA80FB11D1D921C928F5F86
S1131730F4CF97B182A18095892387B998B182A10A
S11317408095892388B987E880937A00E12C81A168
S1131750E81610F0E12C29C050E08085581718F5E0
S1131760A52FB0E0EF01CA0FDB1F89898064809345
S11317707C0080917A00806480937A0080917A0062
S113178086FDFCCF6091780070917900AA0FBB1F91
S1131790A20FB31F8D919C911197860F971F8D9364
S11317A09C935F5FDACFE394D2CF8085E816A0F4F0
S11317B0E901CE0DD11DCE0DD11D61A170E0CB018B
S11317C095958795A881B9818A0F9B1F0E94C50EA4
S11317D079836883E394E9CFF0927C0000937A00E4
S11317E018B947B9CDB7DEB7E6E00C94640FA0E2B0
S11317F0B0E0EDEFFBE00C94470F8C017B01D42E9D
S11318008FEF840F823018F4C8010E94390AD8017E
S113181050968C91B701811110C0C8010E94A20A90
S1131820C8010E94240AB2E0DB123AC0BE016F5F15
S11318307F4FC8010E94A20A0FC0C8010E947A0B00
S1131840C8010E94240AE2E0DE122AC0BE016F5FD2
S11318507F4FC8010E947A0B40E0F8018085481749
S1131860F8F4842F90E0880F991FF701E80FF91F0F
S113187021E030E02C0F3D1F820F931FD8011E96EC
S11318802D913C911F97DC018D919C91281B390B64
S113189080819181820F931F918380834F5FDDCF7D
S11318A0A096E7E00C94630F2F923F925F926F92A1
S11318B07F928F929F92AF92BF92CF92DF92EF92DC
S11318C0FF920F931F93CF93DF93CDB7DEB7C0562C
S11318D0D1090FB6F894DEBF0FBECDBF8C014B010A
S11318E05A01522EDA018D919C91892B31F0F40129
S11318F080819181892BF1F424C0D80118968C91B0
S113190090E0880F991F0E94790FF50191838083DD
S1131910009709F4B1C0FC0120E030E0D80118962A
S11319208C9190E02817390714F7119211922F5FC8
S11319303F4FF4CFE12CF12C6E01B1E2CB0ED11C60
S113194021C0F801808590E0880F991F0E94790FCB
S1131950D4018D939C93009709F48EC0FC0120E080
S113196030E0D80118968C9190E02817390714F7C5
S1131970D8011E968D919C911F97819391932F5F0F
S11319803F4FEFCF452DBE016F5B7F4FC8010E94D3
S1131990F70BF8016084712CFE01EF5BFF4FC60169
S11319A09E012F5F3F4F190120E030E026153705D7
S11319B04CF5E114F10489F0DC016D917C914081D6
S11319C051816417750748F0D1016D917C91408174
S11319D051814617570748F00DC040815181DC0101
S11319E04D935C93E114F10479F740815181D10165
S11319F04D935C932F5F3F4FB2E02B0E311C329618
S1131A000296D4CFEFEFEE1AFE0AFAE0EF16F104D5
S1131A1009F0B8CF9E012F5F3F4F7901360180E076
S1131A2090E0F801208530E0821793072CF5D70168
S1131A302D913D917D01B3016C197D09D501ED9185
S1131A40FC91E60FF71F408151814217530710F4B0
S1131A5031832083F301219131913F01D401ED9130
S1131A60FC91E60FF71F408151812417350710F4CC
S1131A70318320830196D5CFC05ADF4F0FB6F89437
S1131A80DEBF0FBECDBFDF91CF911F910F91FF90AD
S1131A90EF90DF90CF90BF90AF909F908F907F900A
S1131AA06F905F903F902F9008951F93CF93DF9393
S1131AB0EC01162F8FEF860F823018F0662359F051
S1131AC014C021E0AE014E5F5F4FBE01CE010E9403
S1131AD0540C123051F4AE014A5F5F4FBE016C5F8B
S1131AE07F4F20E0CE010E94540CDF91CF911F91D3
S1131AF00895A0E0B0E0EFE7FDE00C94450FEC01A1
S1131B008B01B42E842F8D7F51F48C819D81892B80
S1131B1009F497C08E819F81892B09F492C08FEFBD
S1131B208B0D823050F488819981892B09F489C006
S1131B308A819B81892B09F484C04B2DB801CE0185
S1131B400E94F70B780100E010E0C12CD12C8885AD
S1131B5090E0C816D9060CF074C081E0B8120AC02F
S1131B60EA81FB81E00FF11F0190F081E02DA88153
S1131B70B9810DC08C819D812E813F81B1100CC033
S1131B80F901E00FF11F0190F081E02DDC01A00FBD
S1131B90B11F8D919C9128C0FC01E00FF11F408181
S1131BA05181E881F981E00FF11F80819181EE85F7
S1131BB0FF854817590710F4CF0104C08E0F9F1FEB
S1131BC0841B950BD901A00FB11F2D913C91AA81C3
S1131BD0BB81A00FB11F4D915C912417350720F0F4
S1131BE0E40FF51FE21BF30BE81BF90BA9F0D70177
S1131BF02D913C9140E050E0281B390B41095109DB
S1131C00A8EEB3E00E94290F9F0140E050E00E943B
S1131C10FB0E37FD0AC002C020E030E0293EB3E0ED
S1131C203B072CF028EE33E002C020E030E0F7015F
S1131C30219331937F01FFEFCF1ADF0A0E5F1F4F0D
S1131C4086CFCDB7DEB7E9E00C94610FA0E0B0E039
S1131C50ECE2FEE00C943C0FEC018B01822E0E941E
S1131C60790D2884E801412C512C320100E010E068
S1131C70C12CD12C7601312C912C58EEA52E53E099
S1131C80B52E921421F1E991F991882021F0C50132
S1131C908E1B9F0BFC01E93CF10524F4E333F105B1
S1131CA074F002C033243394DF01A30192010E9433
S1131CB0340FC60ED71EE81EF91E0E0F1F1F939475
S1131CC098EE490E93E0591E611C711CDACF311055
S1131CD01EC0492D50E04150510924EF31E0429F8C
S1131CE0C001439F900D529F900D11242091B1018A
S1131CF03091B20128173907B4F088EE93E0489F79
S1131D009001499F300D589F300D11240EC0980149
S1131D1040E050E0C701B6010E94D90E3093B201F1
S1131D202093B10102C020E030E0C901CDB7DEB795
S1131D30E2E10C94580FCF93DF93EC018A819B81ED
S1131D40009711F00E940E108E819F81009711F070
S1131D500E940E1088819981009711F00E940E1044
S1131D608C819D81009711F00E940E10DF91CF911C
S1131D700895991B79E004C0991F961708F0961BE3
S1131D80881F7A95C9F780950895AA1BBB1B51E15A
S1131D9007C0AA1FBB1FA617B70710F0A61BB70BD7
S1131DA0881F991F5A95A9F780959095BC01CD017C
S1131DB00895A1E21A2EAA1BBB1BFD010DC0AA1F88
S1131DC0BB1FEE1FFF1FA217B307E407F50720F0A0
S1131DD0A21BB30BE40BF50B661F771F881F991F1B
S1131DE01A9469F760957095809590959B01AC0164
S1131DF0BD01CF010895052E97FB1EF400940E94A7
S1131E00120F57FD07D00E94D90E07FC03D04EF4E1
S1131E100C94120F50954095309521953F4F4F4F9C
S1131E205F4F089590958095709561957F4F8F4F82
S1131E309F4F0895A29FB001B39FC001A39F700D4F
S1131E40811D1124911DB29F700D811D1124911DBE
S1131E5008950E941A0FA59F900DB49F900DA49F02
S1131E60800D911D11240895B7FF0C94290F0E9431
S1131E70290F821B930B08952F923F924F925F92EA
S1131E806F927F928F929F92AF92BF92CF92DF9286
S1131E90EF92FF920F931F93CF93DF93CDB7DEB7EB
S1131EA0CA1BDB0B0FB6F894DEBF0FBECDBF09947F
S1131EB02A88398848885F846E847D848C849B84D6
S1131EC0AA84B984C884DF80EE80FD800C811B81E4
S1131ED0AA81B981CE0FD11D0FB6F894DEBF0FBE13
S1131EE0CDBFED010895EE0FFF1F0590F491E02D95
S1131EF00994CF93DF938230910510F482E090E04F
S1131F00E091BB01F091BC0120E030E0C0E0D0E002
S1131F10309711F14081518148175907C0F0481793
S1131F20590761F482819381209719F09B838A83F6
S1131F302BC09093BC018093BB0126C021153105B1
S1131F4019F04217530718F49A01BE01DF01EF019B
S1131F500280F381E02DDCCF2115310509F1281B26
S1131F60390B2430310590F412968D919C9113977E
S1131F706115710521F0FB019383828304C0909362
S1131F80BC018093BB01FD01329644C0FD01E20F08
S1131F90F31F81939193225031092D933C933AC0BE
S1131FA02091B9013091BA01232B41F42091100101
S1131FB0309111013093BA012093B90120910E019F
S1131FC030910F012115310541F42DB73EB74091F1
S1131FD0120150911301241B350BE091B901F091CA
S1131FE0BA01E217F307A0F42E1B3F0B2817390799
S1131FF078F0AC014E5F5F4F2417350748F04E0F61
S11320005F1F5093BA014093B9018193919302C029
S1132010E0E0F0E0CF01DF91CF9108950F931F939B
S1132020CF93DF93009709F48CC0FC01329713829D
S113203012820091BB011091BC010115110581F4BC
S113204020813181820F931F2091B9013091BA010F
S11320502817390779F5F093BA01E093B90171C0F3
S1132060D80140E050E0AE17BF0750F412962D910E
S11320703C911397AD012115310509F1D901F3CF35
S11320809D01DA013383228360817181860F971F5A
S11320908217930769F4EC0128813981260F371FD1
S11320A02E5F3F4F318320838A819B819383828378
S11320B0452B29F4F093BC01E093BB0142C0139675
S11320C0FC93EE931297ED01499159919E01240FCF
S11320D0351FE217F30771F480819181840F951FF6
S11320E0029611969C938E938281938113969C936E
S11320F08E931297E0E0F0E0D80112968D919C91B6
S11321001397009719F0F8018C01F6CF8D919C91EB
S113211098012E5F3F4F820F931F2091B901309198
S1132120BA012817390769F4309729F41092BC01D1
S11321301092BB0102C0138212821093BA01009361
S1132140B901DF91CF911F910F91089510E0C6E579
S1132150D0E004C0FE010E94730F2196C735D10759
S1092160C9F7F894FFCF5B
S113216688130F00F4010400D007040108020000DC
S1132176BD012000200000010203040506FF9C01A6
S1132186B501CF01EA0107022602470269028E025F
S1132196B502DE020A030E0F1011126D56005072BC
S11321A6657373204200476F21006D73006D7320C1
S10521B64500DE
S9030000FC
