S01000006B61646169312D322E737265638A
S11300000C9439000C9456000C9456000C94560031
S11300100C9456000C9456000C9456000C94560004
S11300200C9456000C94C6070C9456000C9456007D
S11300300C9456000C9457040C9456000C945600DF
S11300400C9456000C9456000C9456000C945600D4
S11300500C9456000C9456000C9456000C945600C4
S11300600C9456000C9456003E6733323E3E633384
S1130070320011241FBECFEFD8E0DEBFCDBF11E0A8
S1130080A0E0B1E0E4EEF1E102C005900D92AA33E4
S1130090B107D9F721E0AAE3B1E001C01D92A5366A
S11300A0B207E1F70E9458000C94F0080C94000089
S11300B088E690E00E94B9040E94C20586E291E0BD
S11300C00E94D10580E10E941C070E94C2058EE2B5
S11300D091E00E94D10588EE93E00E940E08C0E0F2
S11300E0D0E010E001E00E94C2050E949D01BC0125
S11300F080E090E00E94260680E10E94C3078823E6
S1130100E9F060E070E080E090E00E94DC06D1114C
S11301100DC04AE062E370E080E40E94A80484E336
S113012091E00E94D105C12FD02F1CC04AE062E3A8
S113013070E08CE30E94A804C12F02C0D1110CC04E
S113014087E391E00E94D10564E170E082E390E0EE
S11301500E94DC06D12F1BC084E391E00E94D105EC
S1130160C43138F46CE370E08CE390E00E94DC0668
S1130170CF5F8CEE8C0F823138F46CE370E08AE050
S113018090E00E94DC06CF5FC63209F4C12F8EE1F5
S113019090E00E940E08A7CFECE7F0E080818F7D0D
S11301A080830895811103C00E94CC00089580913A
S11301B07C00806280937C00089580917C0085FBA4
S11301C0882780F908950E94DD00882321F080911A
S11301D0790090E0089580917800909179000895D5
S11301E08032A0F497E890937A0090917C00662383
S11301F011F0906C02C09F779064907E982B90933E
S11302007C0080917A00806480937A000895A0E055
S1130210B0E0EDE0F1E00C94C308EB0160E00E9473
S1130220F00080917A0086FDFCCF8E01C12CD12C88
S1130230760180917A00806480937A0080917A00BC
S113024086FDFCCF0E94E300C80ED91EE11CF11C00
S1130250015011090115110561F7CE019695879595
S1130260C034D10538F48C0D9D1DBE010E94550883
S1130270CB010EC0A7019601280F391F411D511D46
S1130280CA01B9019E0140E050E00E946908C90119
S1130290CDB7DEB7E8E00C94DF08CF92DF92EF929F
S11302A0FF92A0910001B09101019C010E94AA0853
S11302B06B017C010E94DD00882359F0C701B6015F
S11302C061587F4F8F4F9F4F2FEF30E040E050E059
S11302D00AC0C701B60161507E4F8F4F9F4F2FEF69
S11302E033E040E050E00E946908C901FF90EF90BC
S11302F0DF90CF9008950E9407010E944D01089558
S11303001F93CF93DF930E94DD00182F0E94CC002F
S11303106AE070E086E00E947B01EC01812F0E947C
S1130320D200CE01880F991F8C0F9D1F01969695C0
S11303308795DF91CF911F9108950E9480010895C0
S113034090913F01E0913A01F0913B01992311F022
S1130350849101C080812FEB280F2A3110F4805E34
S11303600895803249F49F012F5F3F4F30933B0142
S113037020933A01EF2B31F708951F93CF93DF9326
S11303800E94A001C0E0D0E01AE090ED980F9A30EE
S1130390B8F49E01129FE001139FD00D1124C80FE1
S11303A0D11D87FDDA95E09780913A0190913B0148
S11303B0019690933B0180933A010E94A001E5CFFE
S11303C0CE01DF91CF911F91089510926F0083E2C7
S11303D08093800081E1809381001092820080E10B
S11303E097E2909389008093880010928B0010927A
S11303F08A00229A789408958F929F92AF92BF9226
S1130400DF92EF92FF920F931F93CF93DF935C01E0
S11304108B01D42E80913C01811105C081E0809331
S11304203C010E94E50110920B01B7FE05C0E8945F
S1130430B7F82AE0F22E02C0FF24F394E090810082
S11304402E2D287FE22E48ECF49EC00111248A153B
S11304509B05E0F4E50151E1A51657E2B50610F05D
S1130460C0E1D7E2BE017695679580E090E06058E0
S1130470794687469F4F4E01A12CB12CA5019401CA
S11304800E94690859018E2D816024C0C8E2FC9E37
S1130490C02D1124D0E0CA15DB0508F4E501BE0126
S11304A0769567959E0140E050E08AE0F81207C017
S11304B080E090E0605E734481449F4F06C080E01A
S11304C090E060537D4E8C4E9F4F0E946908590105
S11304D08E2D8260882E2AE0F21207C0CE01059686
S11304E06AE070E00E945508EB01C83E43E0D4077F
S11304F059F09801DE010E94AA0828EE33E040E09A
S113050050E00E948B08890110926F008092810054
S1130510B0928900A09288002091880030918900CF
S11305204D2D403108F04FE080E190E0841B9109AB
S1130530A90102C0569547958A95E2F750938B001E
S113054040938A00109342010093410186B38FEFD8
S113055086BB81E080936F00DF91CF911F910F9153
S1130560FF90EF90DF90BF90AF909F908F90089591
S1130570CF93DF93EB018F3F11F0411105C040E0B1
S1130580BE0188EE93E043C0813130F050EF580F44
S1130590503618F05FE501C050E0852F6CE00E94F2
S11305A04908682F74EF760390011124250F311D3B
S11305B02C30310540F4F901EE0FFF1FE25FFE4FCE
S11305C02081318102C020E030E0873081F0082EA4
S11305D002C0220F331F0A94E2F7823028F0C901C7
S11305E005966AE070E00CC0C90190580CC0C901BE
S11305F036E0880F991F3A95E1F7029665E070E0BE
S11306000E945508CB01403108F04FE0BE010E9422
S1130610FC01DF91CF910895A2E0B0E0E2E1F3E0C4
S11306200C94BB0890900A0180913E01882321F02C
S113063060913D01611117C077247394B0ECAB2E27
S1130640BDE5BB2E1AE0612E04E0802E80EDC82E9D
S113065087E0D82E94E0E92EF12C04EF11E02FE08E
S1130660422E512C15C070E040E088EE93E00E94C9
S1130670FC0110923D0117C18636D4F5813609F488
S1130680A9C07CF58C3309F460C08E3381F4939453
S11306900E94A00120913A0130913B012F5F3F4F0E
S11306A030933B0120933A01853631F752C08132B1
S11306B009F08BC080920A01D0920901C09208010E
S11306C0F0920701E09206011093050100930401E2
S11306D0509203014092020110923E01A4E09A2E2E
S11306E0D7CF8336A1F10CF478C010E082E077C054
S11306F08D36C1F194F4873691F174F18C3609F09A
S113070064C00E94BD01BC0190930701809306015F
S1130710809108019091090151C08237C9F14CF4CC
S11307208F3609F052C00E94BD01982E80930A01B1
S1130730AFCF843781F1863709F047C00E94BD01ED
S11307409093030180930201A3CF9A94A1CF10E068
S113075020C010E084E043C010E085E040C010E019
S113076087E03DC00E94A0018C3619F410923E012E
S113077004C070923E0110923D0120913A013091E3
S11307803B012F5F3F4F30933B0120933A0180CFD1
S113079011E080E024C00E94BD01BC01C5010E949B
S11307A05508669EC001679E900D1124909309011F
S11307B08093080160910601709107010E94550819
S11307C0709305016093040163CF10923B01109272
S11307D03A0169C010E089E002C010E08BE0082F04
S11307E09CE0999E000D11240E94A001982F977FF0
S11307F0933261F420913A0130913B012F5F3F4FD6
S113080030933B0120933A010F5FEECF8D3271F4A8
S113081020913A0130913B012F5F3F4F30933B01D0
S113082020933A0101500E94A001F0CF609104018D
S1130830709105018153883050F4E0900801F090E4
S113084009010E94BD01BC01C7010E9455087B013A
S1130850F694E79469837A830E94A00169817A817E
S11308608E3269F420913A0130913B012F5F3F4F62
S113087030933B0120933A016E0D7F1DE9CF8091A7
S11308803E01882339F09B013695279520933D013D
S1130890621B710940910201112311F08FEF01C015
S11308A0802F0E94B8022296E0E10C94D7081F9290
S11308B00F920FB60F9211242F933F934F935F9390
S11308C06F937F938F939F93AF93BF93EF93FF9314
S11308D080914101909142019C0121503109309352
S11308E0420120934101892B11F510926F007894F5
S11308F080918100887F81608093810080E197E20C
S1130900909389008093880010928B0010928A0043
S113091081E080930B0180913A0190913B01892BF6
S113092031F080914001811102C00E940C03FF91BB
S1130930EF91BF91AF919F918F917F916F915F9153
S11309404F913F912F910F900FBE0F901F901895CC
S11309500E94B802089510926F0090933B01809317
S11309603A0181E080933F0110923D010E940C0303
S113097008950E94AB04089581E090E06F9364E0D1
S11309806A95F1F76F910197C9F708950F931F9333
S1130990CF93DF931AB157985A98289AC0E0D0E0C1
S11309A00E94BC045C9A0E94BC0409B15C980E9439
S11309B0BC045C9A0E94BC045C98249607FF10C097
S11309C0AE0160E070E08091430190914401A091F8
S11309D04501B0914601481759076A077B0700F3A0
S11309E01AB9DF91CF911F910F91089595B1282FD6
S11309F0217030E0220F331F482F467068E0469F75
S1130A00A0011124242B9D7C292B25B99BB188702E
S1130A108295807F9F77892B8BB95C9A0E94BC0456
S1130A205C980E94BC040895A0E0B0E0EAE1F5E01F
S1130A300C94C408C82FD62EE42E80916101811134
S1130A4005C081E0809361010E945A050E94C6049A
S1130A5014B1D5B1FAB00BB12898DD2011F05A9A2F
S1130A6001C05A9894B1926394B9579A81E0E816F8
S1130A7029F08C2F82958F700E94F6048C2F8F7032
S1130A800E94F604FAB80BB914B9D5B9CDB7DEB7DC
S1130A90E7E00C94E00842E060E00E941405089549
S1130AA042E061E00E941405089541E060E00E9484
S1130AB01405089580E197E2A0E0B0E0809343013B
S1130AC090934401A0934501B0934601529A209A11
S1130AD0549A8EE190E00E940E0883E00E9455052E
S1130AE086E090E00E940E0883E00E94550582E0B3
S1130AF090E00E940E0883E00E94550582E090E099
S1130B000E940E0882E00E94550582E090E00E9457
S1130B100E0888E20E944B0588E00E944B0581E0A4
S1130B200E944B0586E00E944B058CE00E944B0519
S1130B30089581E00E944B058091490190914A01FA
S1130B40892BF9F060E0A0E2262F30E070910C01CF
S1130B5080910D0190E00197789FA001799F500D3D
S1130B601124241735074CF4E0914901F0914A010E
S1130B70E20FF31FA0836F5FE7CF1092470110923B
S1130B80480108950E9499050895CF93DF93EC01DD
S1130B908991882319F00E945005FACFDF91CF91F3
S1130BA008950E94C5050895AAE0B0E0EAEDF5E0D5
S1130BB00C94C3081AE05AE0C52ED12CE12CF12C78
S1130BC0062FA70196010E946908CA01B9011150B4
S1130BD0E1E0F0E0EC0FFD1FE10FF11D005D2AE004
S1130BE0629F001911240083611571058105910527
S1130BF039F71A3058F4E1E0F0E0EC0FFD1FE10F93
S1130C00F11D80810E9450051F5FF3CF2A96E8E012
S1130C100C94DF08CF92DF92EF92FF926B017C017C
S1130C2097FF0BC0F094E094D094C094C11CD11CE5
S1130C30E11CF11C8DE20E945005C701B6010E941F
S1130C40D405FF90EF90DF90CF9008950E940A069C
S1130C500895883058F491E001C0990F8A95EAF715
S1130C60892FAAE2B0E0EBE2F0E021C08E3060F41C
S1130C7098EF980F81E001C0880F9A95EAF7A4E2F3
S1130C80B0E0E5E2F0E013C0853160F492EF980F34
S1130C9081E001C0880F9A95EAF7A7E2B0E0E8E2A4
S1130CA0F0E005C080E0A0E0B0E0E0E0F0E06F3FFD
S1130CB019F49081982709C0662319F09081982B24
S1130CC004C02081982F9095922390839C91982B17
S1130CD09C93089583EF8093B00084BD82E0809359
S1130CE0B10085BD1092B4001092B30018BC17BCBB
S1130CF060E086E00E94290660E085E00E94290603
S1130D0060E08BE00E94290660E083E00E942906EF
S1130D10089580916201811105C081E08093620190
S1130D200E946A060895CF93DF93EC010E9489061E
S1130D30D7FF05C0D195C195D10981E001C080E0FC
S1130D40CF3FD10519F014F0CFEFD0E0882319F08C
S1130D5018BCC7BD02C0C8BD17BCDF91CF910895B0
S1130D60CF93DF93EC010E948906D7FF05C0D1958C
S1130D70C195D10981E001C080E0CF3FD10519F0D0
S1130D8014F0CFEFD0E0882329F01092B400C09380
S1130D90B30004C0C093B4001092B300DF91CF91AC
S1130DA00895CF93DF93EB010E949306CE010E9436
S1130DB0B006DF91CF9108950E94D106089584B1C1
S1130DC08D7C84B985B1826385B985E090E06F93A9
S1130DD064E06A95F1F76F910197C9F708958091DE
S1130DE06301811105C081E0809363010E94DF06E5
S1130DF008951F93CF93DF93182F0E94EF06C12FFE
S1130E00D0E023B130E0209530952C233D23232BD3
S1130E10C1F38AE090E00E940E0823B130E02095EF
S1130E2030952C233D23232B61F383B180958123BB
S1130E30DF91CF911F9108950E94F9060895A4E0CF
S1130E40B0E0E5E2F7E00C94C608182FF3B0F09494
S1130E500E94460869837A838B839C830E94EF06F1
S1130E602091560169817A818B819C81213009F11D
S1130E7038F0223009F453C0233009F463C07EC033
S1130E80212F30E04F2D50E04095509524233523F9
S1130E90232B09F473C0F094F122F092550160936E
S1130EA0510170935201809353019093540181E056
S1130EB063C000915101109152012091530130916E
S1130EC05401DC01CB01801B910BA20BB30B0F97D8
S1130ED0A105B10508F452C0409155018F2D90E051
S1130EE080959095242F30E082239323892BA1F0C1
S1130EF082E080935601F094F422F09255013EC0B2
S1130F0030E0812F90E04F2D50E0409550958423A0
S1130F1095232817390791F1109256012FC020917B
S1130F2055013F2D322361F323E020935601309382
S1130F305501609351017093520180935301909332
S1130F4054011CC000915101109152012091530190
S1130F5030915401DC01CB01801B910BA20BB30B2C
S1130F600F97A105B10550F0809155018F2119F01B
S1130F701092560104C082E08093560180E02496CA
S1130F80E5E00C94E2080E941F0708952F928F93C6
S1130F909F932FB680915E0190915F01019680939B
S1130FA05E0190935F0190E080916001891F8093BE
S1130FB06001909158019C5F909358018091570172
S1130FC080519742C0F090935801809357018091CB
S1130FD0590190915A0101968093590190935A01B5
S1130FE090E080915B01891F80935B0180915C019B
S1130FF0891F80935C012FBE9F918F912F9018952C
S113100028EE33E0019748F0F9016F9364E06A95A4
S1131010F1F76F913197C9F7F5CF08950E94000851
S11310200895E0E7F0E080818E7F8083A0EBB0E05C
S11310308C9183608C93A1EBB0E08C91807F8C9336
S11310408C9182608C93B89A80818160808378943B
S1131050089580916401811105C081E08093640149
S11310600E94110808950E942908E0E7F0E08081B9
S11310708E7F80836091590170915A0180915B0148
S113108090915C0120812160208308950E9433089F
S11310900895991B79E004C0991F961708F0961BD0
S11310A0881F7A95C9F780950895AA1BBB1B51E147
S11310B007C0AA1FBB1FA617B70710F0A61BB70BC4
S11310C0881F991F5A95A9F780959095BC01CD0169
S11310D00895A1E21A2EAA1BBB1BFD010DC0AA1F75
S11310E0BB1FEE1FFF1FA217B307E407F50720F08D
S11310F0A21BB30BE40BF50B661F771F881F991F08
S11311001A9469F760957095809590959B01AC0150
S1131110BD01CF010895052E97FB1EF400940E9493
S1131120A20857FD07D00E94690807FC03D04EF4BB
S11311300C94A20850954095309521953F4F4F4F00
S11311405F4F089590958095709561957F4F8F4F6F
S11311509F4F0895A29FB001B39FC001A39F700D3C
S1131160811D1124911DB29F700D811D1124911DAB
S113117008952F923F924F925F926F927F928F9237
S11311809F92AF92BF92CF92DF92EF92FF920F9312
S11311901F93CF93DF93CDB7DEB7CA1BDB0B0FB61C
S11311A0F894DEBF0FBECDBF09942A8839884888D9
S11311B05F846E847D848C849B84AA84B984C8846F
S11311C0DF80EE80FD800C811B81AA81B981CE0F66
S11311D0D11D0FB6F894DEBF0FBECDBFED0108954B
S10711E0F894FFCFAD
S11311E488130F00F4010400D007040108029C01D1
S11311F4B501CF01EA0107022602470269028E0201
S1131204B502DE020A0357414954494E4700535478
S10D1214415254002053002043000F
S9030000FC
