S01600003370692D6D617A65736F6C7665722E737265638D
S11300000C9456000C9473000C9473000C947300BD
S11300100C9473000C9473000C9473000C94730090
S11300200C9473000C94780B0C9473000C94730070
S11300300C9473000C946A070C9473000C94730072
S11300400C9473000C9473000C9473000C94730060
S11300500C9473000C9473000C9473000C94730050
S11300600C9473000C947300000000000000001F47
S11300701F1F1F1F1F1F4C31362063646567726585
S11300806734003E6733323E3E63333200736F6C35
S1130090766572004D617A650033F720526F626FA6
S11300A0740020506F6C6F6C7500520C11241FBECD
S11300B0CFEFD8E0DEBFCDBF11E0A0E0B1E0E8EDC6
S11300C0F6E202C005900D92AE35B107D9F722E0F1
S11300D0AEE5B1E001C01D92AA33B207E1F70E9478
S11300E078020C945F130C94000060E088E690E0C2
S11300F00E94AB0861E089E690E00E94AB0862E0F0
S11301008AE690E00E94AB0863E08BE690E00E94F0
S1130110AB0864E08CE690E00E94AB0865E08DE6F5
S113012090E00E94AB0866E08EE690E00E94AB0887
S11301300C941E09BF92CF92DF92EF92FF920F931D
S11301401F93CF93DF93CDB7DEB72A970FB6F894FA
S1130150DEBF0FBECDBF8C017C018AE0E80EF11C2E
S11301608AE0B82E95E6C92ED12CE4E1F1E0DE0157
S113017011968B2D01900D928A95E1F7F8018191EA
S113018091918F01B6010E946A11E1E0F0E0EC0F59
S1130190FD1FE60FF71F80810E94AE080E151F0594
S11301A021F72A960FB6F894DEBF0FBECDBFDF91BC
S11301B0CF911F910F91FF90EF90DF90CF90BF9060
S11301C008952F923F924F925F926F927F928F92F7
S11301D09F92AF92BF92CF92DF92EF92FF920F93D2
S11301E01F93CF93DF93CDB7DEB72A970FB6F8945A
S11301F0DEBF0FBECDBFC12CD12C7601A12CB12CFA
S113020060E1462E67E2562E612C712C74E1272E94
S1130210312CECE38E2E912C61E0CE0101960E94EC
S1130220180C8C01005D1740C801012E000CAA0BAC
S1130230BB0BC80ED91EEA1EFB1EC701B601A301E3
S113024092010E94B411F801EA19FB09CF01880F49
S1130250991F8E0F9F1F97FD019695958795280FDF
S1130260391FC801B1010E947E11C901860F971F71
S11302708D3391056CF4843C2FEF92071CF097FDAD
S113028003C008C084EC9FEF6CE370E0CC9607C019
S11302908CE390E0B401681B790B8CE390E00E943E
S11302A06C0A8B819C818436910550F48D819E81EA
S11302B08436910528F48F8198858436910560F001
S11302C089819A81893C910538F489859A85893C8C
S11302D0910510F45801A0CF2A960FB6F894DEBF0A
S11302E00FBECDBFDF91CF911F910F91FF90EF9083
S11302F0DF90CF90BF90AF909F908F907F906F9042
S11303005F904F903F902F900895EF92FF920F933C
S11303101F93CF93DF93CDB7DEB72A970FB6F89428
S1130320DEBF0FBECDBF80ED97E00E944E0C0E9451
S1130330750082EA90E00E943E0961E080E00E943C
S1130340B60989E990E00E943E0983E890E00E94A2
S1130350EB0788EE93E00E94C00B0E941E0984E91B
S113036090E00E943E0961E080E00E94B6098DE8B9
S113037090E00E943E0988EE93E00E94C00B00E0EA
S113038010E082E00E94560B882311F081E00827D8
S11303900E941E090E94B0047C010130110559F429
S11303A00E94750BBC01990F880B990B0E9493094D
S11303B08BE391E008C0BC01990F880B990B0E9454
S11303C093098FE391E00E942D0961E080E00E948F
S11303D0B6098DE5E81682E1F8061CF082E491E0A6
S11303E002C08BE491E00E942D0980E20E94AF0AD2
S11303F081110AC080E10E94AF0A811109C08AE01C
S113040090E00E94C00BBDCF90E2E92EF12C03C016
S113041080E1E82EF12C88EE93E00E94C00B0CEEF4
S11304201FEF0832110528F068ED7FEF88E290E0B5
S113043004C068E270E088ED9FEF0E946C0A81E0DE
S11304400E94120C84E190E00E94C00B0F5F1F4FCA
S11304500C33110531F760E070E080E090E00E9419
S11304606C0A80E10E94AF0A882389F080E10E942F
S11304709B0A80E20E949B0A0E941E0984E591E087
S11304800E942D0986E790E00E94EB071FC080E2DE
S11304900E94AF0A8111EACF61E0CE0101960E9469
S11304A0180C8C010E941E09B80180E090E00E94A3
S11304B0930961E080E00E94B609CE0101960E9492
S11304C09A0084E690E00E94C00BCBCF0E94CA073A
S11304D08111FCCFC7012A960FB6F894DEBF0FBE78
S11304E0CDBFDF91CF911F910F91FF90EF900895B1
S11304F00E9485010E94F902FFCFE091CD01F0E056
S1130500E253FE4F10820E941E098EEC91E00E947D
S11305102D098091CD01893040F061E080E00E9496
S1130520B60986ED91E00C942D090895203131052A
S113053039F481110BC061110DC0442369F008C066
S1130540411106C0611106C0882331F08CE408957E
S113055082E5089583E5089582E408954091CD01EC
S1130560433008F445C0242F30E022533E4FF901B4
S1130570329780818234E1F5F90161E070E080E036
S113058090E052915C3451F0523529F0523441F4E8
S11305908C549F4F05C0865A9F4F02C0825F9E4F66
S11305A06F5F7F4F6430710561F768E671E00E9408
S11305B07E118A35910589F034F4892BB1F4F9015F
S11305C0339783E511C0843B910559F08E309140F7
S11305D061F4F90133978CE407C0F901339782E59C
S11305E003C0F901339782E4808342504093CD01E4
S11305F00895CF93DF93CDB7DEB72B970FB6F8945A
S1130600DEBF0FBECDBF7C010E94E10062E370E05B
S113061082E390E00E946C0A82E390E00E94C00BA7
S113062061E0CE0101960E94180C11E089819A8143
S11306308536910508F410E041E089859A85853670
S1130640910508F440E068E270E088E290E04B87AE
S11306500E946C0A88EC90E00E94C00B61E0CE011D
S113066001960E94180C8B819C814B85893C9105D5
S113067060F48D819E81893C9105A8F48F819885D1
S1130680893C910580F460E00FC08935924058F0B0
S11306908D819E818935924030F08F81988589358E
S11306A0924008F044C061E09701812F0E949602B5
S11306B0182F0E94C0039091CD01E92FF0E0E2537E
S11306C0FE4F10839F5F9093CD010E94AE020E9463
S11306D07D029ACF0E94E10062E370E082E390E041
S11306E00E946C0A82E390E00E94C00B68E270E012
S11306F088E290E00E946C0A88EC90E00E94C00BB3
S1130700C80182539E4F7C01FC0180818C3419F412
S113071082E50E94C003F7018081823519F48CE4DC
S11307200E94C00301501109A8F60E94E10060E094
S113073070E080E090E00E946C0A88E591E00E94FD
S1130740DA0788EE93E00E94C00B64E170E084E174
S113075090E00E946C0A8CE291E00E94C00B82E45B
S11307600E94C00360E070E080E090E00E946C0AA8
S113077088EE93E00E94C00B0091CD0110E0AACF57
S11307808C3469F0823581F08234C1F460EB7FEF00
S113079080E590E00E946C0A80E991E00DC060E57C
S11307A070E080EB9FEF04C060EB7FEF80E590E0AA
S11307B00E946C0A88EC90E00C94C00B0895ECE75E
S11307C0F0E080818F7D80830895811103C00E94B1
S11307D0DF03089580917C00806280937C000895FB
S11307E080917C0085FB882780F908950E94F0039E
S11307F0882321F08091790090E008958091780019
S11308009091790008958032A0F497E890937A004B
S113081090917C00662311F0906C02C09F779064E5
S1130820907E982B90937C0080917A0080648093D2
S11308307A000895A0E0B0E0E0E2F4E00C94FF1147
S1130840EB0160E00E94030480917A0086FDFCCFF6
S11308508E01C12CD12C760180917A008064809322
S11308607A0080917A0086FDFCCF0E94F603C80EC0
S1130870D91EE11CF11C015011090115110561F784
S1130880CE0196958795C034D10538F48C0D9D1D05
S1130890BE010E946A11CB010EC0A7019601280F68
S11308A0391F411D511DCA01B9019E0140E050E0AC
S11308B00E949211C901CDB7DEB7E8E00C941B1277
S11308C0CF92DF92EF92FF92A0910001B0910101CB
S11308D09C010E94D3116B017C010E94F0038823C8
S11308E059F0C701B60161587F4F8F4F9F4F2FEFCB
S11308F030E040E050E00AC0C701B60161507E4FCD
S11309008F4F9F4F2FEF33E040E050E00E94921151
S1130910C901FF90EF90DF90CF9008950E941A04D0
S11309200E94600408951F93CF93DF930E94F00305
S1130930182F0E94DF036AE070E086E00E948E04B4
S1130940EC01812F0E94E503CE01880F991F8C0FC3
S11309509D1F019696958795DF91CF911F910895DC
S11309600E949304089590916301E0915E01F091D7
S11309705F01992311F0849101C080812FEB280F2E
S11309802A3110F4805E0895803249F49F012F5F6C
S11309903F4F30935F0120935E01EF2B31F70895B1
S11309A01F93CF93DF930E94B304C0E0D0E01AE01A
S11309B090ED980F9A30B8F49E01129FE001139FB6
S11309C0D00D1124C80FD11D87FDDA95E0978091D1
S11309D05E0190915F01019690935F0180935E01A7
S11309E00E94B304E5CFCE01DF91CF911F9108950A
S11309F010926F0083E28093800081E180938100F4
S1130A001092820080E197E290938900809388009D
S1130A1010928B0010928A00229A789408958F92F3
S1130A209F92AF92BF92DF92EF92FF920F931F9328
S1130A30CF93DF935C018B01D42E809160018111EF
S1130A4005C081E0809360010E94F80410920B01BC
S1130A50B7FE05C0E894B7F82AE0F22E02C0FF24DE
S1130A60F394E09081002E2D287FE22E48ECF49E32
S1130A70C00111248A159B05E0F4E50151E1A51696
S1130A8057E2B50610F0C0E1D7E2BE01769567954E
S1130A9080E090E06058794687469F4F4E01A12C34
S1130AA0B12CA50194010E94921159018E2D8160EF
S1130AB024C0C8E2FC9EC02D1124D0E0CA15DB0579
S1130AC008F4E501BE01769567959E0140E050E08B
S1130AD08AE0F81207C080E090E0605E73448144CD
S1130AE09F4F06C080E090E060537D4E8C4E9F4F38
S1130AF00E94921159018E2D8260882E2AE0F212F2
S1130B0007C0CE0105966AE070E00E946A11EB010D
S1130B10C83E43E0D40759F09801DE010E94D31186
S1130B2028EE33E040E050E00E94B41189011092B5
S1130B306F0080928100B0928900A0928800209179
S1130B408800309189004D2D403108F04FE080E15C
S1130B5090E0841B9109A90102C0569547958A9596
S1130B60E2F750938B0040938A0010936601009340
S1130B70650186B38FEF86BB81E080936F00DF91C0
S1130B80CF911F910F91FF90EF90DF90BF90AF90A6
S1130B909F908F900895CF93DF93EB018F3F11F0D7
S1130BA0411105C040E0BE0188EE93E043C08131AD
S1130BB030F050EF580F503618F05FE501C050E0A8
S1130BC0852F6CE00E945E11682F74EF760390010C
S1130BD01124250F311D2C30310540F4F901EE0F9D
S1130BE0FF1FE25EFE4F2081318102C020E030E031
S1130BF0873081F0082E02C0220F331F0A94E2F7D7
S1130C00823028F0C90105966AE070E00CC0C90181
S1130C1090580CC0C90136E0880F991F3A95E1F746
S1130C20029665E070E00E946A11CB01403108F041
S1130C304FE0BE010E940F05DF91CF910895A2E01D
S1130C40B0E0E5E2F6E00C94F71190900A0180918F
S1130C506201882321F060916101611117C077243A
S1130C607394B0ECAB2EBDE5BB2E1AE0612E04E00C
S1130C70802E80EDC82E87E0D82E94E0E92EF12C4A
S1130C8004EF11E02FE0422E512C15C070E040E03B
S1130C9088EE93E00E940F051092610117C1863619
S1130CA0D4F5813609F4A9C07CF58C3309F460C00D
S1130CB08E3381F493940E94B30420915E013091A9
S1130CC05F012F5F3F4F30935F0120935E018536B4
S1130CD031F752C0813209F08BC080920A01D09260
S1130CE00901C0920801F0920701E09206011093F5
S1130CF005010093040150920301409202011092F5
S1130D006201A4E09A2ED7CF8336A1F10CF478C007
S1130D1010E082E077C08D36C1F194F4873691F10A
S1130D2074F18C3609F064C00E94D004BC01909325
S1130D30070180930601809108019091090151C037
S1130D408237C9F14CF48F3609F052C00E94D004A6
S1130D50982E80930A01AFCF843781F1863709F04A
S1130D6047C00E94D0049093030180930201A3CF53
S1130D709A94A1CF10E020C010E084E043C010E0BA
S1130D8085E040C010E087E03DC00E94B3048C368B
S1130D9019F41092620104C0709262011092610110
S1130DA020915E0130915F012F5F3F4F30935F01CF
S1130DB020935E0180CF11E080E024C00E94D00423
S1130DC0BC01C5010E946A11669EC001679E900D18
S1130DD01124909309018093080160910601709198
S1130DE007010E946A11709305016093040163CFA7
S1130DF010925F0110925E0169C010E089E002C0A8
S1130E0010E08BE0082F9CE0999E000D11240E94B5
S1130E10B304982F977F933261F420915E0130914F
S1130E205F012F5F3F4F30935F0120935E010F5F9F
S1130E30EECF8D3271F420915E0130915F012F5F0E
S1130E403F4F30935F0120935E0101500E94B30431
S1130E50F0CF60910401709105018153883050F402
S1130E60E0900801F09009010E94D004BC01C70180
S1130E700E946A117B01F694E79469837A830E9445
S1130E80B30469817A818E3269F420915E013091D4
S1130E905F012F5F3F4F30935F0120935E016E0D22
S1130EA07F1DE9CF80916201882339F09B0136953B
S1130EB0279520936101621B71094091020111235E
S1130EC011F08FEF01C0802F0E94CB052296E0E144
S1130ED00C9413121F920F920FB60F9211242F939A
S1130EE03F934F935F936F937F938F939F93AF93AE
S1130EF0BF93EF93FF9380916501909166019C01EC
S1130F00215031093093660120936501892B11F535
S1130F1010926F00789480918100887F8160809323
S1130F20810080E197E29093890080938800109279
S1130F308B0010928A0081E080930B0180915E0106
S1130F4090915F01892B31F080916401811102C07D
S1130F500E941F06FF91EF91BF91AF919F918F91D6
S1130F607F916F915F914F913F912F910F900FBEA1
S1130F700F901F90189580910B01882349F081E010
S1130F8020915E0130915F01232B19F480E00895D4
S1130F9081E008950E94BB07089510926F0090931A
S1130FA05F0180935E0110926301109261010E94BF
S1130FB01F0608950E94CD07089510926F00909324
S1130FC05F0180935E0181E080936301109261016F
S1130FD00E941F0608950E94DD07089581E090E0B5
S1130FE06F9364E06A95F1F76F910197C9F70895DB
S1130FF00F931F93CF93DF931AB157985A98289A57
S1131000C0E0D0E00E94EE075C9A0E94EE0709B1AE
S11310105C980E94EE075C9A0E94EE075C98249606
S113102007FF10C0AE0160E070E08091670190910D
S11310306801A0916901B0916A01481759076A07CC
S11310407B0700F31AB9DF91CF911F910F91089597
S113105095B1282F217030E0220F331F482F46709E
S113106068E0469FA0011124242B9D7C292B25B9DF
S11310709BB188708295807F9F77892B8BB95C9A0E
S11310800E94EE075C980E94EE070895A0E0B0E08D
S1131090ECE4F8E00C940012C82FD62EE42E8091D4
S11310A03202811105C081E0809332020E94B608A9
S11310B00E94F80714B1D5B1FAB00BB12898DD201D
S11310C011F05A9A01C05A9894B1926394B9579AFC
S11310D081E0E81629F08C2F82958F700E942808F1
S11310E08C2F8F700E942808FAB80BB914B9D5B99F
S11310F0CDB7DEB7E7E00C941C1242E060E00E943A
S11311004608089542E061E00E9446080895A1E07F
S1131110B0E0EDE8F8E00C9401128C01660F660F64
S1131120660FE12CF12C8E2D860F806469830E945A
S11311307D08F801EE0DFF1D84910E9482088FEF57
S1131140E81AF80A6981E8E0EE16F10461F72196DD
S1131150E6E00C941D120E94870808950E948208FC
S1131160089541E060E00E944608089580E197E216
S1131170A0E0B0E08093670190936801A0936901B7
S1131180B0936A01529A209A549A8EE190E00E9498
S1131190C00B83E00E94B10886E090E00E94C00B7F
S11311A083E00E94B10882E090E00E94C00B83E0DB
S11311B00E94B10882E090E00E94C00B82E00E948D
S11311C0B10882E090E00E94C00B88E20E947D0892
S11311D088E00E947D0881E00E947D0886E00E94EC
S11311E07D088CE00E947D08089581E00E947D08BE
S11311F080916D0190916E01892BF9F060E0A0E27D
S1131200262F30E070910C0180910D0190E0019740
S1131210789FA001799F500D1124241735074CF4B1
S1131220E0916D01F0916E01E20FF31FA0836F5FF7
S1131230E7CF10926B0110926C0108950E94F5089B
S11312400895CF93DF93EC018991882319F00E94CC
S11312508208FACFDF91CF9108950E942109089561
S1131260CF93DF93EC01FE018491882321F00E9447
S113127082082196F8CFDF91CF9108950E9430091A
S11312800895AAE0B0E0E7E4F9E00C94FF111AE055
S11312905AE0C52ED12CE12CF12C062FA701960182
S11312A00E949211CA01B9011150E1E0F0E0EC0F83
S11312B0FD1FE10FF11D005D2AE0629F001911245A
S11312C00083611571058105910539F71A3058F4C9
S11312D0E1E0F0E0EC0FFD1FE10FF11D80810E94C1
S11312E082081F5FF3CF2A96E8E00C941B12CF927A
S11312F0DF92EF92FF926B017C0197FF0BC0F09499
S1131300E094D094C094C11CD11CE11CF11C8DE26A
S11313100E948208C701B6010E944109FF90EF9024
S1131320DF90CF9008950E9477090895A5E0B0E07A
S1131330ECE9F9E00C940412182F80E8898380EC1E
S11313408A8384E98B8384ED8C83FE01E60FF11D8F
S11313508181810F6D830E947D0810936B016D81E3
S113136060936C012596E3E00C9420120E94960988
S11313700895883058F491E001C0990F8A95EAF7EE
S1131380892FAAE2B0E0EBE2F0E021C08E3060F4F5
S113139098EF980F81E001C0880F9A95EAF7A4E2CC
S11313A0B0E0E5E2F0E013C0853160F492EF980F0D
S11313B081E001C0880F9A95EAF7A7E2B0E0E8E27D
S11313C0F0E005C080E0A0E0B0E0E0E0F0E06F3FD6
S11313D019F49081982709C0662319F09081982BFD
S11313E004C02081982F9095922390839C91982BF0
S11313F09C93089583EF8093B00084BD82E0809332
S1131400B10085BD1092B4001092B30018BC17BC93
S113141060E086E00E94B90960E085E00E94B909B5
S113142060E08BE00E94B90960E083E00E94B909A2
S1131430089580913302811105C081E080933302C5
S11314400E94FA090895CF93DF93EC010E94190AD0
S1131450D7FF05C0D195C195D10981E001C080E0D5
S1131460CF3FD10519F014F0CFEFD0E0882319F065
S113147018BCC7BD02C0C8BD17BCDF91CF91089589
S1131480CF93DF93EC010E94190AD7FF05C0D195D1
S1131490C195D10981E001C080E0CF3FD10519F0A9
S11314A014F0CFEFD0E0882329F01092B400C09359
S11314B0B30004C0C093B4001092B300DF91CF9185
S11314C00895CF93DF93EB010E94230ACE010E947B
S11314D0400ADF91CF9108950E94610A089584B172
S11314E08D7C84B985B1826385B985E090E06F9382
S11314F064E06A95F1F76F910197C9F708958091B7
S11315003402811105C081E0809334020E946F0A85
S11315100895CF93C82F0E947F0A83B18C23E9F3E7
S11315208AE090E00E94C00B83B18C23B1F383B1B5
S11315308C23CF9108950E94890A0895A1E0B0E018
S1131540E4EAFAE00C94051289830E947F0A93B1BD
S11315509095898189232196E2E00C9421120E94BE
S11315609E0A0895A4E0B0E0E8EBFAE00C940212BD
S1131570182FF3B0F0940E94F80B69837A838B835D
S11315809C830E947F0A20917A0169817A818B81F0
S11315909C81213009F138F0223009F453C0233002
S11315A009F463C07EC0212F30E04F2D50E04095F8
S11315B0509524233523232B09F473C0F094F1228E
S11315C0F0927901609375017093760180937701AD
S11315D09093780181E063C00091750110917601C8
S11315E02091770130917801DC01CB01801B910BB4
S11315F0A20BB30B0F97A105B10508F452C040919B
S113160079018F2D90E080959095242F30E08223EE
S11316109323892BA1F082E080937A01F094F42241
S1131620F09279013EC030E0812F90E04F2D50E0E0
S113163040955095842395232817390791F11092EA
S11316407A012FC0209179013F2D322361F323E0E9
S113165020937A0130937901609375017093760138
S113166080937701909378011CC0009175011091CB
S113167076012091770130917801DC01CB01801B48
S1131680910BA20BB30B0F97A105B10550F08091FC
S113169079018F2119F010927A0104C082E08093BD
S11316A07A0180E02496E5E00C941E120E94B20AAE
S11316B00895A2E0B0E0EFE5FBE00C940512809100
S11316C03602909137029E012F5F3F4F009719F425
S11316D02A53324002C0281B390B3A83298389815B
S11316E09A812296E2E00C9421120E94590B0895EB
S11316F02F928F939F932FB68091820190918301B3
S11317000196809382019093830190E080918401FB
S1131710891F8093840190917C019C5F90937C014C
S113172080917B0180519742C0F090937C0180931B
S11317307B0180917D0190917E01019680937D01D2
S113174090937E0190E080917F01891F80937F01B7
S113175080918001891F809380012FBE9F918F917A
S11317602F90189528EE33E0019748F0F9016F9314
S113177064E06A95F1F76F913197C9F7F5CF089551
S11317800E94B20B0895E0E7F0E080818E7F8083B1
S1131790A0EBB0E08C9183608C93A1EBB0E08C91D2
S11317A0807F8C938C9182608C93B89A80818160C5
S11317B080837894089580913502811105C081E079
S11317C0809335020E94C30B08950E94DB0BE0E76F
S11317D0F0E080818E7F808360917D0170917E0135
S11317E080917F0190918001208121602083089560
S11317F00E94E50B08950E94DB0BE0E7F0E0808196
S11318008E7F808310927D0110927E0110927F0161
S11318101092800110927C0110927B018081816082
S113182080830895682F85E891E00E94FA0F089557
S1131830462F20E0BC0185E891E00E94CB1008957A
S11318400F93CF93DF9300D000D01F92CDB7DEB7B4
S11318509C0185E0E6E3F1E0DE01119601900D9232
S11318608A95E1F7662311F00FEF01C003E145E02B
S1131870BE016F5F7F4F85E891E00E94F20C85E81E
S113188091E00E94C90C0E94FB0B0F900F900F90E7
S11318900F900F90DF91CF910F91089560E00E9417
S11318A0200C089585E891E00E94401108956F93FB
S11318B064E06A95F1F76F910197C9F70895FC0107
S11318C01182108213821282158214821682683069
S11318D068F489E290E0918380838BE290E09383C3
S11318E082838AE290E0958384831FC06E3070F413
S11318F083E290E09183808385E290E09383828306
S113190084E290E09583848368500FC0653198F435
S113191086E290E09183808388E290E093838283DF
S113192087E290E0958384836E5081E001C0880F44
S11319306A95EAF786830895A7E0B0E0E2EAFCE05E
S11319400C9403128C01FC01118210821382128206
S11319501582148217821682613118F080E1808723
S113196002C0FC016087F801208B642FCE01019630
S11319700E945F0C8F81F80181878B819C81938702
S113198082878D819E81958784872796E4E00C94D5
S11319901F12FC01A485B585109779F08C9191856F
S11319A0892B8C93A285B3859C918185809589230D
S11319B08C9388EC90E00E94570C0895FC01A48558
S11319C0B585109771F08C919185892B8C93A285A4
S11319D0B3858C919185892B8C9388EC90E00E943F
S11319E0570C0895A7E0B0E0E8EFFCE00C94F81180
S11319F07C014B01642F3901402F20E00E949C0C94
S1131A0087010F5B1F4FF80110826701F2E4CF0ECC
S1131A10D11CF60110825701F3E4AF0EB11CF5019D
S1131A201082F70177866686512CF7018085581657
S1131A3050F5652C712CF401E60DF71D6081CE0183
S1131A4001960E945F0C2F81F701E60DF71D218B93
S1131A5089819A81F301EE0FFF1FEE0DFF1D92A302
S1131A6081A38332910511F4F80108C086329105EF
S1131A7011F4F60103C0899721F4F5018081822BCA
S1131A8080835394D2CF2796EFE00C941412A0E0F5
S1131A90B0E0EDE4FDE00C94FA11EC015B016C01A3
S1131AA081E4C80ED11CF60180807E01F2E4EF0EC1
S1131AB0F11CF70170808E010D5B1F4FF8019080BF
S1131AC080E09885891748F4F501E80FF11DE80FC7
S1131AD0F11D118210828F5FF4CF84B1F6019081E1
S1131AE0892B84B987B1F7019081892B87B98AB191
S1131AF0F8019081892B8AB985B1F6019081892BEF
S1131B0085B988B1F7019081892B88B98BB1F80127
S1131B109081892B8BB98AE090E00E94570C94B194
S1131B20F60180818095892384B997B1F70180817A
S1131B308095892387B99AB1F8018081809589239A
S1131B408AB995B1F60180818095892385B998B1C8
S1131B50F70180818095892388B99BB1F801808140
S1131B60809589238BB9E090B000D090B10080912A
S1131B70B00083608093B00082E08093B100409114
S1131B80B20080E090E02E853F858217930720F510
S1131B90C090B2002C2D241B820F911D03B108119B
S1131BA032C0F6B0F7102FC029B129112CC010C0D3
S1131BB0212F30E0A901440F551FF501E40FF51F53
S1131BC060817181672B21F11F5F2885121780F3D3
S1131BD07F2C802E4C2DD7CFE092B000D092B10054
S1131BE020E08885281730F5F501E20FF11DE20F9A
S1131BF0F11D80819181892B21F48E859F859183AC
S1131C0080832F5FEECF03B1F6B099B010E0DDCF43
S1131C10DE01A40FB51F91960D90BC91A02D4C919F
S1131C20DE01A20FB31F51962C91422369F69183D2
S1131C308083CACFCDB7DEB7EDE00C941612EF92D5
S1131C40FF920F931F93CF93DF93FC019B01F090BE
S1131C507C0000917A0047B118B180917A0086FD2A
S1131C60FCCF80E09085891748F4D901A80FB11DF5
S1131C70A80FB11D1D921C928F5FF4CF97B182A162
S1131C808095892387B998B182A18095892388B9E1
S1131C9087E880937A00E12C81A1E81610F0E12C0A
S1131CA029C050E08085581718F5A52FB0E0EF0142
S1131CB0CA0FDB1F8989806480937C0080917A003D
S1131CC0806480937A0080917A0086FDFCCF6091D5
S1131CD0780070917900AA0FBB1FA20FB31F8D91DA
S1131CE09C911197860F971F8D939C935F5FDACF1A
S1131CF0E394D2CF8085E816A0F4E901CE0DD11D7E
S1131D00CE0DD11D61A170E0CB0195958795A88179
S1131D10B9818A0F9B1F0E946A1179836883E394B7
S1131D20E9CFF0927C0000937A0018B947B9CDB797
S1131D30DEB7E6E00C941D12A0E2B0E0E2EAFEE0B9
S1131D400C9400128C017B01D42E8FEF840F82300F
S1131D5018F4C8010E94DE0CD80150968C91B7018A
S1131D60811110C0C8010E94470DC8010E94C90C0E
S1131D70B2E0DB123AC0BE016F5F7F4FC8010E9420
S1131D80470D0FC0C8010E941F0EC8010E94C90C54
S1131D90E2E0DE122AC0BE016F5F7F4FC8010E94DD
S1131DA01F0E40E0F80180854817F8F4842F90E076
S1131DB0880F991FF701E80FF91F21E030E02C0F7D
S1131DC03D1F820F931FD8011E962D913C911F97A2
S1131DD0DC018D919C91281B390B80819181820FAC
S1131DE0931F918380834F5FDDCFA096E7E00C942F
S1131DF01C122F923F925F926F927F928F929F92CA
S1131E00AF92BF92CF92DF92EF92FF920F931F9304
S1131E10CF93DF93CDB7DEB7C056D1090FB6F89490
S1131E20DEBF0FBECDBF8C014B015A01522EDA0129
S1131E308D919C91892B31F0F40180819181892BC2
S1131E40F1F424C0D80118968C9190E0880F991F62
S1131E500E943212F50191838083009709F4B1C086
S1131E60FC0120E030E0D80118968C9190E028170E
S1131E70390714F7119211922F5F3F4FF4CFE12CE1
S1131E80F12C6E01B1E2CB0ED11C21C0F80180858A
S1131E9090E0880F991F0E943212D4018D939C9375
S1131EA0009709F48EC0FC0120E030E0D8011896B8
S1131EB08C9190E02817390714F7D8011E968D915C
S1131EC09C911F97819391932F5F3F4FEFCF452DA7
S1131ED0BE016F5B7F4FC8010E949C0EF8016084B5
S1131EE0712CFE01EF5BFF4FC6019E012F5F3F4F38
S1131EF0190120E030E0261537054CF5E114F10412
S1131F0089F0DC016D917C914081518164177507E2
S1131F1048F0D1016D917C9140815181461757075A
S1131F2048F00DC040815181DC014D935C93E11474
S1131F30F10479F740815181D1014D935C932F5F76
S1131F403F4FB2E02B0E311C32960296D4CFEFEF06
S1131F50EE1AFE0AFAE0EF16F10409F0B8CF9E017A
S1131F602F5F3F4F7901360180E090E0F801208532
S1131F7030E0821793072CF5D7012D913D917D0117
S1131F80B3016C197D09D501ED91FC91E60FF71FA2
S1131F90408151814217530710F431832083F301A8
S1131FA0219131913F01D401ED91FC91E60FF71F8E
S1131FB0408151812417350710F431832083019621
S1131FC0D5CFC05ADF4F0FB6F894DEBF0FBECDBFDA
S1131FD0DF91CF911F910F91FF90EF90DF90CF9001
S1131FE0BF90AF909F908F907F906F905F903F9045
S1131FF02F9008951F93CF93DF93EC01162F8FEF4B
S1132000860F823018F0662359F014C021E0AE0127
S11320104E5F5F4FBE01CE010E94F90E123051F4A3
S1132020AE014A5F5F4FBE016C5F7F4F20E0CE017F
S11320300E94F90EDF91CF911F910895A0E0B0E0C6
S1132040E4E2F0E10C94FE11EC018B01B42E842F38
S11320508D7F51F48C819D81892B09F497C08E81E9
S11320609F81892B09F492C08FEF8B0D823050F43D
S113207088819981892B09F489C08A819B81892B64
S113208009F484C04B2DB801CE010E949C0E780146
S113209000E010E0C12CD12C888590E0C816D90648
S11320A00CF074C081E0B8120AC0EA81FB81E00F31
S11320B0F11F0190F081E02DA881B9810DC08C81C0
S11320C09D812E813F81B1100CC0F901E00FF11FF9
S11320D00190F081E02DDC01A00FB11F8D919C9146
S11320E028C0FC01E00FF11F40815181E881F98192
S11320F0E00FF11F80819181EE85FF854817590714
S113210010F4CF0104C08E0F9F1F841B950BD901BF
S1132110A00FB11F2D913C91AA81BB81A00FB11FCB
S11321204D915C912417350720F0E40FF51FE21B55
S1132130F30BE81BF90BA9F0D7012D913C9140E07A
S113214050E0281B390B41095109A8EEB3E00E9465
S1132150E2119F0140E050E00E94B41137FD0AC033
S113216002C020E030E0293EB3E03B072CF028EE2B
S113217033E002C020E030E0F701219331937F0186
S1132180FFEFCF1ADF0A0E5F1F4F86CFCDB7DEB742
S1132190E9E00C941A12A0E0B0E0E1EDF0E10C9457
S11321A0F511EC018B01822E0E941E102884E80197
S11321B0412C512C320100E010E0C12CD12C7601CD
S11321C0312C912C58EEA52E53E0B52E921421F10A
S11321D0E991F991882021F0C5018E1B9F0BFC0128
S11321E0E93CF10524F4E333F10574F002C033242F
S11321F03394DF01A30192010E94ED11C60ED71E94
S1132200E81EF91E0E0F1F1F939498EE490E93E0DB
S1132210591E611C711CDACF31101EC0492D50E0CB
S11322204150510924EF31E0429FC001439F900D7A
S1132230529F900D11242091C9013091CA01281791
S11322403907B4F088EE93E0489F9001499F300D20
S1132250589F300D11240EC0980140E050E0C70192
S1132260B6010E9492113093CA012093C90102C0A1
S113227020E030E0C901CDB7DEB7E2E10C941112E1
S1132280CF93DF93EC018A819B81009711F00E9428
S1132290C7128E819F81009711F00E94C712888116
S11322A09981009711F00E94C7128C819D8100973B
S11322B011F00E94C712DF91CF910895991B79E024
S11322C004C0991F961708F0961B881F7A95C9F7C2
S11322D080950895AA1BBB1B51E107C0AA1FBB1F11
S11322E0A617B70710F0A61BB70B881F991F5A959E
S11322F0A9F780959095BC01CD01089597FB072E11
S113230016F4009407D077FD09D00E946A1107FCE7
S113231005D03EF4909581959F4F089570956195F1
S11323207F4F0895A1E21A2EAA1BBB1BFD010DC00D
S1132330AA1FBB1FEE1FFF1FA217B307E407F50771
S113234020F0A21BB30BE40BF50B661F771F881F4D
S1132350991F1A9469F760957095809590959B01E3
S1132360AC01BD01CF010895052E97FB1EF4009426
S11323700E94CB1157FD07D00E94921107FC03D095
S11323804EF40C94CB1150954095309521953F4FC8
S11323904F4F5F4F089590958095709561957F4F4D
S11323A08F4F9F4F0895A29FB001B39FC001A39F79
S11323B0700D811D1124911DB29F700D811D11247A
S11323C0911D08950E94D311A59F900DB49F900D67
S11323D0A49F800D911D11240895B7FF0C94E21160
S11323E00E94E211821B930B08952F923F924F9209
S11323F05F926F927F928F929F92AF92BF92CF9291
S1132400DF92EF92FF920F931F93CF93DF93CDB799
S1132410DEB7CA1BDB0B0FB6F894DEBF0FBECDBF11
S113242009942A88398848885F846E847D848C84E2
S11324309B84AA84B984C884DF80EE80FD800C81EB
S11324401B81AA81B981CE0FD11D0FB6F894DEBFCE
S11324500FBECDBFED010895EE0FFF1F0590F4915F
S1132460E02D0994CF93DF938230910510F482E03C
S113247090E0E0913802F091390220E030E0C0E0D1
S1132480D0E0309711F14081518148175907C0F0CD
S11324904817590761F482819381209719F09B832F
S11324A08A832BC0909339028093380226C0211569
S11324B0310519F04217530718F49A01BE01DF01E0
S11324C0EF010280F381E02DDCCF2115310509F104
S11324D0281B390B2430310590F412968D919C9170
S11324E013976115710521F0FB019383828304C066
S11324F09093390280933802FD01329644C0FD0165
S1132500E20FF31F81939193225031092D933C9351
S11325103AC02091360230913702232B41F42091A6
S1132520100130911101309337022093360220912B
S11325300E0130910F012115310541F42DB73EB73D
S11325404091120150911301241B350BE091360286
S1132550F0913702E217F307A0F42E1B3F0B281764
S1132560390778F0AC014E5F5F4F2417350748F008
S11325704E0F5F1F5093370240933602819391931D
S113258002C0E0E0F0E0CF01DF91CF9108950F9316
S11325901F93CF93DF93009709F48CC0FC0132970B
S11325A0138212820091380210913902011511052B
S11325B081F420813181820F931F20913602309162
S11325C037022817390779F5F0933702E09336027A
S11325D071C0D80140E050E0AE17BF0750F4129626
S11325E02D913C911397AD012115310509F1D901C4
S11325F0F3CF9D01DA013383228360817181860FD9
S1132600971F8217930769F4EC0128813981260FFB
S1132610371F2E5F3F4F318320838A819B819383B1
S11326208283452B29F4F0933902E093380242C0A7
S11326301396FC93EE931297ED01499159919E01E3
S1132640240F351FE217F30771F480819181840F01
S1132650951F029611969C938E9382819381139673
S11326609C938E931297E0E0F0E0D80112968D913E
S11326709C911397009719F0F8018C01F6CF8D9176
S11326809C9198012E5F3F4F820F931F2091360239
S1132690309137022817390769F4309729F41092DA
S11326A039021092380202C0138212821093370248
S11326B000933602DF91CF911F910F91089510E09E
S11326C0C5E5D0E004C0FE010E942C122196C63557
S10B26D0D107C9F7F894FFCF0C
S11326D888130F00F4010400D00704010802000065
S11326E83A022000200000010203040506FF9C01B1
S11326F8B501CF01EA0107022602470269028E02E8
S1132708B502DE020A030E0F1011126D656D006D1D
S113271856005072657373204243005265706C61B1
S111272863652100476F21003E3E613332009D
S9030000FC
