:100000000C9459000C9476000C9476000C947600B5
:100010000C9476000C9476000C9476000C94760088
:100020000C9476000C94720B0C9476000C94760071
:100030000C9476000C943A080C9476000C9476009C
:100040000C9476000C9476000C9476000C94760058
:100050000C9476000C9476000C9476000C94760048
:100060000C9476000C947600000000000000001F45
:100070001F1F1F1F1F1F4C31362063646567726589
:100080006734003E6733323E3E63333200666F6C46
:100090006C6F77657200504944204C696E6500337F
:1000A000F720526F626F740020506F6C6F6C750098
:1000B0004F0C11241FBECFEFD8E0DEBFCDBF11E043
:1000C000A0E0B1E0E2EDF6E202C005900D92A035AD
:1000D000B107D9F721E0A0E5B1E001C01D92AB3B2B
:1000E000B207E1F70E94A6010C945C130C94000087
:1000F00060E088E690E00E946B0961E089E690E0AC
:100100000E946B0962E08AE690E00E946B0963E05E
:100110008BE690E00E946B0964E08CE690E00E9420
:100120006B0965E08DE690E00E946B0966E08EE663
:1001300090E00E946B090E94DE090895CF92DF9241
:10014000FF920F931F93CF93DF93CDB7DEB72A971C
:100150000FB6F894DEBF0FBECDBF8C016C018AE0F4
:10016000C80ED11C0F2EFAE0FF2EF02DE4E1F1E0D5
:10017000DE0111968F2D01900D928A95E1F7F8011D
:10018000219131918F01A7E4B4E10E94D01196959D
:1001900087959695879596958795E1E0F0E0EC0F29
:1001A000FD1FE80FF91F80810E946E090C151D05C7
:1001B000E9F62A960FB6F894DEBF0FBECDBFDF91E9
:1001C000CF911F910F91FF90DF90CF9008950F93E3
:1001D0001F93CF93DF93CDB7DEB72A970FB6F8946E
:1001E000DEBF0FBECDBF80ED97E00E944B0C0E949A
:1001F000780088EA90E00E94FE0961E080E00E94B9
:10020000760A8FE990E00E94FE0983E890E00E9460
:10021000AB0888EE93E00E94BA0B0E94DE0986E9E3
:1002200090E00E94FE0961E080E00E94760A8DE87D
:1002300090E00E94FE0988EE93E00E94BA0B1BC07A
:100240000E9480058C010E94DE09B801110F880B05
:10025000990B0E94530A8BE391E00E94ED0961E043
:1002600080E00E94760A8EE391E00E94ED0984E628
:1002700090E00E94BA0B80E10E946F0B882301F38B
:1002800080E10E945B0B88EE93E00E94BA0B0CEEBB
:100290001FEF0832110538F068ED7FEF88E290E03B
:1002A0000E942C0B06C068E270E088ED9FEF0E9470
:1002B0002C0B81E00E940F0C84E190E00E94BA0BAD
:1002C0000F5F1F4F0C33110521F760E070E080E0F5
:1002D00090E00E942C0B19C061E0CE0101960E94B3
:1002E000150C8C010E94DE09B80180E090E00E94AC
:1002F000530A61E080E00E94760ACE0101960E94D6
:100300009E0084E690E00E94BA0B80E10E946F0B91
:10031000882311F380E10E945B0B0E94DE0986E4D2
:1003200091E00E94ED0986E790E00E94AB080E94F0
:100330009A088111FCCF2A960FB6F894DEBF0FBE43
:10034000CDBFDF91CF911F910F910895CF93DF9390
:10035000CDB7DEB762970FB6F894DEBF0FBECDBF44
:100360000E94E7000E940C0C1B861C861D861E86C0
:10037000E12CF12C812C912C540100E010E00F2E87
:10038000F0E14F2EF7E25F2E612C712CF02D0F2E35
:10039000F4E12F2E312CF02D6AC061E0CE010196E0
:1003A0000E94150C805D97406C01092E000CAA0B71
:1003B000BB0B880E991EAA1EBB1EC501B401A3016A
:1003C00092010E94B1112F87388B498B5A8BC6013D
:1003D000B1010E947B112F853889260F371FC60176
:1003E000801B910BAC01440F551F840F951F99235F
:1003F0000CF4019695958795280F391F2D333105FB
:1004000014F02CE330E08901043C2FEF120714F4C0
:1004100004EC1FEF11233CF46CE370E0C801CC96B0
:100420000E942C0B08C06CE370E0601B710B8CE326
:1004300090E00E942C0BB801110F880B990B0E94C1
:10044000B60320E030E44CE156E40E940C039B012B
:10045000AC016B857C858D859E850E94A0026B8793
:100460007C878D879E878FEFE81AF80A86010E94A5
:10047000F20B603177428105910508F48ECF60E080
:1004800070E080E090E00E942C0BB701FF0C880B1D
:10049000990B0E94B6039B01AC016B857C858D8511
:1004A0009E850E940C034B015C0120E030E44CE18E
:1004B00056E40E9442040E947E036B017C0120E00E
:1004C00034E244E759E4C501B4010E9442044B01FF
:1004D0005C0124E62C9DC0012D9D900D1124BC01D2
:1004E000990F880B990B0E94B6039B01AC01C501C3
:1004F000B4010E949F020E947E038B01772324F4A3
:1005000000271127061B170B0E94DE09B601DD0C20
:10051000880B990B0E94530A0A3011052CF48AE4C7
:1005200091E00E94ED0904C08DE491E00E94ED0984
:10053000B801110F880B990B0E94530AFFCF505836
:10054000BB27AA270E94B7020C9408040E94FA0352
:1005500038F00E94010420F039F49F3F19F426F48A
:100560000C94F7030EF4E095E7FB0C94F103E92FEC
:100570000E94190458F3BA17620773078407950796
:1005800020F079F4A6F50C943B040EF4E0950B2EC4
:10059000BA2FA02D0B01B90190010C01CA01A001D5
:1005A0001124FF27591B99F0593F50F4503E68F130
:1005B0001A16F040A22F232F342F4427585FF3CF71
:1005C000469537952795A795F0405395C9F77EF442
:1005D0001F16BA0B620B730B840BBAF09150A1F08B
:1005E000FF0FBB1F661F771F881FC2F70EC0BA0F11
:1005F000621F731F841F48F4879577956795B79599
:10060000F7959E3F08F0B0CF9395880F08F0992793
:10061000EE0F9795879508950E9420030C94080487
:100620000E94010458F00E94FA0340F029F45F3F51
:1006300029F00C94F10351110C943C040C94F70331
:100640000E94190468F39923B1F3552391F3951B84
:10065000550BBB27AA2762177307840738F09F5FE3
:100660005F4F220F331F441FAA1FA9F335D00E2E50
:100670003AF0E0E832D091505040E695001CCAF7BD
:100680002BD0FE2F29D0660F771F881FBB1F261780
:1006900037074807AB07B0E809F0BB0B802DBF0157
:1006A000FF2793585F4F3AF09E3F510578F00C9426
:1006B000F1030C943C045F3FE4F3983ED4F3869539
:1006C00077956795B795F7959F5FC9F7880F911D47
:1006D0009695879597F90895E1E0660F771F881F33
:1006E000BB1F621773078407BA0720F0621B730BE6
:1006F000840BBA0BEE1F88F7E09508950E948503DE
:100700006894B1110C943C0408950E94210488F06F
:100710009F5798F0B92F9927B751B0F0E1F0660FC5
:10072000771F881F991F1AF0BA95C9F714C0B13006
:1007300091F00E943B04B1E008950C943B04672FB4
:10074000782F8827B85F39F0B93FCCF38695779535
:100750006795B395D9F73EF490958095709561951E
:100760007F4F8F4F9F4F0895E89409C097FB3EF449
:1007700090958095709561957F4F8F4F9F4F9923EE
:10078000A9F0F92F96E9BB279395F695879577956C
:100790006795B795F111F8CFFAF4BB0F11F460FF2C
:1007A0001BC06F5F7F4F8F4F9F4F16C0882311F084
:1007B00096E911C0772321F09EE8872F762F05C098
:1007C000662371F096E8862F70E060E02AF09A9533
:1007D000660F771F881FDAF7880F9695879597F928
:1007E000089597F99F6780E870E060E008959FEFB3
:1007F00080EC089500240A941616170618060906B8
:10080000089500240A941216130614060506089586
:10081000092E0394000C11F4882352F0BB0F40F40E
:10082000BF2B11F460FF04C06F5F7F4F8F4F9F4F4E
:10083000089557FD9058440F551F59F05F3F71F0D0
:100840004795880F97FB991F61F09F3F79F0879537
:100850000895121613061406551FF2CF4695F1DFC0
:1008600008C0161617061806991FF1CF8695710550
:10087000610508940895E894BB2766277727CB0184
:1008800097F908950E9455040C9408040E94FA03F5
:1008900038F00E94010420F0952311F00C94F1032C
:1008A0000C94F70311240C943C040E94190470F377
:1008B000959FC1F3950F50E0551F629FF001729F05
:1008C000BB27F00DB11D639FAA27F00DB11DAA1F14
:1008D000649F6627B00DA11D661F829F2227B00D61
:1008E000A11D621F739FB00DA11D621F839FA00DEC
:1008F000611D221F749F3327A00D611D231F849F3C
:10090000600D211D822F762F6A2F11249F57504092
:100910009AF0F1F088234AF0EE0FFF1FBB1F661F0D
:10092000771F881F91505040A9F79E3F510580F0D6
:100930000C94F1030C943C045F3FE4F3983ED4F331
:10094000869577956795B795F795E7959F5FC1F77A
:10095000FE2B880F911D9695879597F90895ECE7E2
:10096000F0E080818F7D80830895811103C00E9413
:10097000AF04089580917C00806280937C0008958C
:1009800080917C0085FB882780F908950E94C0042F
:10099000882321F08091790090E00895809178007B
:1009A0009091790008958032A0F497E890937A00AE
:1009B00090917C00662311F0906C02C09F77906448
:1009C000907E982B90937C0080917A008064809335
:1009D0007A000895A0E0B0E0E0EFF4E00C94FC11A0
:1009E000EB0160E00E94D30480917A0086FDFCCF89
:1009F0008E01C12CD12C760180917A008064809385
:100A00007A0080917A0086FDFCCF0E94C604C80E51
:100A1000D91EE11CF11C015011090115110561F7E6
:100A2000CE0196958795C034D10538F48C0D9D1D67
:100A3000BE010E946711CB010EC0A7019601280FCD
:100A4000391F411D511DCA01B9019E0140E050E00E
:100A50000E948F11C901CDB7DEB7E8E00C941812DF
:100A6000CF92DF92EF92FF92A0910001B09101012D
:100A70009C010E94D0116B017C010E94C00488235C
:100A800059F0C701B60161587F4F8F4F9F4F2FEF2D
:100A900030E040E050E00AC0C701B60161507E4F2F
:100AA0008F4F9F4F2FEF33E040E050E00E948F11B7
:100AB000C901FF90EF90DF90CF9008950E94EA0463
:100AC0000E94300508951F93CF93DF930E94C004C6
:100AD000182F0E94AF046AE070E086E00E945E0575
:100AE000EC01812F0E94B504CE01880F991F8C0F55
:100AF0009D1F019696958795DF91CF911F9108953F
:100B00000E946305089590915501E0915001F09184
:100B10005101992311F0849101C080812FEB280F9E
:100B20002A3110F4805E0895803249F49F012F5FCE
:100B30003F4F3093510120935001EF2B31F708952F
:100B40001F93CF93DF930E948305C0E0D0E01AE0AB
:100B500090ED980F9A30B8F49E01129FE001139F18
:100B6000D00D1124C80FD11D87FDDA95E097809133
:100B70005001909151010196909351018093500141
:100B80000E948305E5CFCE01DF91CF911F9108959B
:100B900010926F0083E28093800081E18093810056
:100BA0001092820080E197E2909389008093880000
:100BB00010928B0010928A00229A789408958F9256
:100BC0009F92AF92BF92DF92EF92FF920F931F938B
:100BD000CF93DF935C018B01D42E80915201811160
:100BE00005C081E0809352010E94C80510920B015C
:100BF000B7FE05C0E894B7F82AE0F22E02C0FF2441
:100C0000F394E09081002E2D287FE22E48ECF49E94
:100C1000C00111248A159B05E0F4E50151E1A516F8
:100C200057E2B50610F0C0E1D7E2BE0176956795B0
:100C300080E090E06058794687469F4F4E01A12C96
:100C4000B12CA50194010E948F1159018E2D816054
:100C500024C0C8E2FC9EC02D1124D0E0CA15DB05DB
:100C600008F4E501BE01769567959E0140E050E0ED
:100C70008AE0F81207C080E090E0605E734481442F
:100C80009F4F06C080E090E060537D4E8C4E9F4F9A
:100C90000E948F1159018E2D8260882E2AE0F21257
:100CA00007C0CE0105966AE070E00E946711EB0173
:100CB000C83E43E0D40759F09801DE010E94D011EC
:100CC00028EE33E040E050E00E94B111890110921B
:100CD0006F0080928100B0928900A09288002091DC
:100CE0008800309189004D2D403108F04FE080E1BF
:100CF00090E0841B9109A90102C0569547958A95F9
:100D0000E2F750938B0040938A00109358010093B0
:100D1000570186B38FEF86BB81E080936F00DF9130
:100D2000CF911F910F91FF90EF90DF90BF90AF9008
:100D30009F908F900895CF93DF93EB018F3F11F039
:100D4000411105C040E0BE0188EE93E043C081310F
:100D500030F050EF580F503618F05FE501C050E00A
:100D6000852F6CE00E945B11682F74EF7603900171
:100D70001124250F311D2C30310540F4F901EE0FFF
:100D8000FF1FE25EFE4F2081318102C020E030E093
:100D9000873081F0082E02C0220F331F0A94E2F739
:100DA000823028F0C90105966AE070E00CC0C901E4
:100DB00090580CC0C90136E0880F991F3A95E1F7A9
:100DC000029665E070E00E946711CB01403108F0A7
:100DD0004FE0BE010E94DF05DF91CF910895A2E0B0
:100DE000B0E0E5EFF6E00C94F41190900A018091E8
:100DF0005401882321F060915301611117C07724B9
:100E00007394B0ECAB2EBDE5BB2E1AE0612E04E06E
:100E1000802E80EDC82E87E0D82E94E0E92EF12CAC
:100E200004EF11E02FE0422E512C15C070E040E09D
:100E300088EE93E00E94DF051092530117C18636B9
:100E4000D4F5813609F4A9C07CF58C3309F460C06F
:100E50008E3381F493940E94830520915001309148
:100E600051012F5F3F4F3093510120935001853640
:100E700031F752C0813209F08BC080920A01D092C2
:100E80000901C0920801F0920701E0920601109357
:100E90000501009304015092030140920201109257
:100EA0005401A4E09A2ED7CF8336A1F10CF478C078
:100EB00010E082E077C08D36C1F194F4873691F16D
:100EC00074F18C3609F064C00E94A005BC019093B7
:100ED000070180930601809108019091090151C09A
:100EE0008237C9F14CF48F3609F052C00E94A00538
:100EF000982E80930A01AFCF843781F1863709F0AD
:100F000047C00E94A0059093030180930201A3CFE4
:100F10009A94A1CF10E020C010E084E043C010E01C
:100F200085E040C010E087E03DC00E9483058C361C
:100F300019F41092540104C070925401109253019C
:100F400020915001309151012F5F3F4F309351015B
:100F50002093500180CF11E080E024C00E94A005C2
:100F6000BC01C5010E946711669EC001679E900D7D
:100F700011249093090180930801609106017091FA
:100F800007010E946711709305016093040163CF0C
:100F9000109251011092500169C010E089E002C026
:100FA00010E08BE0082F9CE0999E000D11240E9418
:100FB0008305982F977F933261F4209150013091EF
:100FC00051012F5F3F4F30935101209350010F5F2C
:100FD000EECF8D3271F420915001309151012F5F8D
:100FE0003F4F309351012093500101500E948305DF
:100FF000F0CF60910401709105018153883050F465
:10100000E0900801F09009010E94A005BC01C70111
:101010000E9467117B01F694E79469837A830E94AA
:10102000830569817A818E3269F420915001309173
:1010300051012F5F3F4F30935101209350016E0DAE
:101040007F1DE9CF80915401882339F09B013695AB
:10105000279520935301621B7109409102011123CE
:1010600011F08FEF01C0802F0E949B062296E0E1D5
:101070000C9410121F920F920FB60F9211242F93FF
:101080003F934F935F936F937F938F939F93AF9310
:10109000BF93EF93FF9380915701909158019C016A
:1010A000215031093093580120935701892B11F5B4
:1010B00010926F00789480918100887F8160809386
:1010C000810080E197E290938900809388001092DC
:1010D0008B0010928A0081E080930B018091500177
:1010E00090915101892B31F080915601811102C0FC
:1010F0000E94EF06FF91EF91BF91AF919F918F9169
:101100007F916F915F914F913F912F910F900FBE03
:101110000F901F90189580910B01882349F081E072
:101120002091500130915101232B19F480E0089552
:1011300081E008950E948B08089510926F009093AB
:1011400051018093500181E0809355011092530129
:101150000E94EF0608950E949D08089581E090E0A6
:101160006F9364E06A95F1F76F910197C9F708955D
:101170000F931F93CF93DF931AB157985A98289AD9
:10118000C0E0D0E00E94AE085C9A0E94AE0809B1AF
:101190005C980E94AE085C9A0E94AE085C98249607
:1011A00007FF10C0AE0160E070E08091590190919E
:1011B0005A01A0915B01B0915C01481759076A0779
:1011C0007B0700F31AB9DF91CF911F910F9108951A
:1011D00095B1282F217030E0220F331F482F467021
:1011E00068E0469FA0011124242B9D7C292B25B962
:1011F0009BB188708295807F9F77892B8BB95C9A91
:101200000E94AE085C980E94AE080895A0E0B0E08D
:10121000ECE0F9E00C94FD11C82FD62EE42E80915D
:10122000B301811105C081E08093B3010E9476096A
:101230000E94B80814B1D5B1FAB00BB12898DD20DE
:1012400011F05A9A01C05A9894B1926394B9579A7E
:1012500081E0E81629F08C2F82958F700E94E808B3
:101260008C2F8F700E94E808FAB80BB914B9D5B961
:10127000CDB7DEB7E7E00C94191242E060E00E94BF
:101280000609089542E061E00E9406090895A1E080
:10129000B0E0EDE4F9E00C94FE118C01660F660FEE
:1012A000660FE12CF12C8E2D860F806469830E94DD
:1012B0003D09F801EE0DFF1D84910E9442098FEF58
:1012C000E81AF80A6981E8E0EE16F10461F7219660
:1012D000E6E00C941A120E94470908950E94420900
:1012E000089541E060E00E940609089580E197E2D8
:1012F000A0E0B0E08093590190935A01A0935B0164
:10130000B0935C01529A209A549A8EE190E00E9428
:10131000BA0B83E00E94710986E090E00E94BA0B4C
:1013200083E00E94710982E090E00E94BA0B83E0A2
:101330000E94710982E090E00E94BA0B82E00E9454
:10134000710982E090E00E94BA0B88E20E943D0998
:1013500088E00E943D0981E00E943D0986E00E94EC
:101360003D098CE00E943D09089581E00E943D09FD
:1013700080915F0190916001892BF9F060E0A0E21B
:10138000262F30E070910C0180910D0190E00197C3
:10139000789FA001799F500D1124241735074CF434
:1013A000E0915F01F0916001E20FF31FA0836F5F96
:1013B000E7CF10925D0110925E0108950E94B50979
:1013C0000895CF93DF93EC018991882319F00E944F
:1013D0004209FACFDF91CF9108950E94E109089563
:1013E000CF93DF93EC01FE018491882321F00E94CA
:1013F00042092196F8CFDF91CF9108950E94F0091C
:101400000895AAE0B0E0E7E0FAE00C94FC111AE0DD
:101410005AE0C52ED12CE12CF12C062FA701960104
:101420000E948F11CA01B9011150E1E0F0E0EC0F08
:10143000FD1FE10FF11D005D2AE0629F00191124DC
:101440000083611571058105910539F71A3058F44B
:10145000E1E0F0E0EC0FFD1FE10FF11D80810E9443
:1014600042091F5FF3CF2A96E8E00C941812CF923E
:10147000DF92EF92FF926B017C0197FF0BC0F0941B
:10148000E094D094C094C11CD11CE11CF11C8DE2ED
:101490000E944209C701B6010E94010AFF90EF9025
:1014A000DF90CF9008950E94370A0895A5E0B0E03C
:1014B000ECE5FAE00C940112182F80E8898380ECA7
:1014C0008A8384E98B8384ED8C83FE01E60FF11D12
:1014D0008181810F6D830E943D0910935D016D81B3
:1014E00060935E012596E3E00C941D120E94560A5B
:1014F0000895883058F491E001C0990F8A95EAF771
:10150000892FAAE2B0E0EBE2F0E021C08E3060F477
:1015100098EF980F81E001C0880F9A95EAF7A4E24E
:10152000B0E0E5E2F0E013C0853160F492EF980F8F
:1015300081E001C0880F9A95EAF7A7E2B0E0E8E2FF
:10154000F0E005C080E0A0E0B0E0E0E0F0E06F3F58
:1015500019F49081982709C0662319F09081982B7F
:1015600004C02081982F9095922390839C91982B72
:101570009C93089583EF8093B00084BD82E08093B4
:10158000B10085BD1092B4001092B30018BC17BC16
:1015900060E086E00E94790A60E085E00E94790AB6
:1015A00060E08BE00E94790A60E083E00E94790AA3
:1015B00008958091B401811105C081E08093B40148
:1015C0000E94BA0A0895CF93DF93EC010E94D90AD2
:1015D000D7FF05C0D195C195D10981E001C080E058
:1015E000CF3FD10519F014F0CFEFD0E0882319F0E8
:1015F00018BCC7BD02C0C8BD17BCDF91CF9108950C
:10160000CF93DF93EC010E94D90AD7FF05C0D19593
:10161000C195D10981E001C080E0CF3FD10519F02B
:1016200014F0CFEFD0E0882329F01092B400C093DB
:10163000B30004C0C093B4001092B300DF91CF9107
:101640000895CF93DF93EB010E94E30ACE010E943D
:10165000000BDF91CF9108950E94210B089584B172
:101660008D7C84B985B1826385B985E090E06F9304
:1016700064E06A95F1F76F910197C9F70895809139
:10168000B501811105C081E08093B5010E942F0B47
:101690000895CF93C82F0E943F0B83B18C23E9F3A9
:1016A0008AE090E00E94BA0B83B18C23B1F383B13E
:1016B0008C23CF9108950E94490B0895A1E0B0E0DA
:1016C000E4E6FBE00C94021289830E943F0B93B185
:1016D0009095898189232196E2E00C941E120E9444
:1016E0005E0B08952F928F939F932FB68091680180
:1016F000909169010196809368019093690190E04F
:1017000080916A01891F80936A01909162019C5FB8
:10171000909362018091610180519742C0F0909353
:10172000620180936101809163019091640101964F
:10173000809363019093640190E080916501891F1B
:101740008093650180916601891F809366012FBE99
:101750009F918F912F90189528EE33E0019748F0D4
:10176000F9016F9364E06A95F1F76F913197C9F7CA
:10177000F5CF08950E94AC0B0895E0E7F0E080817A
:101780008E7F8083A0EBB0E08C9183608C93A1EB83
:10179000B0E08C91807F8C938C9182608C93B89A0E
:1017A000808181608083789408958091B601811151
:1017B00005C081E08093B6010E94BD0B08950E9490
:1017C000D50BE0E7F0E080818E7F8083609163013C
:1017D0007091640180916501909166012081216082
:1017E000208308950E94DF0B08950E94D50BE0E747
:1017F000F0E080818E7F80831092630110926401FB
:1018000010926501109266011092620110926101BE
:1018100080818160808308950E94F50B0895682F70
:101820008BE691E00E94F70F0895462F20E0BC015F
:101830008BE691E00E94C81008950F93CF93DF9339
:1018400000D000D01F92CDB7DEB79C0185E0E6E363
:10185000F1E0DE01119601900D928A95E1F7662381
:1018600011F00FEF01C003E145E0BE016F5F7F4F54
:101870008BE691E00E94EF0C8BE691E00E94C60C93
:101880000E94F50B0F900F900F900F900F90DF912B
:10189000CF910F91089560E00E941D0C08958BE692
:1018A00091E00E943D1108956F9364E06A95F1F70D
:1018B0006F910197C9F70895FC011182108213827C
:1018C0001282158214821682683068F489E290E0F0
:1018D000918380838BE290E0938382838AE290E01D
:1018E000958384831FC06E3070F483E290E091830F
:1018F000808385E290E09383828384E290E0958305
:10190000848368500FC0653198F486E290E091833B
:10191000808388E290E09383828387E290E09583DE
:1019200084836E5081E001C0880F6A95EAF7868350
:101930000895A7E0B0E0EFE9FCE00C9400128C0100
:10194000FC01118210821382128215821482178286
:101950001682613118F080E1808702C0FC01608747
:10196000F801208B642FCE0101960E945C0C8F81C0
:10197000F80181878B819C81938782878D819E81ED
:10198000958784872796E4E00C941C12FC01A485BB
:10199000B585109779F08C919185892B8C93A285D0
:1019A000B3859C918185809589238C9388EC90E008
:1019B0000E94540C0895FC01A485B585109771F020
:1019C0008C919185892B8C93A285B3858C9191857F
:1019D000892B8C9388EC90E00E94540C0895A7E02A
:1019E000B0E0E5EFFCE00C94F5117C014B01642FB5
:1019F0003901402F20E00E94990C87010F5B1F4F97
:101A0000F80110826701F2E4CF0ED11CF6011082BA
:101A10005701F3E4AF0EB11CF5011082F701778690
:101A20006686512CF7018085581650F5652C712C6F
:101A3000F401E60DF71D6081CE0101960E945C0C59
:101A40002F81F701E60DF71D218B89819A81F30122
:101A5000EE0FFF1FEE0DFF1D92A381A383329105B0
:101A600011F4F80108C08632910511F4F60103C0A3
:101A7000899721F4F5018081822B80835394D2CF02
:101A80002796EFE00C941112A0E0B0E0EAE4FDE04C
:101A90000C94F711EC015B016C0181E4C80ED11CC0
:101AA000F60180807E01F2E4EF0EF11CF7017080F8
:101AB0008E010D5B1F4FF801908080E0988589179B
:101AC00048F4F501E80FF11DE80FF11D11821082B5
:101AD0008F5FF4CF84B1F6019081892B84B987B1EF
:101AE000F7019081892B87B98AB1F8019081892B00
:101AF0008AB985B1F6019081892B85B988B1F70142
:101B00009081892B88B98BB1F8019081892B8BB991
:101B10008AE090E00E94540C94B1F6018081809597
:101B2000892384B997B1F70180818095892387B98A
:101B30009AB1F8018081809589238AB995B1F6011F
:101B400080818095892385B998B1F701808180953E
:101B5000892388B99BB1F8018081809589238BB94D
:101B6000E090B000D090B1008091B000836080938D
:101B7000B00082E08093B1004091B20080E090E03C
:101B80002E853F858217930720F5C090B2002C2D3B
:101B9000241B820F911D03B1081132C0F6B0F7105B
:101BA0002FC029B129112CC010C0212F30E0A9016C
:101BB000440F551FF501E40FF51F60817181672BFC
:101BC00021F11F5F2885121780F37F2C802E4C2D6A
:101BD000D7CFE092B000D092B10020E088852817DE
:101BE00030F5F501E20FF11DE20FF11D80819181C9
:101BF000892B21F48E859F85918380832F5FEECF83
:101C000003B1F6B099B010E0DDCFDE01A40FB51F2F
:101C100091960D90BC91A02D4C91DE01A20FB31FA7
:101C200051962C91422369F691838083CACFCDB718
:101C3000DEB7EDE00C941312EF92FF920F931F9317
:101C4000CF93DF93FC019B01F0907C0000917A0020
:101C500047B118B180917A0086FDFCCF80E0908575
:101C6000891748F4D901A80FB11DA80FB11D1D9205
:101C70001C928F5FF4CF97B182A18095892387B999
:101C800098B182A18095892388B987E880937A00EA
:101C9000E12C81A1E81610F0E12C29C050E08085EC
:101CA000581718F5A52FB0E0EF01CA0FDB1F89897F
:101CB000806480937C0080917A00806480937A00B5
:101CC00080917A0086FDFCCF609178007091790058
:101CD000AA0FBB1FA20FB31F8D919C911197860F66
:101CE000971F8D939C935F5FDACFE394D2CF80856B
:101CF000E816A0F4E901CE0DD11DCE0DD11D61A1D4
:101D000070E0CB0195958795A881B9818A0F9B1FBB
:101D10000E94671179836883E394E9CFF0927C0095
:101D200000937A0018B947B9CDB7DEB7E6E00C9456
:101D30001A12A0E2B0E0EFE9FEE00C94FD118C0174
:101D40007B01D42E8FEF840F823018F4C8010E94DB
:101D5000DB0CD80150968C91B701811110C0C801DD
:101D60000E94440DC8010E94C60CB2E0DB123AC0CA
:101D7000BE016F5F7F4FC8010E94440D0FC0C801B4
:101D80000E941C0EC8010E94C60CE2E0DE122AC0AE
:101D9000BE016F5F7F4FC8010E941C0E40E0F8013A
:101DA00080854817F8F4842F90E0880F991FF70179
:101DB000E80FF91F21E030E02C0F3D1F820F931F29
:101DC000D8011E962D913C911F97DC018D919C911D
:101DD000281B390B80819181820F931F918380830F
:101DE0004F5FDDCFA096E7E00C9419122F923F923F
:101DF0005F926F927F928F929F92AF92BF92CF929B
:101E0000DF92EF92FF920F931F93CF93DF93CDB7A3
:101E1000DEB7C056D1090FB6F894DEBF0FBECDBFF6
:101E20008C014B015A01522EDA018D919C91892B24
:101E300031F0F40180819181892BF1F424C0D80123
:101E400018968C9190E0880F991F0E942F12F5012F
:101E500091838083009709F4B1C0FC0120E030E059
:101E6000D80118968C9190E02817390714F7119231
:101E700011922F5F3F4FF4CFE12CF12C6E01B1E2B4
:101E8000CB0ED11C21C0F801808590E0880F991FEE
:101E90000E942F12D4018D939C93009709F48EC059
:101EA000FC0120E030E0D80118968C9190E02817D2
:101EB000390714F7D8011E968D919C911F97819335
:101EC00091932F5F3F4FEFCF452DBE016F5B7F4F4B
:101ED000C8010E94990EF8016084712CFE01EF5B2D
:101EE000FF4FC6019E012F5F3F4F190120E030E0F8
:101EF000261537054CF5E114F10489F0DC016D91EC
:101F00007C91408151816417750748F0D1016D9132
:101F10007C91408151814617570748F00DC04081A0
:101F20005181DC014D935C93E114F10479F7408118
:101F30005181D1014D935C932F5F3F4FB2E02B0E47
:101F4000311C32960296D4CFEFEFEE1AFE0AFAE079
:101F5000EF16F10409F0B8CF9E012F5F3F4F7901D2
:101F6000360180E090E0F801208530E08217930789
:101F70002CF5D7012D913D917D01B3016C197D099F
:101F8000D501ED91FC91E60FF71F40815181421779
:101F9000530710F431832083F301219131913F01E4
:101FA000D401ED91FC91E60FF71F40815181241778
:101FB000350710F4318320830196D5CFC05ADF4F07
:101FC0000FB6F894DEBF0FBECDBFDF91CF911F914A
:101FD0000F91FF90EF90DF90CF90BF90AF909F90C8
:101FE0008F907F906F905F903F902F9008951F93F8
:101FF000CF93DF93EC01162F8FEF860F823018F00E
:10200000662359F014C021E0AE014E5F5F4FBE0160
:10201000CE010E94F60E123051F4AE014A5F5F4FBE
:10202000BE016C5F7F4F20E0CE010E94F60EDF9173
:10203000CF911F910895A0E0B0E0E1E2F0E10C94AF
:10204000FB11EC018B01B42E842F8D7F51F48C8118
:102050009D81892B09F497C08E819F81892B09F47A
:1020600092C08FEF8B0D823050F488819981892B3B
:1020700009F489C08A819B81892B09F484C04B2D86
:10208000B801CE010E94990E780100E010E0C12C49
:10209000D12C888590E0C816D9060CF074C081E078
:1020A000B8120AC0EA81FB81E00FF11F0190F081B4
:1020B000E02DA881B9810DC08C819D812E813F8149
:1020C000B1100CC0F901E00FF11F0190F081E02D7B
:1020D000DC01A00FB11F8D919C9128C0FC01E00F85
:1020E000F11F40815181E881F981E00FF11F80816A
:1020F0009181EE85FF854817590710F4CF0104C080
:102100008E0F9F1F841B950BD901A00FB11F2D911E
:102110003C91AA81BB81A00FB11F4D915C91241706
:10212000350720F0E40FF51FE21BF30BE81BF90B5A
:10213000A9F0D7012D913C9140E050E0281B390BCC
:1021400041095109A8EEB3E00E94DF119F0140E070
:1021500050E00E94B11137FD0AC002C020E030E01B
:10216000293EB3E03B072CF028EE33E002C020E02C
:1021700030E0F701219331937F01FFEFCF1ADF0A9F
:102180000E5F1F4F86CFCDB7DEB7E9E00C94171274
:10219000A0E0B0E0EEECF0E10C94F211EC018B0168
:1021A000822E0E941B102884E801412C512C320100
:1021B00000E010E0C12CD12C7601312C912C58EE8E
:1021C000A52E53E0B52E921421F1E991F9918820C2
:1021D00021F0C5018E1B9F0BFC01E93CF10524F4A5
:1021E000E333F10574F002C033243394DF01A3011B
:1021F00092010E94EA11C60ED71EE81EF91E0E0FAC
:102200001F1F939498EE490E93E0591E611C711C98
:10221000DACF31101EC0492D50E04150510924EF52
:1022200031E0429FC001439F900D529F900D1124B9
:102230002091AF013091B00128173907B4F088EE32
:1022400093E0489F9001499F300D589F300D112415
:102250000EC0980140E050E0C701B6010E948F1106
:102260003093B0012093AF0102C020E030E0C901FB
:10227000CDB7DEB7E2E10C940E12CF93DF93EC0101
:102280008A819B81009711F00E94C4128E819F81E8
:10229000009711F00E94C41288819981009711F073
:1022A0000E94C4128C819D81009711F00E94C4127B
:1022B000DF91CF910895991B79E004C0991F96177B
:1022C00008F0961B881F7A95C9F780950895AA1B78
:1022D000BB1B51E107C0AA1FBB1FA617B70710F011
:1022E000A61BB70B881F991F5A95A9F78095909543
:1022F000BC01CD01089597FB072E16F4009407D07A
:1023000077FD09D00E94671107FC05D03EF4909537
:1023100081959F4F0895709561957F4F0895A1E233
:102320001A2EAA1BBB1BFD010DC0AA1FBB1FEE1F4F
:10233000FF1FA217B307E407F50720F0A21BB30B9A
:10234000E40BF50B661F771F881F991F1A9469F716
:1023500060957095809590959B01AC01BD01CF0172
:102360000895052E97FB1EF400940E94C81157FD96
:1023700007D00E948F1107FC03D04EF40C94C811B3
:1023800050954095309521953F4F4F4F5F4F0895A1
:1023900090958095709561957F4F8F4F9F4F0895D1
:1023A000A29FB001B39FC001A39F700D811D112496
:1023B000911DB29F700D811D1124911D08950E94E1
:1023C000D011A59F900DB49F900DA49F800D911DDD
:1023D00011240895B7FF0C94DF110E94DF11821BB6
:1023E000930B08952F923F924F925F926F927F923C
:1023F0008F929F92AF92BF92CF92DF92EF92FF9215
:102400000F931F93CF93DF93CDB7DEB7CA1BDB0BC0
:102410000FB6F894DEBF0FBECDBF09942A88398865
:1024200048885F846E847D848C849B84AA84B9846C
:10243000C884DF80EE80FD800C811B81AA81B98178
:10244000CE0FD11D0FB6F894DEBF0FBECDBFED018C
:102450000895EE0FFF1F0590F491E02D0994CF939E
:10246000DF938230910510F482E090E0E091B901B1
:10247000F091BA0120E030E0C0E0D0E0309711F1F7
:102480004081518148175907C0F04817590761F436
:1024900082819381209719F09B838A832BC090932C
:1024A000BA018093B90126C02115310519F04217F0
:1024B000530718F49A01BE01DF01EF010280F38196
:1024C000E02DDCCF2115310509F1281B390B243013
:1024D000310590F412968D919C91139761157105B9
:1024E00021F0FB019383828304C09093BA0180930F
:1024F000B901FD01329644C0FD01E20FF31F819343
:102500009193225031092D933C933AC02091B70109
:102510003091B801232B41F4209110013091110129
:102520003093B8012093B70120910E0130910F0133
:102530002115310541F42DB73EB74091120150915C
:102540001301241B350BE091B701F091B801E2179C
:10255000F307A0F42E1B3F0B2817390778F0AC01C6
:102560004E5F5F4F2417350748F04E0F5F1F5093A3
:10257000B8014093B7018193919302C0E0E0F0E08D
:10258000CF01DF91CF9108950F931F93CF93DF93E6
:10259000009709F48CC0FC013297138212820091DB
:1025A000B9011091BA010115110581F42081318121
:1025B000820F931F2091B7013091B8012817390776
:1025C00079F5F093B801E093B70171C0D80140E00C
:1025D00050E0AE17BF0750F412962D913C9113971F
:1025E000AD012115310509F1D901F3CF9D01DA01C2
:1025F0003383228360817181860F971F821793072F
:1026000069F4EC0128813981260F371F2E5F3F4F77
:10261000318320838A819B8193838283452B29F494
:10262000F093BA01E093B90142C01396FC93EE9384
:102630001297ED01499159919E01240F351FE21720
:10264000F30771F480819181840F951F0296119692
:102650009C938E938281938113969C938E93129771
:10266000E0E0F0E0D80112968D919C9113970097CD
:1026700019F0F8018C01F6CF8D919C9198012E5F95
:102680003F4F820F931F2091B7013091B801281757
:10269000390769F4309729F41092BA011092B90100
:1026A00002C0138212821093B8010093B701DF9128
:1026B000CF911F910F91089510E0C8E5D0E004C0BC
:1026C000FE010E9429122196C935D107C9F7F89455
:0226D000FFCF3A
:1026D20088130F00F4010400D0070401080200006F
:1026E200BB012000200000010203040506FF9C013B
:1026F200B501CF01EA0107022602470269028E02F2
:10270200B502DE020A030E0F1011126D560050724E
:10271200657373204200476F21002E30002E0000A7
:00000001FF
