S01600003370692D6D617A65736F6C7665722E737265638D
S11300000C9456000C9473000C9473000C947300BD
S11300100C9473000C9473000C9473000C94730090
S11300200C9473000C948A0B0C9473000C9473005E
S11300300C9473000C947C070C9473000C94730060
S11300400C9473000C9473000C9473000C94730060
S11300500C9473000C9473000C9473000C94730050
S11300600C9473000C947300000000000000001F47
S11300701F1F1F1F1F1F4C31362063646567726585
S11300806734003E6733323E3E63333200736F6C35
S1130090766572004D617A650033F720526F626FA6
S11300A0740020506F6C6F6C7500640C11241FBEBB
S11300B0CFEFD8E0DEBFCDBF11E0A0E0B1E0ECEFC0
S11300C0F6E202C005900D92AE36B107D9F722E0F0
S11300D0AEE6B1E001C01D92AA34B207E1F70E9476
S11300E078020C9471130C94000060E088E690E0B0
S11300F00E94BD0861E089E690E00E94BD0862E0CC
S11301008AE690E00E94BD0863E08BE690E00E94DE
S1130110BD0864E08CE690E00E94BD0865E08DE6D1
S113012090E00E94BD0866E08EE690E00E94BD0863
S11301300C943009BF92CF92DF92EF92FF920F930B
S11301401F93CF93DF93CDB7DEB72A970FB6F894FA
S1130150DEBF0FBECDBF8C017C018AE0E80EF11C2E
S11301608AE0B82E95E6C92ED12CE4E1F1E0DE0157
S113017011968B2D01900D928A95E1F7F8018191EA
S113018091918F01B6010E947C11E1E0F0E0EC0F47
S1130190FD1FE60FF71F80810E94C0080E151F0582
S11301A021F72A960FB6F894DEBF0FBECDBFDF91BC
S11301B0CF911F910F91FF90EF90DF90CF90BF9060
S11301C008952F923F924F925F926F927F928F92F7
S11301D09F92AF92BF92CF92DF92EF92FF920F93D2
S11301E01F93CF93DF93CDB7DEB72A970FB6F8945A
S11301F0DEBF0FBECDBFC12CD12C7601A12CB12CFA
S113020060E1462E67E2562E612C712C74E1272E94
S1130210312CECE38E2E912C61E0CE0101960E94EC
S11302202A0C8C01005D1740C801012E000CAA0B9A
S1130230BB0BC80ED91EEA1EFB1EC701B601A301E3
S113024092010E94C611F801EA19FB09CF01880F37
S1130250991F8E0F9F1F97FD019695958795280FDF
S1130260391FC801B1010E949011C901860F971F5F
S11302708D3391056CF4843C2FEF92071CF097FDAD
S113028003C008C084EC9FEF6CE370E0CC9607C019
S11302908CE390E0B401681B790B8CE390E00E943E
S11302A07E0A8B819C818436910550F48D819E81D8
S11302B08436910528F48F8198858436910560F001
S11302C089819A81893C910538F489859A85893C8C
S11302D0910510F45801A0CF2A960FB6F894DEBF0A
S11302E00FBECDBFDF91CF911F910F91FF90EF9083
S11302F0DF90CF90BF90AF909F908F907F906F9042
S11303005F904F903F902F900895EF92FF920F933C
S11303101F93CF93DF93CDB7DEB72A970FB6F89428
S1130320DEBF0FBECDBF80ED97E00E94600C0E943F
S1130330750082EA90E00E94500961E080E00E942A
S1130340C80989E990E00E94500983E890E00E947E
S1130350FD0788EE93E00E94D20B0E94300984E9E5
S113036090E00E94500961E080E00E94C8098DE895
S113037090E00E94500988EE93E00E94D20B00E0C6
S113038010E082E00E94680B882311F081E00827C6
S11303900E9430090E94C2047C010130110559F405
S11303A00E94870BBC01990F880B990B0E94A50929
S11303B08BE391E008C0BC01990F880B990B0E9454
S11303C0A5098FE391E00E943F0961E080E00E946B
S11303D0C8098DE5E81682E1F8061CF082E491E094
S11303E002C08BE491E00E943F0980E20E94C10AAE
S11303F081110AC080E10E94C10A811109C08AE00A
S113040090E00E94D20BBDCF90E2E92EF12C03C004
S113041080E1E82EF12C88EE93E00E94D20B0CEEE2
S11304201FEF0832110528F068ED7FEF88E290E0B5
S113043004C068E270E088ED9FEF0E947E0A81E0CC
S11304400E94240C84E190E00E94D20B0F5F1F4FA6
S11304500C33110531F760E070E080E090E00E9419
S11304607E0A80E10E94C10A882389F080E10E940B
S1130470AD0A80E20E94AD0A0E94300984E591E051
S11304800E943F0986E790E00E94FD071FC080E2BA
S11304900E94C10A8111EACF61E0CE0101960E9457
S11304A02A0C8C010E943009B80180E090E00E947F
S11304B0A50961E080E00E94C809CE0101960E946E
S11304C09A0084E690E00E94D20BCBCF0E94DC0716
S11304D08111FCCFC7012A960FB6F894DEBF0FBE78
S11304E0CDBFDF91CF911F910F91FF90EF900895B1
S11304F00E9485010E94F902FFCFE091DD01F0E046
S1130500E252FE4F10820E9430098EED91E00E946B
S11305103F098091DD01893040F061E080E00E9474
S1130520C80986EE91E00C943F0908952031310505
S113053039F481110BC061110DC0442369F008C066
S1130540411106C0611106C0882331F08CE408957E
S113055082E5089583E5089582E408954091DD01DC
S1130560433008F445C0242F30E022523E4FF901B5
S1130570329780818234E1F5F90161E070E080E036
S113058090E052915C3451F0523529F0523441F4E8
S11305908C549F4F05C0865A9F4F02C0825F9E4F66
S11305A06F5F7F4F6430710561F768E671E00E9408
S11305B090118A35910589F034F4892BB1F4F9014D
S11305C0339783E511C0843B910559F08E309140F7
S11305D061F4F90133978CE407C0F901339782E59C
S11305E003C0F901339782E4808342504093DD01D4
S11305F00895CF93DF93CDB7DEB72B970FB6F8945A
S1130600DEBF0FBECDBF7C010E94E10062E370E05B
S113061082E390E00E947E0A82E390E00E94D20B83
S113062061E0CE0101960E942A0C11E089819A8131
S11306308536910508F410E041E089859A85853670
S1130640910508F440E068E270E088E290E04B87AE
S11306500E947E0A88EC90E00E94D20B61E0CE01F9
S113066001960E942A0C8B819C814B85893C9105C3
S113067060F48D819E81893C9105A0F48F819885D9
S1130680893C910578F460E00EC08935924050F0C1
S11306908D819E818935924028F08F819885893596
S11306A09240B8F461E09701812F0E949602182FBE
S11306B00E94D2039091DD01E92FF0E0E252FE4F57
S11306C010839F5F9093DD010E94AE020E947D0221
S11306D09BCF80EDC82E87E0D82EE12CF12C60E072
S11306E070E080E090E00E947E0A88E591E00E943C
S11306F0EC0780E10E94C10A811121C00E940A0C0A
S1130700A70196010E94A411683E734081059105DA
S113071078F40E9430098EE591E00E943F0961E07F
S113072080E00E94C80986E691E00E943F0902C069
S11307300E947D028EE190E00E94D20BDACF80E12C
S11307400E94C10A8111FBCF88EE93E00E94D20B74
S11307500EED11E08091DD0190E0A8014E5D514065
S113076048175907E4F40E94E10062E370E082E371
S113077090E00E947E0A82E390E00E94D20B68E23D
S113078070E088E290E00E947E0A88EC90E00E948B
S1130790D20BF80181918F010E94D203DBCF0E941A
S11307A0E1009DCF8C3469F0823581F08234C1F44C
S11307B060EB7FEF80E590E00E947E0A80E991E0A3
S11307C00DC060E570E080EB9FEF04C060EB7FEF4D
S11307D080E590E00E947E0A88EC90E00C94D20BB5
S11307E00895ECE7F0E080818F7D80830895811186
S11307F003C00E94F103089580917C00806280937D
S11308007C00089580917C0085FB882780F90895F9
S11308100E940204882321F08091790090E00895D9
S1130820809178009091790008958032A0F497E83F
S113083090937A0090917C00662311F0906C02C032
S11308409F779064907E982B90937C0080917A009F
S1130850806480937A000895A0E0B0E0E2E3F4E0DD
S11308600C941112EB0160E00E94150480917A004F
S113087086FDFCCF8E01C12CD12C760180917A00AB
S1130880806480937A0080917A0086FDFCCF0E9478
S11308900804C80ED91EE11CF11C015011090115F0
S11308A0110561F7CE0196958795C034D10538F4CA
S11308B08C0D9D1DBE010E947C11CB010EC0A701B1
S11308C09601280F391F411D511DCA01B9019E010E
S11308D040E050E00E94A411C901CDB7DEB7E8E0C2
S11308E00C942D12CF92DF92EF92FF92A09100010F
S11308F0B09101019C010E94E5116B017C010E94F1
S11309000204882359F0C701B60161587F4F8F4F05
S11309109F4F2FEF30E040E050E00AC0C701B6011E
S113092061507E4F8F4F9F4F2FEF33E040E050E0F8
S11309300E94A411C901FF90EF90DF90CF90089519
S11309400E942C040E94720408951F93CF93DF9396
S11309500E940204182F0E94F1036AE070E086E00E
S11309600E94A004EC01812F0E94F703CE01880F9E
S1130970991F8C0F9D1F019696958795DF91CF91B6
S11309801F9108950E94A504089590917301E09128
S11309906E01F0916F01992311F0849101C080815F
S11309A02FEB280F2A3110F4805E0895803249F429
S11309B09F012F5F3F4F30936F0120936E01EF2B08
S11309C031F708951F93CF93DF930E94C504C0E0CD
S11309D0D0E01AE090ED980F9A30B8F49E01129F7F
S11309E0E001139FD00D1124C80FD11D87FDDA95A6
S11309F0E09780916E0190916F01019690936F0141
S1130A0080936E010E94C504E5CFCE01DF91CF91A2
S1130A101F91089510926F0083E28093800081E11A
S1130A20809381001092820080E197E29093890084
S1130A308093880010928B0010928A00229A7894F6
S1130A4008958F929F92AF92BF92DF92EF92FF929E
S1130A500F931F93CF93DF935C018B01D42E80916E
S1130A607001811105C081E0809370010E940A0524
S1130A7010920B01B7FE05C0E894B7F82AE0F22EF5
S1130A8002C0FF24F394E09081002E2D287FE22EF3
S1130A9048ECF49EC00111248A159B05E0F4E5019D
S1130AA051E1A51657E2B50610F0C0E1D7E2BE0148
S1130AB07695679580E090E06058794687469F4F29
S1130AC04E01A12CB12CA50194010E94A41159013D
S1130AD08E2D816024C0C8E2FC9EC02D1124D0E07C
S1130AE0CA15DB0508F4E501BE01769567959E01FC
S1130AF040E050E08AE0F81207C080E090E0605ED9
S1130B00734481449F4F06C080E090E060537D4E63
S1130B108C4E9F4F0E94A41159018E2D8260882E05
S1130B202AE0F21207C0CE0105966AE070E00E9446
S1130B307C11EB01C83E43E0D40759F09801DE0173
S1130B400E94E51128EE33E040E050E00E94C61117
S1130B50890110926F0080928100B0928900A09266
S1130B60880020918800309189004D2D403108F093
S1130B704FE080E190E0841B9109A90102C05695E1
S1130B8047958A95E2F750938B0040938A0010931F
S1130B9076010093750186B38FEF86BB81E0809365
S1130BA06F00DF91CF911F910F91FF90EF90DF9035
S1130BB0BF90AF909F908F900895CF93DF93EB01F8
S1130BC08F3F11F0411105C040E0BE0188EE93E073
S1130BD043C0813130F050EF580F503618F05FE5C4
S1130BE001C050E0852F6CE00E947011682F74EFF3
S1130BF0760390011124250F311D2C30310540F46A
S1130C00F901EE0FFF1FE25EFE4F2081318102C029
S1130C1020E030E0873081F0082E02C0220F331F1D
S1130C200A94E2F7823028F0C90105966AE070E080
S1130C300CC0C90190580CC0C90136E0880F991F37
S1130C403A95E1F7029665E070E00E947C11CB01D1
S1130C50403108F04FE0BE010E942105DF91CF91A1
S1130C600895A2E0B0E0E7E3F6E00C940912909056
S1130C700A0180917201882321F060917101611150
S1130C8017C077247394B0ECAB2EBDE5BB2E1AE0ED
S1130C90612E04E0802E80EDC82E87E0D82E94E0EB
S1130CA0E92EF12C04EF11E02FE0422E512C15C057
S1130CB070E040E088EE93E00E94210510927101FB
S1130CC017C18636D4F5813609F4A9C07CF58C3376
S1130CD009F460C08E3381F493940E94C50420917A
S1130CE06E0130916F012F5F3F4F30936F0120935E
S1130CF06E01853631F752C0813209F08BC0809283
S1130D000A01D0920901C0920801F0920701E09211
S1130D1006011093050100930401509203014092CF
S1130D20020110927201A4E09A2ED7CF8336A1F16A
S1130D300CF478C010E082E077C08D36C1F194F4F1
S1130D40873691F174F18C3609F064C00E94E20494
S1130D50BC01909307018093060180910801909152
S1130D60090151C08237C9F14CF48F3609F052C0E1
S1130D700E94E204982E80930A01AFCF843781F158
S1130D80863709F047C00E94E204909303018093E0
S1130D900201A3CF9A94A1CF10E020C010E084E018
S1130DA043C010E085E040C010E087E03DC00E94F1
S1130DB0C5048C3619F41092720104C07092720149
S1130DC01092710120916E0130916F012F5F3F4F9E
S1130DD030936F0120936E0180CF11E080E024C036
S1130DE00E94E204BC01C5010E947C11669EC00100
S1130DF0679E900D112490930901809308016091DE
S1130E000601709107010E947C11709305016093A3
S1130E10040163CF10926F0110926E0169C010E05B
S1130E2089E002C010E08BE0082F9CE0999E000D41
S1130E3011240E94C504982F977F933261F4209166
S1130E406E0130916F012F5F3F4F30936F012093FC
S1130E506E010F5FEECF8D3271F420916E013091EF
S1130E606F012F5F3F4F30936F0120936E0101504C
S1130E700E94C504F0CF6091040170910501815373
S1130E80883050F4E0900801F09009010E94E204D7
S1130E90BC01C7010E947C117B01F694E79469832D
S1130EA07A830E94C50469817A818E3269F4209123
S1130EB06E0130916F012F5F3F4F30936F0120938C
S1130EC06E016E0D7F1DE9CF80917201882339F088
S1130ED09B013695279520937101621B71094091FE
S1130EE00201112311F08FEF01C0802F0E94DD0554
S1130EF02296E0E10C9425121F920F920FB60F92E6
S1130F0011242F933F934F935F936F937F938F930A
S1130F109F93AF93BF93EF93FF938091750190914B
S1130F2076019C012150310930937601209375019B
S1130F30892B11F510926F00789480918100887F3D
S1130F4081608093810080E197E29093890080938F
S1130F50880010928B0010928A0081E080930B012C
S1130F6080916E0190916F01892B31F08091740111
S1130F70811102C00E943106FF91EF91BF91AF91A0
S1130F809F918F917F916F915F914F913F912F919D
S1130F900F900FBE0F901F90189580910B0188231E
S1130FA049F081E020916E0130916F01232B19F4F7
S1130FB080E0089581E008950E94CD07089510927D
S1130FC06F0090936F0180936E01109273011092E1
S1130FD071010E94310608950E94DF07089510925E
S1130FE06F0090936F0180936E0181E08093730191
S1130FF0109271010E94310608950E94EF0708952E
S113100081E090E06F9364E06A95F1F76F91019746
S1131010C9F708950F931F93CF93DF931AB157988D
S11310205A98289AC0E0D0E00E9400085C9A0E9476
S1131030000809B15C980E9400085C9A0E940008AC
S11310405C98249607FF10C0AE0160E070E08091C8
S1131050770190917801A0917901B0917A014817B4
S113106059076A077B0700F31AB9DF91CF911F91E3
S11310700F91089595B1282F217030E0220F331F6E
S1131080482F467068E0469FA0011124242B9D7CC4
S1131090292B25B99BB188708295807F9F77892BF6
S11310A08BB95C9A0E9400085C980E94000808951D
S11310B0A0E0B0E0EEE5F8E00C941212C82FD62EB2
S11310C0E42E80914202811105C081E080934202A6
S11310D00E94C8080E940A0814B1D5B1FAB00BB135
S11310E02898DD2011F05A9A01C05A9894B192635D
S11310F094B9579A81E0E81629F08C2F82958F7065
S11311000E943A088C2F8F700E943A08FAB80BB9E3
S113111014B9D5B9CDB7DEB7E7E00C942E1242E08E
S113112060E00E945808089542E061E00E94580877
S11311300895A1E0B0E0EFE9F8E00C9413128C01FB
S1131140660F660F660FE12CF12C8E2D860F8064DE
S113115069830E948F08F801EE0DFF1D84910E949F
S113116094088FEFE81AF80A6981E8E0EE16F104B2
S113117061F72196E6E00C942F120E9499080895D5
S11311800E949408089541E060E00E945808089580
S113119080E197E2A0E0B0E080937701909378013A
S11311A0A0937901B0937A01529A209A549A8EE1CD
S11311B090E00E94D20B83E00E94C30886E090E096
S11311C00E94D20B83E00E94C30882E090E00E9458
S11311D0D20B83E00E94C30882E090E00E94D20B0D
S11311E082E00E94C30882E090E00E94D20B88E271
S11311F00E948F0888E00E948F0881E00E948F0877
S113120086E00E948F088CE00E948F08089581E098
S11312100E948F0880917D0190917E01892BF9F0C5
S113122060E0A0E2262F30E070910C0180910D0166
S113123090E00197789FA001799F500D1124241705
S113124035074CF4E0917D01F0917E01E20FF31F2C
S1131250A0836F5FE7CF10927B0110927C01089509
S11312600E9407090895CF93DF93EC0189918823A5
S113127019F00E949408FACFDF91CF9108950E944B
S113128033090895CF93DF93EC01FE018491882301
S113129021F00E9494082196F8CFDF91CF91089510
S11312A00E9442090895AAE0B0E0E9E5F9E00C944F
S11312B011121AE05AE0C52ED12CE12CF12C062F84
S11312C0A70196010E94A411CA01B9011150E1E0DD
S11312D0F0E0EC0FFD1FE10FF11D005D2AE0629FBD
S11312E0001911240083611571058105910539F7F1
S11312F01A3058F4E1E0F0E0EC0FFD1FE10FF11DAE
S113130080810E9494081F5FF3CF2A96E8E00C9432
S11313102D12CF92DF92EF92FF926B017C0197FF27
S11313200BC0F094E094D094C094C11CD11CE11C77
S1131330F11C8DE20E949408C701B6010E94530972
S1131340FF90EF90DF90CF9008950E94890908954F
S1131350A5E0B0E0EEEAF9E00C941612182F80E84C
S1131360898380EC8A8384E98B8384ED8C83FE01FA
S1131370E60FF11D8181810F6D830E948F08109308
S11313807B016D8160937C012596E3E00C9432121D
S11313900E94A8090895883058F491E001C0990F7B
S11313A08A95EAF7892FAAE2B0E0EBE2F0E021C0E7
S11313B08E3060F498EF980F81E001C0880F9A9501
S11313C0EAF7A4E2B0E0E5E2F0E013C0853160F4AE
S11313D092EF980F81E001C0880F9A95EAF7A7E28F
S11313E0B0E0E8E2F0E005C080E0A0E0B0E0E0E0DA
S11313F0F0E06F3F19F49081982709C0662319F033
S11314009081982B04C02081982F909592239083EB
S11314109C91982B9C93089583EF8093B00084BD96
S113142082E08093B10085BD1092B4001092B300A5
S113143018BC17BC60E086E00E94CB0960E085E040
S11314400E94CB0960E08BE00E94CB0960E083E05E
S11314500E94CB09089580914302811105C081E067
S1131460809343020E940C0A0895CF93DF93EC010A
S11314700E942B0AD7FF05C0D195C195D10981E0FF
S113148001C080E0CF3FD10519F014F0CFEFD0E0D8
S1131490882319F018BCC7BD02C0C8BD17BCDF91B2
S11314A0CF910895CF93DF93EC010E942B0AD7FFCD
S11314B005C0D195C195D10981E001C080E0CF3F3D
S11314C0D10519F014F0CFEFD0E0882329F0109261
S11314D0B400C093B30004C0C093B4001092B3002E
S11314E0DF91CF910895CF93DF93EB010E94350AEA
S11314F0CE010E94520ADF91CF9108950E94730A8F
S1131500089584B18D7C84B985B1826385B985E001
S113151090E06F9364E06A95F1F76F910197C9F7D2
S1131520089580914402811105C081E080934402B2
S11315300E94810A0895CF93C82F0E94910A83B113
S11315408C23E9F38AE090E00E94D20B83B18C23D0
S1131550B1F383B18C23CF9108950E949B0A08951F
S1131560A1E0B0E0E6EBFAE00C94171289830E9444
S1131570910A93B19095898189232196E2E00C9494
S113158033120E94B00A0895A4E0B0E0EAECFAE055
S11315900C941412182FF3B0F0940E940A0C69836F
S11315A07A838B839C830E94910A20918A016981AA
S11315B07A818B819C81213009F138F0223009F441
S11315C053C0233009F463C07EC0212F30E04F2D77
S11315D050E04095509524233523232B09F473C000
S11315E0F094F122F0928901609385017093860151
S11315F0809387019093880181E063C00091850105
S1131600109186012091870130918801DC01CB0182
S1131610801B910BA20BB30B0F97A105B10508F426
S113162052C0409189018F2D90E080959095242F90
S113163030E082239323892BA1F082E080938A01F6
S1131640F094F422F09289013EC030E0812F90E0C2
S11316504F2D50E040955095842395232817390742
S113166091F110928A012FC0209189013F2D3223DC
S113167061F323E020938A0130938901609385010B
S11316807093860180938701909388011CC0009118
S11316908501109186012091870130918801DC0138
S11316A0CB01801B910BA20BB30B0F97A105B105C6
S11316B050F0809189018F2119F010928A0104C0A1
S11316C082E080938A0180E02496E5E00C94301255
S11316D00E94C40A0895A2E0B0E0E1E7FBE00C94A4
S11316E0171280914602909147029E012F5F3F4F4F
S11316F0009719F42A54324002C0281B390B3A834C
S1131700298389819A812296E2E00C9433120E9403
S11317106B0B08952F928F939F932FB68091920114
S1131720909193010196809392019093930190E09C
S113173080919401891F8093940190918C019C5F06
S113174090938C0180918B0180519742C0F09093CB
S11317508C0180938B0180918D0190918E01019673
S113176080938D0190938E0190E080918F01891F69
S113177080938F0180919001891F809390012FBEE7
S11317809F918F912F90189528EE33E0019748F0A0
S1131790F9016F9364E06A95F1F76F913197C9F796
S11317A0F5CF08950E94C40B0895E0E7F0E080812E
S11317B08E7F8083A0EBB0E08C9183608C93A1EB4F
S11317C0B0E08C91807F8C938C9182608C93B89ADA
S11317D0808181608083789408958091450281118D
S11317E005C081E0809345020E94D50B08950E94B4
S11317F0ED0BE0E7F0E080818E7F808360918D01C6
S113180070918E0180918F019091900120812160CF
S1131810208308950E94F70B08950E94ED0BE0E7E2
S1131820F0E080818E7F808310928D0110928E0172
S113183010928F011092900110928C0110928B01E2
S11318408081816080830895682F85E991E00E94FA
S11318500C100895462F20E0BC0185E991E00E9418
S1131860DD1008950F93CF93DF9300D000D01F9223
S1131870CDB7DEB79C0185E0E6E3F1E0DE01119629
S113188001900D928A95E1F7662311F00FEF01C0E4
S113189003E145E0BE016F5F7F4F85E991E00E945F
S11318A0040D85E991E00E94DB0C0E940D0C0F9061
S11318B00F900F900F900F90DF91CF910F9108959B
S11318C060E00E94320C089585E991E00E94521173
S11318D008956F9364E06A95F1F76F910197C9F7E2
S11318E00895FC01118210821382128215821482DF
S11318F01682683068F489E290E0918380838BE2F9
S113190090E0938382838AE290E0958384831FC06E
S11319106E3070F483E290E09183808385E290E0FE
S11319209383828384E290E09583848368500FC01C
S1131930653198F486E290E09183808388E290E0B8
S11319409383828387E290E0958384836E5081E061
S113195001C0880F6A95EAF786830895A7E0B0E08E
S1131960E4EBFCE00C9415128C01FC011182108252
S1131970138212821582148217821682613118F042
S113198080E1808702C0FC016087F801208B642F0E
S1131990CE0101960E94710C8F81F80181878B81A1
S11319A09C81938782878D819E81958784872796E2
S11319B0E4E00C943112FC01A485B585109779F00C
S11319C08C919185892B8C93A285B3859C9181857B
S11319D0809589238C9388EC90E00E94690C08958B
S11319E0FC01A485B585109771F08C919185892BA4
S11319F08C93A285B3858C919185892B8C9388ECEB
S1131A0090E00E94690C0895A7E0B0E0EAE0FDE0F0
S1131A100C940A127C014B01642F3901402F20E001
S1131A200E94AE0C87010F5B1F4FF8011082670103
S1131A30F2E4CF0ED11CF60110825701F3E4AF0E8D
S1131A40B11CF5011082F70177866686512CF701E7
S1131A508085581650F5652C712CF401E60DF71DA0
S1131A606081CE0101960E94710C2F81F701E60D71
S1131A70F71D218B89819A81F301EE0FFF1FEE0D73
S1131A80FF1D92A381A38332910511F4F80108C0CC
S1131A908632910511F4F60103C0899721F4F5010A
S1131AA08081822B80835394D2CF2796EFE00C94CD
S1131AB02612A0E0B0E0EFE5FDE00C940C12EC017E
S1131AC05B016C0181E4C80ED11CF60180807E01AB
S1131AD0F2E4EF0EF11CF70170808E010D5B1F4FD5
S1131AE0F801908080E09885891748F4F501E80FA3
S1131AF0F11DE80FF11D118210828F5FF4CF84B1C4
S1131B00F6019081892B84B987B1F7019081892BE3
S1131B1087B98AB1F8019081892B8AB985B1F60118
S1131B209081892B85B988B1F7019081892B88B977
S1131B308BB1F8019081892B8BB98AE090E00E94E7
S1131B40690C94B1F60180818095892384B997B199
S1131B50F70180818095892387B99AB1F801808142
S1131B60809589238AB995B1F6018081809589236E
S1131B7085B998B1F70180818095892388B99BB193
S1131B80F8018081809589238BB9E090B000D090D2
S1131B90B1008091B00083608093B00082E08093B4
S1131BA0B1004091B20080E090E02E853F8582171D
S1131BB0930720F5C090B2002C2D241B820F911D99
S1131BC003B1081132C0F6B0F7102FC029B12911A2
S1131BD02CC010C0212F30E0A901440F551FF5017E
S1131BE0E40FF51F60817181672B21F11F5F288548
S1131BF0121780F37F2C802E4C2DD7CFE092B000AB
S1131C00D092B10020E08885281730F5F501E20F65
S1131C10F11DE20FF11D80819181892B21F48E85C4
S1131C209F85918380832F5FEECF03B1F6B099B087
S1131C3010E0DDCFDE01A40FB51F91960D90BC918D
S1131C40A02D4C91DE01A20FB31F51962C9142237B
S1131C5069F691838083CACFCDB7DEB7EDE00C94EB
S1131C602812EF92FF920F931F93CF93DF93FC01FF
S1131C709B01F0907C0000917A0047B118B18091EB
S1131C807A0086FDFCCF80E09085891748F4D9015D
S1131C90A80FB11DA80FB11D1D921C928F5FF4CF28
S1131CA097B182A18095892387B998B182A1809543
S1131CB0892388B987E880937A00E12C81A1E8160A
S1131CC010F0E12C29C050E08085581718F5A52F95
S1131CD0B0E0EF01CA0FDB1F8989806480937C0028
S1131CE080917A00806480937A0080917A0086FDE6
S1131CF0FCCF6091780070917900AA0FBB1FA20FEE
S1131D00B31F8D919C911197860F971F8D939C9370
S1131D105F5FDACFE394D2CF8085E816A0F4E901BF
S1131D20CE0DD11DCE0DD11D61A170E0CB019595D5
S1131D308795A881B9818A0F9B1F0E947C117983A2
S1131D406883E394E9CFF0927C0000937A0018B999
S1131D5047B9CDB7DEB7E6E00C942F12A0E2B0E0AD
S1131D60E4EBFEE00C9412128C017B01D42E8FEF75
S1131D70840F823018F4C8010E94F00CD8015096E8
S1131D808C91B701811110C0C8010E94590DC8017E
S1131D900E94DB0CB2E0DB123AC0BE016F5F7F4FE2
S1131DA0C8010E94590D0FC0C8010E94310EC8011C
S1131DB00E94DB0CE2E0DE122AC0BE016F5F7F4F9F
S1131DC0C8010E94310E40E0F80180854817F8F4FC
S1131DD0842F90E0880F991FF701E80FF91F21E085
S1131DE030E02C0F3D1F820F931FD8011E962D91BA
S1131DF03C911F97DC018D919C91281B390B8081AC
S1131E009181820F931F918380834F5FDDCFA096D2
S1131E10E7E00C942E122F923F925F926F927F9282
S1131E208F929F92AF92BF92CF92DF92EF92FF92E6
S1131E300F931F93CF93DF93CDB7DEB7C056D1096D
S1131E400FB6F894DEBF0FBECDBF8C014B015A0113
S1131E50522EDA018D919C91892B31F0F40180810D
S1131E609181892BF1F424C0D80118968C9190E0CB
S1131E70880F991F0E944412F50191838083009773
S1131E8009F4B1C0FC0120E030E0D80118968C912F
S1131E9090E02817390714F7119211922F5F3F4FE2
S1131EA0F4CFE12CF12C6E01B1E2CB0ED11C21C098
S1131EB0F801808590E0880F991F0E944412D40194
S1131EC08D939C93009709F48EC0FC0120E030E0D0
S1131ED0D80118968C9190E02817390714F7D80187
S1131EE01E968D919C911F97819391932F5F3F4FE5
S1131EF0EFCF452DBE016F5B7F4FC8010E94AE0E30
S1131F00F8016084712CFE01EF5BFF4FC6019E0156
S1131F102F5F3F4F190120E030E0261537054CF5BF
S1131F20E114F10489F0DC016D917C9140815181CF
S1131F306417750748F0D1016D917C9140815181FE
S1131F404617570748F00DC040815181DC014D937D
S1131F505C93E114F10479F740815181D1014D93EF
S1131F605C932F5F3F4FB2E02B0E311C32960296EA
S1131F70D4CFEFEFEE1AFE0AFAE0EF16F10409F0FF
S1131F80B8CF9E012F5F3F4F7901360180E090E08A
S1131F90F801208530E0821793072CF5D7012D91A5
S1131FA03D917D01B3016C197D09D501ED91FC9141
S1131FB0E60FF71F408151814217530710F4318314
S1131FC02083F301219131913F01D401ED91FC91E2
S1131FD0E60FF71F408151812417350710F4318330
S1131FE020830196D5CFC05ADF4F0FB6F894DEBFD9
S1131FF00FBECDBFDF91CF911F910F91FF90EF9056
S1132000DF90CF90BF90AF909F908F907F906F9014
S11320105F903F902F9008951F93CF93DF93EC012F
S1132020162F8FEF860F823018F0662359F014C0F4
S113203021E0AE014E5F5F4FBE01CE010E940B0F47
S1132040123051F4AE014A5F5F4FBE016C5F7F4FA7
S113205020E0CE010E940B0FDF91CF911F910895D4
S1132060A0E0B0E0E6E3F0E10C941012EC018B0187
S1132070B42E842F8D7F51F48C819D81892B09F49A
S113208097C08E819F81892B09F492C08FEF8B0DAD
S1132090823050F488819981892B09F489C08A811E
S11320A09B81892B09F484C04B2DB801CE010E9479
S11320B0AE0E780100E010E0C12CD12C888590E0B0
S11320C0C816D9060CF074C081E0B8120AC0EA81BF
S11320D0FB81E00FF11F0190F081E02DA881B9810F
S11320E00DC08C819D812E813F81B1100CC0F901FE
S11320F0E00FF11F0190F081E02DDC01A00FB11F72
S11321008D919C9128C0FC01E00FF11F4081518109
S1132110E881F981E00FF11F80819181EE85FF85CF
S11321204817590710F4CF0104C08E0F9F1F841B5A
S1132130950BD901A00FB11F2D913C91AA81BB81B0
S1132140A00FB11F4D915C912417350720F0E40FC7
S1132150F51FE21BF30BE81BF90BA9F0D7012D9136
S11321603C9140E050E0281B390B41095109A8EE8D
S1132170B3E00E94F4119F0140E050E00E94C611B8
S113218037FD0AC002C020E030E0293EB3E03B073F
S11321902CF028EE33E002C020E030E0F701219378
S11321A031937F01FFEFCF1ADF0A0E5F1F4F86CFF7
S11321B0CDB7DEB7E9E00C942C12A0E0B0E0E3EE7A
S11321C0F0E10C940712EC018B01822E0E94301076
S11321D02884E801412C512C320100E010E0C12C8C
S11321E0D12C7601312C912C58EEA52E53E0B52E2E
S11321F0921421F1E991F991882021F0C5018E1BF7
S11322009F0BFC01E93CF10524F4E333F10574F080
S113221002C033243394DF01A30192010E94FF1111
S1132220C60ED71EE81EF91E0E0F1F1F939498EEBC
S1132230490E93E0591E611C711CDACF31101EC087
S1132240492D50E04150510924EF31E0429FC00133
S1132250439F900D529F900D11242091D9013091EC
S1132260DA0128173907B4F088EE93E0489F90010B
S1132270499F300D589F300D11240EC0980140E045
S113228050E0C701B6010E94A4113093DA012093F3
S1132290D90102C020E030E0C901CDB7DEB7E2E1E8
S11322A00C942312CF93DF93EC018A819B810097D6
S11322B011F00E94D9128E819F81009711F00E9423
S11322C0D91288819981009711F00E94D9128C81CA
S11322D09D81009711F00E94D912DF91CF9108954A
S11322E0991B79E004C0991F961708F0961B881F64
S11322F07A95C9F780950895AA1BBB1B51E107C0C5
S1132300AA1FBB1FA617B70710F0A61BB70B881F81
S1132310991F5A95A9F780959095BC01CD01089510
S113232097FB072E16F4009407D077FD09D00E947E
S11323307C1107FC05D03EF4909581959F4F08953C
S1132340709561957F4F0895A1E21A2EAA1BBB1BBD
S1132350FD010DC0AA1FBB1FEE1FFF1FA217B3076D
S1132360E407F50720F0A21BB30BE40BF50B661F83
S1132370771F881F991F1A9469F760957095809547
S113238090959B01AC01BD01CF010895052E97FBEB
S11323901EF400940E94DD1157FD07D00E94A41181
S11323A007FC03D04EF40C94DD1150954095309504
S11323B021953F4F4F4F5F4F0895909580957095AD
S11323C061957F4F8F4F9F4F0895A29FB001B39F98
S11323D0C001A39F700D811D1124911DB29F700D2A
S11323E0811D1124911D08950E94E511A59F900D52
S11323F0B49F900DA49F800D911D11240895B7FFE3
S11324000C94F4110E94F411821B930B08952F92E3
S11324103F924F925F926F927F928F929F92AF9270
S1132420BF92CF92DF92EF92FF920F931F93CF93BD
S1132430DF93CDB7DEB7CA1BDB0B0FB6F894DEBF54
S11324400FBECDBF09942A88398848885F846E847A
S11324507D848C849B84AA84B984C884DF80EE80C4
S1132460FD800C811B81AA81B981CE0FD11D0FB6CD
S1132470F894DEBF0FBECDBFED010895EE0FFF1F30
S11324800590F491E02D0994CF93DF938230910568
S113249010F482E090E0E0914802F091490220E0DB
S11324A030E0C0E0D0E0309711F14081518148170D
S11324B05907C0F04817590761F482819381209726
S11324C019F09B838A832BC090934902809348021E
S11324D026C02115310519F04217530718F49A0143
S11324E0BE01DF01EF010280F381E02DDCCF211575
S11324F0310509F1281B390B2430310590F412966B
S11325008D919C9113976115710521F0FB019383C3
S1132510828304C09093490280934802FD0132965D
S113252044C0FD01E20FF31F8193919322503109BE
S11325302D933C933AC02091460230914702232BBD
S113254041F42091100130911101309347022093FE
S1132550460220910E0130910F012115310541F4FD
S11325602DB73EB74091120150911301241B350B36
S1132570E0914602F0914702E217F307A0F42E1B04
S11325803F0B2817390778F0AC014E5F5F4F2417D3
S1132590350748F04E0F5F1F5093470240934602A1
S11325A08193919302C0E0E0F0E0CF01DF91CF91FD
S11325B008950F931F93CF93DF93009709F48CC072
S11325C0FC01329713821282009148021091490251
S11325D00115110581F420813181820F931F20910F
S11325E04602309147022817390779F5F0934702DC
S11325F0E093460271C0D80140E050E0AE17BF0737
S113260050F412962D913C911397AD01211531058B
S113261009F1D901F3CF9D01DA013383228360816B
S11326207181860F971F8217930769F4EC01288143
S11326303981260F371F2E5F3F4F318320838A81D4
S11326409B8193838283452B29F4F0934902E09381
S1132650480242C01396FC93EE931297ED01499100
S113266059919E01240F351FE217F30771F48081FD
S11326709181840F951F029611969C938E9382816B
S1132680938113969C938E931297E0E0F0E0D80127
S113269012968D919C911397009719F0F8018C0173
S11326A0F6CF8D919C9198012E5F3F4F820F931F1F
S11326B020914602309147022817390769F4309770
S11326C029F4109249021092480202C01382128225
S11326D01093470200934602DF91CF911F910F910F
S11326E0089510E0C5E5D0E004C0FE010E943E124A
S10F26F02196C635D107C9F7F894FFCF36
S11326FC88130F00F4010400D00704010802000041
S113270C4A022000200000010203040506FF9C017C
S113271CB501CF01EA0107022602470269028E02C3
S113272CB502DE020A030E0F1011126D656D006DF9
S113273C56005072657373204243005265706C618D
S113274C63652100476F21003E3E61333200536FB5
S111275C6C7665642100507265737320420030
S9030000FC
